:100000000C9484000C941B080C94F4070C94AC0022
:100010000C94AC000C94AC000C94AC000C94AC00B0
:100020000C94AC000C94AC000C94AC000C94AC00A0
:100030000C94AC000C94AC000C94AC000C94AC0090
:100040000C94AA070C94AC000C9478070C945207FB
:100050000C94AC000C94AC000C94AC000C94AC0070
:100060000C94AC000C94AC004E455854204C4F43BB
:100070003A20005345433A2000484F5552533A2006
:100080000052504D3A20002020205350494E00206D
:10009000202020504C590000000000240027002A96
:1000A0000000000000250028002B000000000023B5
:1000B00000260029000404040404040404020202CB
:1000C0000202020303030303030102040810204099
:1000D0008001020408102001020408102000000022
:1000E00008000201000003040700000000000000F7
:1000F000004669726D776172652000576F6F4C65BD
:100100006520416E6E00420811241FBECFEFD8E07B
:10011000DEBFCDBF11E0A0E0B1E0E4E7FFE102C047
:1001200005900D92AA35B107D9F722E0AAE5B1E012
:1001300001C01D92A63AB207E1F710E0C4E8D0E092
:1001400004C02197FE010E94B20FC338D107C9F73E
:100150000E948E090C94B80F0C940000FC0142839D
:1001600053836483758386819781A085B185840FCD
:10017000951FA61FB71F82879387A487B587089509
:10018000CF93DF93A5E2B2E0FD01C191D191209719
:1001900041F049895A89EC0129893A894217530764
:1001A000D1F0D2E0E334FD0781F730E020E04D915B
:1001B0005D91452B91F4220F331FF901EE5EFD4F47
:1001C000948B838B8091430290914402019690938B
:1001D00044028093430281E006C02F5F3F4F2F30DF
:1001E000310529F780E0DF91CF9108958091670173
:1001F000909168010196909368018093670108953A
:10020000AF92BF92CF92DF92EF92FF920F931F9324
:10021000CF93DF936C017B018B01040F151FEB0162
:100220005E01AE18BF08C017D10759F06991D60119
:10023000ED91FC910190F081E02DC6010995892B8B
:1002400079F7C501DF91CF911F910F91FF90EF904A
:10025000DF90CF90BF90AF900895FC01538D448DF7
:10026000252F30E0842F90E0821B930B541710F061
:10027000CF96089501970895FC01918D828D98176E
:1002800061F0A28DAE0FBF2FB11D5D968C91928D46
:100290009F5F9F73928F90E008958FEF9FEF089577
:1002A000FC01918D828D981731F0828DE80FF11D40
:1002B000858D90E008958FEF9FEF0895FC01918D5B
:1002C000228D892F90E0805C9F4F821B91098F7354
:1002D0009927089585E791E00E945E0121E0892B2E
:1002E00009F420E0822F089580E090E0892B29F026
:1002F0000E946A0181110C9400000895FC01A48DF4
:10030000A80FB92FB11DA35ABF4F2C91848D90E037
:1003100001968F739927848FA689B7892C93A0891A
:10032000B1898C91837080648C93938D848D9813A4
:1003300006C00288F389E02D80818F7D8083089537
:10034000EF92FF920F931F93CF93DF93EC0181E025
:10035000888F9B8D8C8D98131AC0E889F9898081CC
:1003600085FF15C09FB7F894EE89FF896083E889FF
:10037000F98980818370806480839FBF81E090E0F1
:10038000DF91CF911F910F91FF90EF900895F62E7E
:100390000B8D10E00F5F1F4F0F731127E02E8C8D18
:1003A0008E110CC00FB607FCFACFE889F98980815D
:1003B00085FFF5CFCE010E947E01F1CFEB8DEC0FD2
:1003C000FD2FF11DE35AFF4FF0829FB7F8940B8F7A
:1003D000EA89FB8980818062CFCF682F85E791E031
:1003E0000C94A001CF93DF93EC01888D8823B9F0A2
:1003F000AA89BB89E889F9898C9185FD03C0808130
:1004000086FD0DC00FB607FCF7CF8C9185FFF2CFAC
:10041000808185FFEDCFCE010E947E01E9CFDF9183
:10042000CF910895833081F028F4813099F08230A3
:10043000A9F008958730A9F08830C9F08430B1F46C
:10044000809180008F7D03C0809180008F778093A2
:100450008000089584B58F7784BD089584B58F7D1D
:10046000FBCF8091B0008F778093B000089580918A
:10047000B0008F7DF9CFCF93DF93282F30E0F901C3
:10048000E352FF4F8491F901E753FF4FD491F901F3
:10049000EB54FF4FC491CC23A1F081110E941202B2
:1004A000EC2FF0E0EE0FFF1FE555FF4FA591B49143
:1004B000EC91ED2381E090E009F480E0DF91CF91B1
:1004C000089580E090E0FACF1F93CF93DF93282F19
:1004D00030E0F901E352FF4F8491F901E753FF4FF8
:1004E000D491F901EB54FF4FC491CC23A9F0162FFE
:1004F00081110E941202EC2FF0E0EE0FFF1FEF556A
:10050000FF4FA591B4918FB7F894EC91111108C0E9
:10051000D095DE23DC938FBFDF91CF911F9108959B
:10052000DE2BF8CFCF93DF9390E0FC01E753FF4F32
:1005300024918B549F4FFC0184918823D1F090E04B
:10054000880F991FFC01E956FF4FA591B491FC015A
:10055000EF55FF4FC591D491623071F49FB7F89475
:100560003C91822F809583238C93E8812E2B2883C6
:100570009FBFDF91CF9108958FB7F894EC912E2B08
:100580002C938FBFF6CF8E3008F08E50877080642A
:1005900080937C0080917A00806480937A008091BF
:1005A0007A0086FDFCCF80917800909179000895C3
:1005B0003FB7F8948091630190916401A091650127
:1005C000B091660126B5A89B05C02F3F19F0019692
:1005D000A11DB11D3FBFBA2FA92F982F8827BC019D
:1005E000CD01620F711D811D911D42E0660F771FC5
:1005F000881F991F4A95D1F708958F929F92AF92C5
:10060000BF92CF92DF92EF92FF926B017C010E942A
:10061000D8024B015C01C114D104E104F104B9F02A
:100620000E94D802681979098A099B09683E7340BB
:100630008105910580F321E0C21AD108E108F10893
:1006400088EE880E83E0981EA11CB11CE4CFFF90B9
:10065000EF90DF90CF90BF90AF909F908F900895D4
:10066000CF93DF93C82FD62F813009F4C0E48EEFEB
:1006700090E00E94ED0185E490E00E94ED012C2FB6
:100680002D0F3327331FC9010E94ED0160E070E098
:10069000CB01DF91CF910C94FD0260E080E00C94DF
:1006A0003003CF93C82F8EEF90E00E94ED016C2FA6
:1006B00085E791E00E94A00160E070E0CB01CF915E
:1006C0000C94FD022FB7F89460915F017091600166
:1006D00080916101909162012FBF089508958F92DA
:1006E0009F92AF92BF92CF92DF92EF92FF920F93C1
:1006F0001F93CF93DF93EC01EE85FF85309709F0D0
:1007000009950E9462034B015C018E010D5E1F4F33
:100710006E0121E3C20ED11CF12CE12C89A99AA90A
:100720008E159F0514F1D8018D919D918D01009733
:10073000C9F0BFEFEB1AFB0ADC01ED91FC910280DE
:10074000F381E02DB501A4010995882359F0F80142
:10075000329780819181DC01ED91FC910480F581DB
:10076000E02D0995C016D106C9F60E9462036E837A
:100770007F83888799870A811B812C813D81DC01D9
:10078000CB01800F911FA21FB31F8A879B87AC8765
:10079000BD87DF91CF911F910F91FF90EF90DF9078
:1007A000CF90BF90AF909F908F9008950F931F931D
:1007B000CF93DF93EC01EE85FF85309709F0099523
:1007C0000E9462036E837F83888799870A811B81D9
:1007D0002C813D81DC01CB01800F911FA21FB31F33
:1007E0008A879B87AC87BD87DF91CF911F910F913F
:1007F00008950F931F93FC01028513852485358589
:10080000401B510B620B730B80E077FF80891F91B7
:100810000F91089585E791E00E94A00160E070E0EB
:10082000CB010E94FD0208950F931F93CF93DF9396
:100830008C01D0E0C0E0F801EC0FFD1F649166234D
:1008400041F08EE792E00E940A04892B11F0219674
:10085000F2CFCE01DF91CF911F910F91089569E002
:1008600080E00E943003809104019091050101977E
:1008700021F487E890E00C9414048FE890E0FBCF1B
:100880000F931F93CF93DF93C0916F01D0917001AD
:100890002097B9F400910801109109018091040199
:1008A000909105018017910761F0602F8AE00E9406
:1008B000640210930501009304010E942F0410921A
:1008C000730180917101909172018C179D07E4F082
:1008D00031E020E0C817D9070CF030E0832F922FC9
:1008E000C80FD91FD0937001C0936F0161E089E0F8
:1008F0000E949202209759F460E089E0DF91CF9145
:100900001F910F910C9464028FEF9FEFE9CFD7FFF7
:1009100003C0D195C195D109CF3FD10511F461E054
:10092000ECCFE6EEF0E0E491E33039F140F4E13071
:10093000B1F0E230E9F0C038D1058CF7DDCFE73017
:1009400031F1E83061F1E430B1F7209180002062AC
:1009500020938000D0938B00C0938A0004C094B58C
:10096000906894BDC7BDDF91CF911F910F910895FD
:1009700094B5906294BDC8BDF6CF209180002068E8
:1009800020938000D0938900C0938800ECCF909191
:10099000B00090689093B000C093B300E4CF909102
:1009A000B00090629093B000C093B400DCCF089583
:1009B00090E080E00895FC01868180FD04C083FB07
:1009C000882780F9089580E00895CF92DF92EF9212
:1009D000FF921F93CF93DF93EC018F810E943B0224
:1009E0001E81212F277F2E831695117021E0892BE0
:1009F00009F420E01217B1F00E9462036883798342
:100A00008A839B838E8192E089278E838E8183FBEC
:100A1000882780F9DF91CF911F91FF90EF90DF90B1
:100A2000CF9008950E946203C880D980EA80FB803D
:100A3000AB01BC014C195D096E097F098C819D8158
:100A4000B0E0A0E0481759076A077B07F8F28E81EB
:100A500081701817D9F20E946203688379838A83B0
:100A60009B838E8191E089278860CFCFCF93DF93DE
:100A7000EC01862F6F831E820E943B02892B11F0AE
:100A800083E08E830E946203688379838A839B83D9
:100A9000DF91CF910895FC0101900020E9F7319793
:100AA000AF01481B590BBC018EE792E00C9400018A
:100AB0008F929F92AF92BF920F931F93CF93DF932A
:100AC000CDB7DEB7A1970FB6F894DEBF0FBECDBF8E
:100AD00019A2423008F44AE08E010F5D1F4F842EA8
:100AE000912CB12CA12CA50194010E94FF0CE62FA2
:100AF000B901CA01EA30F4F4E05DD801EE938D014A
:100B0000232B242B252B79F790E080E0109719F008
:100B1000CD010E944B05A1960FB6F894DEBF0FBE23
:100B2000CDBFDF91CF911F910F91BF90AF909F905C
:100B30008F900895E95CE1CF4091690150916A017D
:100B400060916B0170916C0180916D0190916E01CB
:100B50000E94AA0C80916D0190916E0104968115FE
:100B600024E0920728F490936E0180936D0108951C
:100B700010926E0110926D01089580917301882387
:100B800001F16091690170916A0180916B0190910E
:100B90006C016F5F7F4F8F4F9F4F60936901709320
:100BA0006A0180936B0190936C012CE330E040E08C
:100BB00050E00E94FF0C672B682B692B11F40C94FA
:100BC0009C0508958F929F92AF92BF92CF92DF9231
:100BD000EF92FF920F931F93CF93DF9300D000D03B
:100BE0001F92CDB7DEB780917401882341F181E572
:100BF0000E9451030E944D0383E790E00E94140479
:100C00006091690170916A0180916B0190916C0112
:100C10004AE00E94580560E081E00E94300388E6C7
:100C200090E00E94140460916D0170916E01072E96
:100C3000000C880B990B4AE00E945805C2C00E9424
:100C400062036B017C0100916701109168011092B1
:100C500068011092670180915A0190915B01B60181
:100C6000681B790B90E080E00E944A0E9B01AC016A
:100C700060E070E08AE794E40E94A20D4B015C0101
:100C80008CE3809FB001819F700D1124072E000C12
:100C9000880B990B0E944C0E20E030E040E85EE3A8
:100CA0000E94010F9B01AC01C501B4010E94010F1C
:100CB0004B015C010E944D0381E890E00E94140406
:100CC00020E030E040E05FE3C501B4010E94010F85
:100CD0000E94140ECB01FE01319630E020E0BE2EC2
:100CE0004F2F0AE010E050E2A52E2115310519F032
:100CF000009709F478C0B8010E94830FDC01A85B5B
:100D0000BE4F8C918083CB012F5F3F4F31962430B3
:100D1000310559F71D826B2D742FDE0114962C912D
:100D20001197FB013191CF0111963C931197FB0173
:100D30002083BC018A179B0790F38B2D942F0E9470
:100D40004B05C0925A01D0925B01E0925C01F09297
:100D50005D010E942F046091690170916A01809188
:100D60006B0190916C010E944A0E20E030E041E658
:100D700055E40E94A20D20E030E040E251E40E94E0
:100D8000010F0E941B0E0E944A0E20E030E040E25C
:100D900051E40E94A20D6B017C0160E081E00E94A1
:100DA000300389E790E00E941404A7019601C7016F
:100DB000B6010E946E0F8823C1F08CE391E00E947F
:100DC0004B050F900F900F900F900F90DF91CF91E8
:100DD0001F910F91FF90EF90DF90CF90BF90AF9059
:100DE0009F908F900895A0828FCF2FEF3FEF4FE716
:100DF0005FE7C701B6010E946E0F81110DC02FEF92
:100E00003FEF4FE75FE7C701B6010E949D0D18163F
:100E10001CF480E491E0D3CF2FEF3FEF4FE75FE486
:100E2000C701B6010E94FC0E18161CF484E491E080
:100E3000C6CF2FEF3FEF4FE75FECC701B6010E942F
:100E40009D0D87FDF3CF2DEC3CEC4CE45DE3C70139
:100E5000B6010E94310D4B015C010E941B0E6B011B
:100E60007C010E944A0E9B01AC01C501B4010E94A5
:100E7000300D4B015C014AE0C701B6010E945805E4
:100E80006EE28EE792E00E940A0420E030E040E249
:100E900051E4C501B4010E94010F0E941B0E90E0B5
:100EA00080E0C9CE1F920F920FB60F9211242F939C
:100EB0003F934F935F936F937F938F939F93AF93E2
:100EC000BF93EF93FF9385E791E00E947E01FF912E
:100ED000EF91BF91AF919F918F917F916F915F91B2
:100EE0004F913F912F910F900FBE0F901F9018952B
:100EF0001F920F920FB60F9211242F938F939F93EF
:100F0000EF93FF93E0918501F09186018081E0915C
:100F10008B01F0918C0182FD1BC0908180918E012C
:100F20008F5F8F7320918F01821741F0E0918E01C6
:100F3000F0E0EB58FE4F958F80938E01FF91EF917B
:100F40009F918F912F910F900FBE0F901F9018952A
:100F50008081F4CF1F920F920FB60F9211242F931E
:100F60003F938F939F93AF93BF9380915F01909135
:100F70006001A0916101B091620130915E0123E0B6
:100F8000230F2D3758F50196A11DB11D20935E0149
:100F900080935F0190936001A0936101B09362011F
:100FA0008091630190916401A0916501B091660107
:100FB0000196A11DB11D8093630190936401A093DC
:100FC0006501B0936601BF91AF919F918F913F9161
:100FD0002F910F900FBE0F901F90189526E8230FAA
:100FE0000296A11DB11DD2CF1F920F920FB60F9284
:100FF00011242F933F934F935F936F937F938F931E
:101000009F93AF93BF93EF93FF93E0910201F09111
:1010100003010995FF91EF91BF91AF919F918F913E
:101020007F916F915F914F913F912F910F900FBEE4
:101030000F901F9018951F920F920FB60F921124C8
:101040002F933F934F935F936F937F938F939F93D0
:10105000AF93BF93EF93FF93E0910001F0910101F3
:101060000995FF91EF91BF91AF919F918F917F91E2
:101070006F915F914F913F912F910F900FBE0F9005
:101080001F901895109278011092770188EE93E0E6
:10109000A0E0B0E08093790190937A01A0937B0166
:1010A000B0937C018EE091E090937601809375017E
:1010B00085EC90E0909382018093810184EC90E034
:1010C000909384018093830180EC90E0909386015B
:1010D0008093850181EC90E0909388018093870153
:1010E00082EC90E090938A018093890186EC90E0F5
:1010F00090938C0180938B0110928E0110928F013E
:10110000109290011092910110929E0210929F02F3
:101110001092A0021092A1028AE090E09093A302A4
:101120008093A2021092A4021092A502109296023D
:1011300010929702109298021092990290939B023B
:1011400080939A0210929C0210929D0210928E023D
:1011500010928F021092900210929102909393023B
:10116000809392021092940210929502109286023D
:1011700010928702109288021092890290938B023B
:1011800080938A0210928C0210928D02109281023A
:101190001092800284E391E090937F0280937E021C
:1011A00082E090E0909385028093840280E190E059
:1011B00090938302809382022AE231E030936C02A2
:1011C00020936B0281E080937B0210927A0210924E
:1011D00079021092710210927202109273021092B0
:1011E00074024BE652E050937D0240937C021092D1
:1011F0006D0210926E0210926F02109270021092A5
:101200007502109276021092770210927802309353
:10121000590220935802809368021092670210923C
:10122000660210925E0210925F02109260021092AB
:10123000610248E552E050936A02409369021092BD
:101240005A0210925B0210925C0210925D021092A0
:10125000620210926302109264021092650230934F
:101260004602209345028093550210925402109238
:10127000530210924B0210924C0210924D021092A7
:101280004E0225E432E0309357022093560210922A
:101290004702109248021092490210924A0210929C
:1012A0004F021092500210925102109252028093FB
:1012B0002202109221021092200210921802109223
:1012C000190210921A0210921B0282E192E090938E
:1012D000240280932302109214021092150210929D
:1012E00016021092170210921C0210921D02109208
:1012F0001E0210921F0280E291E0909313028093ED
:1013000012021092440210924302E5E2F2E01192BE
:10131000119282E0E334F807D1F70895789484B508
:10132000826084BD84B5816084BD85B5826085BDE1
:1013300085B5816085BD80916E00816080936E006F
:101340001092810080918100826080938100809161
:101350008100816080938100809180008160809312
:1013600080008091B10084608093B1008091B000D2
:1013700081608093B00080917A00846080937A00CD
:1013800080917A00826080937A0080917A008160F7
:1013900080937A0080917A00806880937A0010921E
:1013A000C10080918100887F816080938100E091FD
:1013B0008501F091860182E08083E0918101F091C6
:1013C00082011082E0918301F09184018FEC80838F
:1013D00010928D01E0918901F0918A0186E080836D
:1013E000E0918701F0918801808180618083E091A4
:1013F0008701F0918801808188608083E091870176
:10140000F0918801808180688083E0918701F0916C
:10141000880180818F7D808362E081E10E94920259
:1014200062E082E00E94920262E083E00E94920207
:1014300061E08AE00E94920261E089E00E949202EB
:1014400062E08EE00E94920262E08FE00E949202CF
:1014500061E082E10E94920261E170E08EE992E037
:101460000E943605C4E1D0E0D093A302C093A2024B
:1014700062E070E086E992E00E943605D0939B021C
:10148000C0939A026EE070E08EE892E00E9436050A
:10149000D0939302C09392026FE070E086E892E0EE
:1014A0000E943605D0938B02C0938A0286E992E0AF
:1014B0000E94E50460919C026170862F90E09093F9
:1014C00009018093080190930501809304018AE04B
:1014D0000E94640286EF90E09093030180930201E2
:1014E000809169008C6080936900E99A109268018C
:1014F000109267011092690110926A0110926B01BB
:1015000010926C0110926E0110926D01C0916D01EC
:10151000D0916E01C11524E0D20720F5CE010E94C2
:10152000A40C0091690110916A0120916B01309126
:101530006C016017710782079307C0F06F3F2FEFB0
:1015400072078207920791F06093690170936A01B4
:1015500080936B0190936C012496D0936E01C0939D
:101560006D01D4CF10926E0110926D0168EC70E0A5
:1015700080E090E00E94FD0281E40E94510381E539
:101580000E9451038CE40E94510388E40E9451039D
:101590000E944D038EEF90E00E94ED0183E590E004
:1015A0000E94ED0168E085E791E00E94A00160E003
:1015B00070E0CB010E94FD020E944D038BEF90E092
:1015C0000E94140460E081E00E94300381EF90E00B
:1015D0000E94140483E591E00E944B0560ED77E0E2
:1015E00080E090E00E94FD0281E50E94510380911D
:1015F000060190910701092E000CAA0BBB0B8093EA
:101600006D0290936E02A0936F02B09370024091AE
:101610007102509172026091730270917402840F92
:10162000951FA61FB71F8093750290937602A09313
:101630007702B093780280E494E090937A028093EA
:101640007902C1E0C0937B028BE692E00E94C00069
:1016500088EEC82E83E0D82EE12CF12CC0925A02DD
:10166000D0925B02E0925C02F0925D0280915E0299
:1016700090915F02A0916002B091610288519C4FED
:10168000AF4FBF4F8093620290936302A0936402B6
:10169000B093650282EE95E09093670280936602B4
:1016A000C093680288E592E00E94C000C0924702A1
:1016B000D0924802E0924902F0924A0280914B0295
:1016C00090914C02A0914D02B0914E0288519C4FD6
:1016D000AF4FBF4F80934F0290935002A09351029F
:1016E000B09352028DEB95E0909354028093530295
:1016F000C093550285E492E00E94C00033243394E5
:101700009AE4892E912CA12CB12C8EE892E00E94B3
:10171000E5048EE892E00E94DB048823C9F0D0E063
:10172000C0E04FEF5FEFBA01CE010E94AA0C2496F1
:10173000C11584E0D807A9F710926E0110926D01CF
:101740001092690110926A0110926B0110926C0163
:1017500086E892E00E94E50486E892E00E94DB04BD
:10176000882329F0809174018325809374018EE988
:1017700092E00E94E5048EE992E00E94DB04882357
:1017800089F080917301811106C020916F01309121
:101790007001232B39F4832580937301811102C0DA
:1017A0000E949C0586E992E00E94E50480919C02DB
:1017B0008170282E90E09093090180930801809118
:1017C0007301882309F4BBC005E010E0D0E0C0E05D
:1017D00080E10E94C302C80FD91F01501109C1F74F
:1017E000CE0165E070E00E94830F693E93E07907C7
:1017F00014F068EE73E077FF02C070E060E025EE61
:1018000030E0DB010E94970FA70196010E94D50CE2
:10181000DA01C9014A96A11DB11D222009F486C032
:10182000909372018093710183E10E94C30224E2CC
:1018300030E0DC010E94970FA70196010E94D50CB1
:1018400029013A01DA01C9010A96A11DB11D409191
:101850006F015091700157FF03C051954195510997
:10186000E0917101F0917201F7FF03C0F195E195EC
:10187000F109E417F507F4F444365105DCF4052EBC
:10188000000C660B770B9A01AB012A513109410913
:101890005109C301B20164527109810991090E9481
:1018A000730FA50194010E94D50CDA01C9018E962F
:1018B000A11DB11D2091060130910701281739079C
:1018C00021F19093070180930601092E000CAA0BC9
:1018D000BB0B80936D0290936E02A0936F02B09346
:1018E0007002409171025091720260917302709186
:1018F0007402840F951FA61FB71F809375029093E3
:101900007602A0937702B093780282E192E00E947F
:101910006F0380E090E0892B09F4F7CE0E946A0102
:10192000882309F4F2CE0E940000EFCE222733274D
:10193000281B390B309372012093710175CF1092DF
:1019400072011092710170CFA6E1B0E044E050E066
:101950000C94B90C242F0E94C80C252F0E94C80C8F
:101960000C94B20C0E94C70C272F0C94C80CDC01FD
:10197000CB01FC01F999FECF06C0F2BDE1BDF89A9A
:10198000319600B40D9241505040B8F70895262F7B
:10199000F999FECF1FBA92BD81BD20BD0FB6F89454
:1019A000FA9AF99A0FBE01960895052E97FB1EF438
:1019B00000940E94EC0C57FD07D00E94FF0C07FC1E
:1019C00003D04EF40C94EC0C509540953095219535
:1019D0003F4F4F4F5F4F089590958095709561955B
:1019E0007F4F8F4F9F4F08950E94210DA59F900D0F
:1019F000B49F900DA49F800D911D11240895A1E224
:101A00001A2EAA1BBB1BFD010DC0AA1FBB1FEE1F78
:101A1000FF1FA217B307E407F50720F0A21BB30BC3
:101A2000E40BF50B661F771F881F991F1A9469F73F
:101A300060957095809590959B01AC01BD01CF019B
:101A40000895A29FB001B39FC001A39F700D811D97
:101A50001124911DB29F700D811D1124911D0895B7
:101A60005058BB27AA270E94480D0C94C20E0E9412
:101A7000B40E38F00E94BB0E20F039F49F3F19F4E9
:101A800026F40C94B10E0EF4E095E7FB0C94AB0E2B
:101A9000E92F0E94D30E58F3BA1762077307840721
:101AA000950720F079F4A6F50C94F50E0EF4E09568
:101AB0000B2EBA2FA02D0B01B90190010C01CA0108
:101AC000A0011124FF27591B99F0593F50F4503EB3
:101AD00068F11A16F040A22F232F342F4427585FA5
:101AE000F3CF469537952795A795F0405395C9F7BD
:101AF0007EF41F16BA0B620B730B840BBAF0915075
:101B0000A1F0FF0FBB1F661F771F881FC2F70EC013
:101B1000BA0F621F731F841F48F4879577956795E6
:101B2000B795F7959E3F08F0B0CF9395880F08F0D2
:101B30009927EE0F9795879508950E94870E08F4D0
:101B400081E008950E94B60D0C94C20E0E94BB0E57
:101B500058F00E94B40E40F029F45F3F29F00C9435
:101B6000AB0E51110C94F60E0C94B10E0E94D30ED4
:101B700068F39923B1F3552391F3951B550BBB27BC
:101B8000AA2762177307840738F09F5F5F4F220F01
:101B9000331F441FAA1FA9F335D00E2E3AF0E0E8F8
:101BA00032D091505040E695001CCAF72BD0FE2F42
:101BB00029D0660F771F881FBB1F261737074807D6
:101BC000AB07B0E809F0BB0B802DBF01FF2793588E
:101BD0005F4F3AF09E3F510578F00C94AB0E0C9499
:101BE000F60E5F3FE4F3983ED4F3869577956795BC
:101BF000B795F7959F5FC9F7880F911D96958795C3
:101C000097F90895E1E0660F771F881FBB1F6217E1
:101C100073078407BA0720F0621B730B840BBA0B9F
:101C2000EE1F88F7E09508950E941B0E6894B1118D
:101C30000C94F60E08950E94DB0E88F09F5798F0E2
:101C4000B92F9927B751B0F0E1F0660F771F881FC1
:101C5000991F1AF0BA95C9F714C0B13091F00E94DB
:101C6000F50EB1E008950C94F50E672F782F8827B4
:101C7000B85F39F0B93FCCF3869577956795B39502
:101C8000D9F73EF490958095709561957F4F8F4F71
:101C90009F4F0895E89409C097FB3EF49095809576
:101CA000709561957F4F8F4F9F4F9923A9F0F92F22
:101CB00096E9BB279395F695879577956795B795A0
:101CC000F111F8CFFAF4BB0F11F460FF1BC06F5F86
:101CD0007F4F8F4F9F4F16C0882311F096E911C098
:101CE000772321F09EE8872F762F05C0662371F0B9
:101CF00096E8862F70E060E02AF09A95660F771FCD
:101D0000881FDAF7880F9695879597F90895990FA8
:101D10000008550FAA0BE0E8FEEF16161706E807B5
:101D2000F907C0F012161306E407F50798F0621BD6
:101D3000730B840B950B39F40A2661F0232B242BAB
:101D4000252B21F408950A2609F4A140A6958FEFCA
:101D5000811D811D089597F99F6780E870E060E01C
:101D600008959FEF80EC089500240A941616170634
:101D700018060906089500240A941216130614067C
:101D800005060895092E0394000C11F4882352F0DF
:101D9000BB0F40F4BF2B11F460FF04C06F5F7F4F97
:101DA0008F4F9F4F089557FD9058440F551F59F07E
:101DB0005F3F71F04795880F97FB991F61F09F3F38
:101DC00079F087950895121613061406551FF2CF61
:101DD0004695F1DF08C0161617061806991FF1CFB1
:101DE00086957105610508940895E894BB276627D8
:101DF0007727CB0197F908950E94870E08F48FEF9B
:101E000008950E94140F0C94C20E0E94B40E38F074
:101E10000E94BB0E20F0952311F00C94AB0E0C9495
:101E2000B10E11240C94F60E0E94D30E70F3959F00
:101E3000C1F3950F50E0551F629FF001729FBB27C1
:101E4000F00DB11D639FAA27F00DB11DAA1F649F5D
:101E50006627B00DA11D661F829F2227B00DA11D10
:101E6000621F739FB00DA11D621F839FA00D611D96
:101E7000221F749F3327A00D611D231F849F600DB7
:101E8000211D822F762F6A2F11249F5750409AF0E0
:101E9000F1F088234AF0EE0FFF1FBB1F661F771F6C
:101EA000881F91505040A9F79E3F510580F00C9437
:101EB000AB0E0C94F60E5F3FE4F3983ED4F3869598
:101EC00077956795B795F795E7959F5FC1F7FE2BD7
:101ED000880F911D9695879597F908950E94870E12
:101EE000880B990B0895DB018F939F930E94F40C4C
:101EF000BF91AF91A29F800D911DA39F900DB29FA6
:101F0000900D1124089597FB072E16F4009407D026
:101F100077FD09D00E949E0F07FC05D03EF49095F6
:101F200081959F4F0895709561957F4F08950E9408
:101F3000210DB7FF0895821B930B0895AA1BBB1BAD
:101F400051E107C0AA1FBB1FA617B70710F0A61BB9
:101F5000B70B881F991F5A95A9F780959095BC01DA
:101F6000CD010895EE0FFF1F0590F491E02D099427
:041F7000F894FFCF13
:101F74006E036E0301000F00010000000000A001C9
:101F840000012D01F2015E013C015001000000003E
:101F9400AE00F9036F0300000000AE00F903D6039E
:101FA400000000000A040001D804D7046E616E002A
:101FB400696E66006F7666003031323334353637F9
:0A1FC400383900332E312E330000AF
:00000001FF
