:100000000C94A4000C94D5070C94AE070C94CC006F
:100010000C94CC000C94CC000C94CC000C94CC0030
:100020000C94CC000C94CC000C94CC000C94CC0020
:100030000C94CC000C94CC000C94CC000C94CC0010
:100040000C9464070C94CC000C94E8020C94C2024B
:100050000C94CC000C94CC000C94CC000C94CC00F0
:100060000C94CC000C94CC0000000000230026006F
:10007000290004040404040404040202020202022B
:10008000030303030303010204081020408001025C
:1000900004081020010204081020000000080002DB
:1000A0000100000304070000000000000000535698
:1000B0003A00204C4C3A004C563A004669726D7733
:1000C0006172652000576F6F4C656520416E6E0050
:1000D0004C4F433A20005345433A2000484F555275
:1000E000533A200052504D3A2000202020535049CE
:1000F0004E0020202020504C59004C4F433A002005
:10010000202020202020202020202020202020000F
:10011000214552523A00202020202020202020205B
:10012000202020202020004C4F433A005345433AE2
:100130000000000000240027002A00000000002525
:100140000028002B0000300911241FBECFEFD8E09B
:10015000DEBFCDBF22E0AEE5B1E001C01D92AA3AFC
:10016000B207E1F711E0A0E0B1E0EEECF1E202C08D
:1001700005900D92AE35B107D9F710E0C4EAD0E092
:1001800004C02197FE010E940B0EC33AD107C9F7A4
:100190000E947C0A0C94E5100C940000CF93DF932E
:1001A000A4E2B2E0FD01C191D191209741F04989CB
:1001B0005A89EC0129893A894217530711F1D2E093
:1001C000E234FD0781F720E030E04D915D91452B51
:1001D00089F4220F331FF901EF5EFD4F948B838B5F
:1001E0008091420290914302019690934302809342
:1001F000420207C02F5F3F4F2F30310531F780E0BB
:1002000001C081E0DF91CF910895CF92DF92EF920C
:10021000FF920F931F93CF93DF936C017A018B01B1
:10022000C0E0D0E0CE15DF0589F0D8016D918D01D9
:10023000D601ED91FC910190F081E02DC601099568
:10024000892B11F47E0102C02196ECCFC701DF910A
:10025000CF911F910F91FF90EF90DF90CF90089575
:10026000FC01918D828D981761F0828DDF01A80FBE
:10027000B11D5D968C91928D9F5F9F73928F90E0E0
:1002800008958FEF9FEF0895FC01918D828D98174F
:1002900031F0828DE80FF11D858D90E008958FEF8C
:1002A0009FEF0895FC01918D228D892F90E0805C55
:1002B0009F4F821B91098F73992708958CE691E0D7
:1002C0000E94520121E0892B09F420E0822F089539
:1002D000FC01848DDF01A80FB11DA35ABF4F2C91E3
:1002E000848D90E001968F739927848FA689B789B2
:1002F0002C93A089B1898C9180648C93938D848D8B
:10030000981306C00288F389E02D80818F7D808359
:100310000895EF92FF920F931F93CF93DF93EC0119
:1003200081E0888F9B8D8C8D981305C0E889F989B1
:10033000808185FD24C0F62E0B8D10E00F5F1F4FCE
:100340000F731127E02E8C8DE8120CC00FB607FC3E
:10035000FACFE889F989808185FFF5CFCE010E9427
:100360006801F1CF8B8DFE01E80FF11DE35AFF4FBD
:10037000F0820B8FEA89FB898081806207C0EE8959
:10038000FF896083E889F98980818064808381E0C6
:1003900090E0DF91CF911F910F91FF90EF90089522
:1003A000682F8CE691E00C948901CF93DF93EC01E8
:1003B000888D8823C9F0EA89FB89808185FD05C085
:1003C000A889B9898C9186FD0FC00FB607FCF5CFBF
:1003D000808185FFF2CFA889B9898C9185FFEDCF07
:1003E000CE010E946801E7CFDF91CF91089580E0B0
:1003F00090E0892B29F00E945E0181110C9400008D
:1004000008950E9454101F93CF93DF931F92CDB78E
:10041000DEB7813031F0823031F0833031F414E5D1
:1004200005C010E403C014E101C010E08EEF90E0BD
:1004300069830E94D00185E490E00E94D001698127
:10044000862F90E0810F911D0E94D00160E070E046
:10045000CB010F90DF91CF911F910C94200760E0AA
:1004600080E00C940302CF93DF931F92CDB7DEB7E9
:10047000682F8EEF90E069830E94D00169818CE63D
:1004800091E00E94890160E070E0CB010F90DF9164
:10049000CF910C9420070F931F93CF93DF938C0180
:1004A000C0E0D0E0F801EC0FFD1F6491662371F00D
:1004B000E0910902F0910A020190F081E02D89E0BB
:1004C00092E00995892B11F02196ECCFCE01DF91B6
:1004D000CF911F910F910895009769F0FC01019051
:1004E0000020E9F73197AF01481B590BBC0189E0A7
:1004F00092E00C94050180E090E008958F929F9225
:10050000AF92BF920F931F93CF93DF93CDB7DEB718
:10051000A1970FB6F894DEBF0FBECDBF19A242302F
:1005200008F44AE08E010F5D1F4F842E912CA12C00
:10053000B12CA50194010E94B410E62FB901CA01A3
:1005400001501109EA3014F4E05D01C0E95CD80102
:10055000EC93232B242B252B61F7C8010E946C02FE
:10056000A1960FB6F894DEBF0FBECDBFDF91CF913D
:100570001F910F91BF90AF909F908F9008954AE088
:100580000C947E021F920F920FB60F9211242F939C
:100590003F934F935F936F937F938F939F93AF930B
:1005A000BF93EF93FF938CE691E00E946801FF9167
:1005B000EF91BF91AF919F918F917F916F915F91DB
:1005C0004F913F912F910F900FBE0F901F90189554
:1005D0001F920F920FB60F9211242F938F939F9318
:1005E000EF93FF93E0917C01F0917D018081E09198
:1005F0008201F091830182FD12C09081809185017A
:100600008F5F8F7320918601821751F0E0918501F1
:10061000F0E0E459FE4F958F8093850101C0808101
:10062000FF91EF919F918F912F910F900FBE0F909F
:100630001F901895CF93DF93282F30E0F901E656ED
:10064000FF4F8491F901EA57FF4FD491F901EE5819
:10065000FF4FC491CC2391F081110E94DA05EC2F59
:10066000F0E0EE0FFF1FE859FF4FA591B491EC9118
:10067000ED2381E090E021F480E002C080E090E092
:10068000DF91CF9108953FB7F8948091A6029091A1
:10069000A702A091A802B091A90226B5A89B05C007
:1006A0002F3F19F00196A11DB11D3FBFBA2FA92FF1
:1006B000982F8827820F911DA11DB11DBC01CD016E
:1006C00042E0660F771F881F991F4A95D1F708955A
:1006D0002FB7F8946091A2027091A3028091A402B6
:1006E0009091A5022FBF089508958F929F92AF9287
:1006F000BF92CF92DF92EF92FF920F931F93CF930F
:10070000DF93EC01EE85FF85309709F009950E9493
:1007100068034B015C018E016E012EE1C20ED11CFB
:10072000E12CF12C89A99AA98E159F0524F1D801F5
:1007300053968D919C9154970097C1F0BFEFEB1A9F
:10074000FB0ADC01ED91FC910280F381E02DB50103
:10075000A4010995882351F0F80183899489DC016B
:10076000ED91FC910480F581E02D09950E5F1F4FFE
:100770000C151D05B9F60E9468036E837F83888778
:1007800099870A811B812C813D81DC01CB01800F7F
:10079000911FA21FB31F8A879B87AC87BD87DF91FC
:1007A000CF911F910F91FF90EF90DF90CF90BF906E
:1007B000AF909F908F9008950F931F93CF93DF93E7
:1007C000EC01EE85FF85309709F009950E946803DA
:1007D0006E837F83888799870A811B812C813D8165
:1007E000DC01CB01800F911FA21FB31F8A879B875B
:1007F000AC87BD87DF91CF911F910F9108950F9323
:100800001F93FC010285138524853585401B510B00
:10081000620B730B77FD02C0808901C080E01F91DD
:100820000F910895FC01428353836483758386810D
:100830009781A085B185480F591F6A1F7B1F42878A
:10084000538764877587089580915E0190915F0159
:10085000019690935F0180935E01089569E080E0C6
:100860000E9403028091040190910501019719F4FF
:100870008AEE90E002C082EF90E00C944B024F921F
:100880005F926F927F928F929F92AF92BF92CF9220
:10089000DF92EF92FF920F931F93CF93DF9300D0DD
:1008A00000D01F92CDB7DEB780916B01882331F164
:1008B00081E50E9433020E942F0286ED90E00E94A3
:1008C0004B02609160017091610180916201909191
:1008D00063010E94BF0260E081E00E94030280ED9C
:1008E00090E00E944B026091640170916501072EB7
:1008F000000C880B990B0E94BF0246C10E9468033E
:100900006B017C0180915E0190915F0110925F010B
:1009100010925E012CE3289FB001299F700D1124D5
:10092000072E000C880B990B0E942D0F20E030E061
:1009300040E85EE30E94E20F4B015C0180919D0262
:1009400090919E029601281B390BB90180E090E03E
:100950000E942B0F9B01AC0160E070E08AE794E4F9
:100960000E94830E9B01AC01C501B4010E94E20FFD
:100970004B015C010E942F0284EE90E00E944B022A
:1009800020E030E040E05FE3C501B4010E94E20FE7
:100990000E94F50ECB01FE01319620E030E09E2E44
:1009A0004F2F5AE0A52EB12C60E2862E8F010F5FEB
:1009B0001F4F2115310511F0009751F0B5010E942C
:1009C000DC0DDC01AE5ABE4F8C918083CB0101C09F
:1009D00080822F5F3F4F2430310511F0F801E6CFC0
:1009E000D8011C92A92DB42FAE17BF0730F4808117
:1009F0009C9190838D933197F7CF892D942F0E94EE
:100A00006C02C0929D02D0929E02E0929F02F092F0
:100A1000A0020E942E04609160017091610180919A
:100A20006201909163010E942B0F20E030E041E6CB
:100A300055E40E94830E20E030E040E251E40E9441
:100A4000E20F0E94F50E072E000C880B990B0E94F6
:100A50002D0F20E030E040E251E40E94830E6B0154
:100A60007C014B015C0160E081E00E9403028CED9F
:100A700090E00E944B02A7019601C701B6010E94B7
:100A80004F10882319F084E491E027C02601370134
:100A9000E89477F82FEF3FEF4FE75FE7C301B2012C
:100AA0000E944F1081110DC02FEF3FEF4FE75FE71E
:100AB000C301B2010E947E0E18161CF488E491E076
:100AC0000CC02FEF3FEF4FE75FE4C701B6010E9474
:100AD000DD0F18162CF48CE491E00E946C0254C0D7
:100AE0002FEF3FEF4FE75FECC701B6010E947E0E8C
:100AF00087FDF1CF20E030E0A901C701B6010E94D7
:100B00007E0E87FF11C0E0910902F0910A02019068
:100B1000F081E02D6DE289E092E0099546015701F0
:100B2000B7FAB094B7F8B0942DEC3CEC4CE45DE32C
:100B3000C501B4010E94120E4B015C010E94FC0E23
:100B40006B017C010E942B0F9B01AC01C501B4011C
:100B50000E94110E4B015C014AE0C701B6010E94E0
:100B60007E0280E591E00E946C0220E030E040E2ED
:100B700051E4C501B4010E94E20F0E94FC0E80E026
:100B800090E04AE00E947E020F900F900F900F902D
:100B90000F90DF91CF911F910F91FF90EF90DF9019
:100BA000CF90BF90AF909F908F907F906F905F900D
:100BB0004F900895833081F028F4813099F082308D
:100BC000A1F008958730A9F08830B9F08430D1F4CD
:100BD000809180008F7D03C0809180008F7780930B
:100BE0008000089584B58F7702C084B58F7D84BD61
:100BF00008958091B0008F7703C08091B0008F7D01
:100C00008093B00008951F93CF93DF93282F30E097
:100C1000F901E656FF4F8491F901EA57FF4FD4914D
:100C2000F901EE58FF4FC491CC23C9F0162F811162
:100C30000E94DA05EC2FF0E0EE0FFF1FE55CFE4F9F
:100C4000A591B4918FB7F894111105C09C91ED2F27
:100C5000E095E92302C0EC91ED2BEC938FBFDF917F
:100C6000CF911F910895CF93DF9390E0FC01EA5755
:100C7000FF4F2491FC01EE58FF4F8491882361F1CE
:100C800090E0880F991FFC01EF5CFE4FC591D49155
:100C9000FC01E55CFE4FA591B491611109C09FB7BD
:100CA000F8948881209582238883EC912E230BC0B1
:100CB000623061F49FB7F8943881822F8095832346
:100CC0008883EC912E2B2C939FBF06C08FB7F8948E
:100CD000E8812E2B28838FBFDF91CF910895CF938A
:100CE000DF938091660190916701892BD1F4609127
:100CF0000801709109018091040190910501861706
:100D0000970779F08AE00E9403068091080190918C
:100D1000090190930501809304010E942E04109212
:100D20006A0140916801509169018091660190913A
:100D30006701481759074CF031E020E08417950708
:100D40000CF030E0C32FD22F02C0CFEFDFEFC80F7F
:100D5000D91FD0936701C0936601D7FF03C0D19517
:100D6000C195D10961E089E00E943306209711F412
:100D700060E004C0CF3FD10531F461E089E0DF914C
:100D8000CF910C940306E3EAF0E0E491E330F9F04C
:100D900048F4E130B9F0E230A1F584B5806284BD59
:100DA000C8BD34C0E730E9F0E83019F1E43049F566
:100DB00080918000806280938000D0938B00C093EC
:100DC0008A0024C084B5806884BDC7BD1FC08091DF
:100DD0008000806880938000D0938900C093880051
:100DE00015C08091B00080688093B000C093B300BC
:100DF0000DC08091B00080628093B000C093B400B9
:100E000005C0C038D1050CF0B8CFB2CFDF91CF917B
:100E100008958E3008F08E508770806480937C0037
:100E200080917A00806480937A0080917A0086FDB8
:100E3000FCCF809178002091790090E0922B08956A
:100E40008F929F92AF92BF92CF92DF92EF92FF92DA
:100E50006B017C010E9443034B015C01C114D1046E
:100E6000E104F104F1F00E944303DC01CB01881995
:100E70009909AA09BB09883E9340A105B10570F301
:100E800021E0C21AD108E108F10888EE880E83E05B
:100E9000981EA11CB11CC114D104E104F10419F77E
:100EA000DDCFFF90EF90DF90CF90BF90AF909F90FD
:100EB0008F9008958CE691E00E94890160E070E0D7
:100EC000CB010E94200708951F920F920FB60F9238
:100ED00011242F933F938F939F93AF93BF93809150
:100EE000A2029091A302A091A402B091A502309118
:100EF000A10223E0230F2D3720F40196A11DB11D7F
:100F000005C026E8230F0296A11DB11D2093A10262
:100F10008093A2029093A302A093A402B093A5028F
:100F20008091A6029091A702A091A802B091A90277
:100F30000196A11DB11D8093A6029093A702A093D4
:100F4000A802B093A902BF91AF919F918F913F9159
:100F50002F910F900FBE0F901F9018951F920F9218
:100F60000FB60F9211242F933F934F935F936F937C
:100F70007F938F939F93AF93BF93EF93FF93E091F2
:100F80000201F09103010995FF91EF91BF91AF919B
:100F90009F918F917F916F915F914F913F912F9191
:100FA0000F900FBE0F901F9018951F920F920FB6C3
:100FB0000F9211242F933F934F935F936F937F93DF
:100FC0008F939F93AF93BF93EF93FF93E0910001B3
:100FD000F09101010995FF91EF91BF91AF919F9120
:100FE0008F917F916F915F914F913F912F910F90D2
:100FF0000FBE0F901F901895CF92DF92EF92FF9245
:10100000CF93DF9340916001509161016091620143
:101010007091630180916401909165010E945F105D
:1010200081E50E9433020E942F028CE291E00E942F
:101030004B02609160017091610180916201909119
:1010400063010E94BF0260E081E00E94030287E228
:1010500091E00E944B026091640170916501072E3E
:10106000000C880B990B0E94BF02C0916401D091C3
:101070006501CE010E9459106B017C0180916001D5
:1010800090916101A0916201B0916301C816D906E7
:10109000EA06FB06D9F160E081E00E94030286E1E6
:1010A00091E00E944B0260E081E00E94030280E137
:1010B00091E00E944B02C701B6010E94BF0268EE98
:1010C00073E080E090E00E94200760E081E00E94F1
:1010D00003028FEF90E00E944B0260E081E00E94EB
:1010E00003028AEF90E00E944B028091640190918C
:1010F0006501BC01990F880B990B0E94BF0268EE35
:1011000073E080E090E00E942007C5CF2496D09342
:101110006501C0936401CD3FD34020F0109265017A
:1011200010926401DF91CF91FF90EF90DF90CF900C
:10113000089580916A01882311F180916001909156
:101140006101A0916201B0916301BC01CD016F5FAB
:101150007F4F8F4F9F4F6093600170936101809329
:101160006201909363012CE330E040E050E00E9484
:10117000B410672B682B692B11F40C94FC070895AD
:10118000FC01868180FD04C083FB882780F90895D7
:1011900080E00895CF92DF92EF92FF921F93CF935A
:1011A000DF93EC018F810E941A0311E0892B09F46F
:1011B00010E08E81982F977F9E83869581701817F7
:1011C00051F00E946803688379838A839B839E81A0
:1011D00082E0892723C00E946803C880D980EA8002
:1011E000FB80AB01BC014C195D096E097F098C8144
:1011F0009D81A0E0B0E0481759076A077B0778F0A7
:101200008E818170811759F00E9468036883798309
:101210008A839B839E8181E0892788608E838E816B
:1012200083FB882780F9DF91CF911F91FF90EF908A
:10123000DF90CF900895CF93DF93EC01862F6F83DB
:101240001E820E941A03892B11F083E08E830E9474
:101250006803688379838A839B83DF91CF910895A4
:1012600010926F0110926E0188EE93E0A0E0B0E062
:101270008093700190937101A0937201B0937301F8
:1012800084E191E090936D0180936C0185EC90E096
:10129000909379018093780184EC90E090937B01A6
:1012A00080937A0180EC90E090937D0180937C01A3
:1012B00081EC90E090937F0180937E0182EC90E03E
:1012C000909381018093800186EC90E0909383015C
:1012D00080938201109285011092860110928701FD
:1012E0001092880110929502109296021092970225
:1012F000109298028AE090E090939A02809399026B
:1013000010929B0210929C0210928D0210928E02FB
:1013100010928F0210929002909392028093910209
:1013200010929302109294021092850210928602FB
:10133000109287021092880290938A028093890209
:1013400010928B0210928C0210927D0210927E02FB
:1013500010927F0210928002909382028093810209
:10136000109283021092840210920C0210920B02CF
:1013700088E391E090930A028093090282E090E072
:101380009093100280930F0280E190E090930E0200
:1013900080930D022EE231E030936B0220936A02BB
:1013A00081E080937A021092790210927802109272
:1013B00074021092750210927602109277021092C7
:1013C00070021092710210927202109273024AE639
:1013D00052E050937C0240937B0210926C02109278
:1013E0006D0210926E0210926F0230935802209399
:1013F0005702809367021092660210926502109263
:1014000061021092620210926302109264021092C2
:101410005D0210925E0210925F021092600247E538
:1014200052E0509369024093680210925902109260
:101430005A0210925B0210925C0230934502209394
:10144000440280935402109253021092520210925E
:101450004E0210924F0210925002109251021092BE
:101460004A0210924B0210924C0210924D0224E458
:1014700032E03093560220935502109246021092A9
:101480004702109248021092490280932102109262
:10149000200210921F0210921B0210921C02109246
:1014A0001D0210921E021092170210921802109242
:1014B000190210921A0281E192E090932302809324
:1014C000220210921302109214021092150210922E
:1014D000160284E291E0909312028093110210921E
:1014E000430210924202E4E2F2E01192119282E091
:1014F000E234F807D1F70895789484B5826084BD0A
:1015000084B5816084BD85B5826085BD85B5816007
:1015100085BD80916E00816080936E001092810085
:101520008091810082608093810080918100816040
:101530008093810080918000816080938000809101
:10154000B10084608093B1008091B000816080938D
:10155000B00080917A00846080937A0080917A0054
:10156000826080937A0080917A00816080937A0013
:1015700080917A00806880937A001092C1008091F7
:101580008100887F816080938100E0917C01F091EF
:101590007D0182E08083E0917801F09179011082F1
:1015A000E0917A01F0917B018FEC808310928401AD
:1015B000E0918001F091810186E08083E0917E01DD
:1015C000F0917F01808180618083E0917E01F091C4
:1015D0007F01808188608083E0917E01F0917F01AE
:1015E000808180688083E0917E01F0917F0180811D
:1015F0008F7D808362E081E10E94330662E082E0B9
:101600000E94330662E083E00E94330661E08AE0D4
:101610000E94330661E089E00E94330662E08EE0BA
:101620000E94330662E08FE00E94330661E082E1AF
:101630000E94330661E170E085E992E00E941B0997
:10164000C4E1D0E0D0939A02C093990262E070E0C6
:101650008DE892E00E941B09D0939202C093910200
:101660006EE070E085E892E00E941B09D0938A0248
:10167000C09389026FE070E08DE792E00E941B0941
:10168000D0938202C09381028DE892E00E94CA0842
:10169000609193026170862F90E09093090180938E
:1016A000080190930501809304018AE00E940306DB
:1016B00084E294E090930301809302018091690099
:1016C0008C6080936900E99A10925F0110925E012C
:1016D00068EC70E080E090E00E94200781E40E94C6
:1016E000330281E50E9433028CE40E94330288E4D5
:1016F0000E9433020E942F028EEF90E00E94D001E0
:1017000083E590E00E94D00168E08CE691E00E94C1
:10171000890160E070E0CB010E9420070E942F0247
:1017200085EC90E00E944B0260E081E00E940302A1
:101730008BEB90E00E944B028CE391E00E946C02E4
:1017400060ED77E080E090E00E94200781E50E9454
:1017500033021092600110926101109262011092A6
:1017600063011092650110926401C12CD12C7601A5
:10177000C0916401D0916501CD3F83E0D80730F579
:10178000CE010E9459106B017C0180916001909103
:101790006101A0916201B0916301C816D906EA0601
:1017A000FB06A0F02FEFC216D206E206F20671F099
:1017B000C0926001D0926101E0926201F0926301F7
:1017C0002496D0936501C0936401D2CF81E50E9435
:1017D00033020E942F0287EB90E00E944B0260913F
:1017E00060017091610180916201909163010E949A
:1017F000BF0282EB90E00E944B0260916401709105
:101800006501072E000C880B990B0E94BF0260E057
:1018100081E00E9403028EEA90E00E944B02C70121
:10182000B6010E94BF02CF20CE20CD20C09481F00F
:101830008091640190916501049690936501809375
:1018400064018D3F934020F0109265011092640175
:101850008091060190910701092E000CAA0BBB0B89
:1018600080936C0290936D02A0936E02B0936F020E
:1018700040917002509171026091720270917302F6
:10188000840F951FA61FB71F809374029093750253
:10189000A0937602B09377028FE696E09093790258
:1018A00080937802C1E0C0937A028AE692E00E94B7
:1018B000CE0048EE53E060E070E040935902509350
:1018C0005A0260935B0270935C0280915D0290917A
:1018D0005E02A0915F02B091600288519C4FAF4FB1
:1018E000BF4F8093610290936202A0936302B09312
:1018F00064028FE394E09093660280936502C09344
:1019000067024093460250934702609348027093E7
:10191000490280914A0290914B02A0914C02B091F1
:101920004D0288519C4FAF4FBF4F80934E02909312
:101930004F02A0935002B093510289E998E090932E
:10194000530280935202C093540284E492E00E94B6
:10195000CE003324339405E010E098EEC92E93E0D6
:10196000D92EE12CF12C2AE4822E912CA12CB12C21
:1019700085E892E00E94CA0885E892E00E94C008CB
:101980008823C9F0C0E0D0E04FEF5FEFBA01CE018D
:101990000E945F102496C11584E0D807A9F7109221
:1019A0006501109264011092600110926101109221
:1019B0006201109263018DE792E00E94CA088DE7F0
:1019C00092E00E94C008882329F080916B01832552
:1019D00080936B0185E992E00E94CA0885E992E054
:1019E0000E94C008882389F080916A01811106C095
:1019F0002091660130916701232B39F48325809370
:101A00006A01811102C00E94FC078DE892E00E94E9
:101A1000CA08809193028170482E90E0909309014A
:101A20008093080180916A018823D1F185E0682EB6
:101A3000712CC0E0D0E080E10E940907C80FD91FD7
:101A400021E0621A7108B9F7CE01B8010E94DC0DDD
:101A5000693E83E0780714F068EE73E0DB0177FFFE
:101A600002C0A0E0B0E025EE30E00E94F00DA7013A
:101A700096010E948A10DA01C9014A96A11DB11D82
:101A8000442029F090936901809368010DC02227BA
:101A90003327281B390B309369012093680104C058
:101AA000109269011092680183E10E94090724E203
:101AB00030E0DC010E94F00DA70196010E948A101F
:101AC00029013A01DA01C9010A96A11DB11D40910F
:101AD00066015091670157FF03C051954195510927
:101AE000E0916801F0916901F7FF03C0F195E1957C
:101AF000F109E417F507F4F444365105DCF4CA01A2
:101B0000550FAA0BBB0B9C01AD012A5131094109AC
:101B10005109C301B20164527109810991090E94FE
:101B2000CC0DA50194010E948A10DA01C9018E969C
:101B3000A11DB11D20910601309107018217930765
:101B400021F19093070180930601092E000CAA0B46
:101B5000BB0B80936C0290936D02A0936E02B093C6
:101B60006F02409170025091710260917202709107
:101B70007302840F951FA61FB71F80937402909362
:101B80007502A0937602B093770281E192E00E9401
:101B900075030E94F701ECCEDB018F939F930E94A7
:101BA000A910BF91AF91A29F800D911DA39F900D91
:101BB000B29F900D1124089597FB072E16F4009400
:101BC00007D077FD09D00E94F70D07FC05D03EF441
:101BD000909581959F4F0895709561957F4F0895D9
:101BE0000E94D610B7FF0895821B930B0895AA1B7D
:101BF000BB1B51E107C0AA1FBB1FA617B70710F0F8
:101C0000A61BB70B881F991F5A95A9F78095909529
:101C1000BC01CD010895EE0FFF1F0590F491E02D5A
:101C200009945058BB27AA270E94290E0C94A30F91
:101C30000E94950F38F00E949C0F20F039F49F3FCE
:101C400019F426F40C94920F0EF4E095E7FB0C9433
:101C50008C0FE92F0E94B40F58F3BA17620773076D
:101C60008407950720F079F4A6F50C94D60F0EF4AE
:101C7000E0950B2EBA2FA02D0B01B90190010C019C
:101C8000CA01A0011124FF27591B99F0593F50F4B4
:101C9000503E68F11A16F040A22F232F342F44270C
:101CA000585FF3CF469537952795A795F040539504
:101CB000C9F77EF41F16BA0B620B730B840BBAF0D4
:101CC0009150A1F0FF0FBB1F661F771F881FC2F73F
:101CD0000EC0BA0F621F731F841F48F48795779553
:101CE0006795B795F7959E3F08F0B0CF9395880F0D
:101CF00008F09927EE0F9795879508950E94680F31
:101D000008F481E008950E94970E0C94A30F0E949E
:101D10009C0F58F00E94950F40F029F45F3F29F086
:101D20000C948C0F51110C94D70F0C94920F0E94AD
:101D3000B40F68F39923B1F3552391F3951B550B19
:101D4000BB27AA2762177307840738F09F5F5F4F8E
:101D5000220F331F441FAA1FA9F335D00E2E3AF0CD
:101D6000E0E832D091505040E695001CCAF72BD0E5
:101D7000FE2F29D0660F771F881FBB1F2617370736
:101D80004807AB07B0E809F0BB0B802DBF01FF2768
:101D900093585F4F3AF09E3F510578F00C948C0FAA
:101DA0000C94D70F5F3FE4F3983ED4F38695779574
:101DB0006795B795F7959F5FC9F7880F911D969521
:101DC000879597F90895E1E0660F771F881FBB1F7D
:101DD000621773078407BA0720F0621B730B840B2A
:101DE000BA0BEE1F88F7E09508950E94FC0E6894E8
:101DF000B1110C94D70F08950E94BC0F88F09F5723
:101E000098F0B92F9927B751B0F0E1F0660F771F1E
:101E1000881F991F1AF0BA95C9F714C0B13091F014
:101E20000E94D60FB1E008950C94D60F672F782F3B
:101E30008827B85F39F0B93FCCF3869577956795D9
:101E4000B395D9F73EF490958095709561957F4F45
:101E50008F4F9F4F0895E89409C097FB3EF49095EB
:101E60008095709561957F4F8F4F9F4F9923A9F073
:101E7000F92F96E9BB279395F69587957795679502
:101E8000B795F111F8CFFAF4BB0F11F460FF1BC046
:101E90006F5F7F4F8F4F9F4F16C0882311F096E9D9
:101EA00011C0772321F09EE8872F762F05C0662387
:101EB00071F096E8862F70E060E02AF09A95660F40
:101EC000771F881FDAF7880F9695879597F90895F9
:101ED000990F0008550FAA0BE0E8FEEF161617063B
:101EE000E807F907C0F012161306E407F50798F0A3
:101EF000621B730B840B950B39F40A2661F0232BBC
:101F0000242B252B21F408950A2609F4A140A69537
:101F10008FEF811D811D089597F99F6780E870E01C
:101F200060E008959FEF80EC089500240A9416164F
:101F3000170618060906089500240A9412161306B7
:101F4000140605060895092E0394000C11F4882345
:101F500052F0BB0F40F4BF2B11F460FF04C06F5F61
:101F60007F4F8F4F9F4F089557FD9058440F551F37
:101F700059F05F3F71F04795880F97FB991F61F00B
:101F80009F3F79F087950895121613061406551F82
:101F9000F2CF4695F1DF08C0161617061806991FEE
:101FA000F1CF86957105610508940895E894BB27E3
:101FB00066277727CB0197F908950E94680F08F4E8
:101FC0008FEF08950E94F50F0C94A30F0E94950FB8
:101FD00038F00E949C0F20F0952311F00C948C0F88
:101FE0000C94920F11240C94D70F0E94B40F70F32D
:101FF000959FC1F3950F50E0551F629FF001729FAE
:10200000BB27F00DB11D639FAA27F00DB11DAA1FBC
:10201000649F6627B00DA11D661F829F2227B00D09
:10202000A11D621F739FB00DA11D621F839FA00D94
:10203000611D221F749F3327A00D611D231F849FE4
:10204000600D211D822F762F6A2F11249F5750403B
:102050009AF0F1F088234AF0EE0FFF1FBB1F661FB6
:10206000771F881F91505040A9F79E3F510580F07F
:102070000C948C0F0C94D70F5F3FE4F3983ED4F38D
:10208000869577956795B795F795E7959F5FC1F723
:10209000FE2B880F911D9695879597F908950E94BC
:1020A000680F880B990B089581E090E0F8940C94E8
:1020B000E510A6E1B0E044E050E00C946E10242F4F
:1020C0000E947D10252F0E947D100C9467100E94A5
:1020D0007C10272F0C947D10DC01CB01FC01F999B9
:1020E000FECF06C0F2BDE1BDF89A319600B40D9264
:1020F00041505040B8F70895262FF999FECF1FBAE6
:1021000092BD81BD20BD0FB6F894FA9AF99A0FBE20
:1021100001960895052E97FB1EF400940E94A110CD
:1021200057FD07D00E94B41007FC03D04EF40C9466
:10213000A11050954095309521953F4F4F4F5F4FDF
:10214000089590958095709561957F4F8F4F9F4F23
:1021500008950E94D610A59F900DB49F900DA49F46
:10216000800D911D11240895A1E21A2EAA1BBB1BFC
:10217000FD010DC0AA1FBB1FEE1FFF1FA217B30753
:10218000E407F50720F0A21BB30BE40BF50B661F69
:10219000771F881F991F1A9469F76095709580952D
:1021A00090959B01AC01BD01CF010895A29FB001A4
:1021B000B39FC001A39F700D811D1124911DB29F7B
:0E21C000700D811D1124911D0895F894FFCF1C
:1021CE007403740301000F00010001000000FC0302
:1021DE000000000089010501520130014401D501C2
:1021EE00000000001204FF0375030000000012043B
:1021FE00FF03DC03000000005A0705014445425569
:10220E00472E31006E616E00696E66006F76660055
:0E221E002E0030313233343536373839000077
:00000001FF
