:100000000C9483000C94A9060C94D0060C94AB00BD
:100010000C94AB000C94AB000C94AB000C94AB00B4
:100020000C94AB000C94AB000C94AB000C94AB00A4
:100030000C94AB000C94AB000C94AB000C94AB0094
:100040000C94F7060C94AB000C94670A0C94990A74
:100050000C94AB000C94AB000C94AB000C94AB0074
:100060000C94AB000C94AB004C4F433A200053452A
:10007000433A2000484F5552533A20002020202078
:10008000504C59002020205350494E0052504D3AB8
:1000900020004669726D776172652000576F6F4C62
:1000A000656520416E6E000000000800020100003E
:1000B0000304070000000000000000010204081013
:1000C00020408001020408102001020408102004CE
:1000D00004040404040404020202020202030303EF
:1000E0000303030000000023002600290000000095
:1000F00000250028002B0000000000240027002A13
:100100000000C305C90A11241FBECFEFD8E0DEBF2F
:10011000CDBF11E0A0E0B1E0E8E9F0E202C0059057
:100120000D92AE34B107D9F722E0AEE4B1E001C0E0
:100130001D92A235B207E1F711E0C6E0D1E004C09C
:100140002297FE010E940610C230D107C9F70E9413
:10015000510D0C944A100C940000DC01ED91FC91BF
:100160000190F081E02D0994FC011382128287E155
:1001700091E09183808370E07783668350E05583BC
:10018000448308951F93CF93DF931F92CDB7DEB7BB
:10019000613031F0623031F0633031F010E005C091
:1001A00010E403C014E101C014E56EEF70E085EBCC
:1001B00091E049830E94AD0065E470E085EB91E039
:1001C0000E94AD004981642F70E0610F711D85EBC5
:1001D00091E00E94AD006091500170915101660F55
:1001E000771F882777FD8095982F0F90DF91CF910B
:1001F0001F910C94700740E060E00C94C200CF9314
:10020000C62F6EEF70E085EB91E00E94AD006C2F81
:1002100085EB91E00E94A00960915001709151011D
:10022000882777FD8095982FCF910C94700761E512
:100230000C94FF0061E40C94FF0068E40C94FF0050
:100240006CE40C94FF00CF93DF93EC010E941A0141
:10025000CE010E941701CE010E942001CE010E9412
:100260001D01CE01DF91CF910C94FB0085EB91E055
:100270000E94A00960914E0170914F01882777FD7F
:100280008095982F0E9470070895CF93C62F6EEF28
:1002900070E085EB91E00E94AD0063E570E085EBD6
:1002A00091E00E94AD006C2F85EB91E00E94A009C7
:1002B0006091500170915101882777FD8095982FAA
:1002C000CF910C9470078091610190916201019629
:1002D000909362018093610108958091630181117F
:1002E00009C081E02091640130916501232B19F050
:1002F00080E0089581E00895FF920F931F93CF93BC
:10030000DF93F82E05E010E0C0E0D0E08F2D0E94D2
:10031000E507C80FD91F01501109C1F7CE0165E0EB
:1003200070E00E94900F693E83E0780714F068EE59
:1003300073E0CB0177FF02C080E090E0DF91CF91C6
:100340001F910F91FF90089549E060E088E691E0E9
:100350000E94C2008091040190910501019719F457
:1003600064E870E002C06CE770E088E691E00C940D
:100370004A0BCF92DF92EF92FF92609155017091FC
:10038000560180915701909158010E94630E20E020
:1003900030E041E655E40E94CA0D20E030E040E242
:1003A00051E40E94190F0E94320E882777FD809534
:1003B000982F0E94650E6B017C0140E061E088E6A9
:1003C00091E00E94C20064E770E088E691E00E943C
:1003D0004A0B20E030E040E251E4C701B6010E9440
:1003E000CA0DAB01BC0121E030E088E691E0FF904E
:1003F000EF90DF90CF900C94070D88E691E00E947B
:10040000FB006EE670E088E691E00E944A0B4091A6
:1004100055015091560160915701709158012AE0A1
:1004200030E088E691E00E940F0C40E061E088E651
:1004300091E00E94C20068E670E088E691E00E94C8
:100440004A0B4091530150915401662757FD609526
:10045000762F2AE030E088E691E00C940F0C0F93A1
:100460001F93CF93DF93FB01EB0120E030E00AE024
:1004700010E040E22115310511F0009751F0B8016C
:100480000E94900FDC01A55EBE4F8C918883CB014A
:1004900001C048832F5F3F4F21962430310551F72B
:1004A0001482DF011396EF01CA17DB0730F48C9139
:1004B00098819C9389931197F7CFCF01DF91CF91CA
:1004C0001F910F910895CF92DF92EF92FF920F93B9
:1004D0001F93CF93DF9300D000D01F92CDB7DEB72C
:1004E0008A018091610190916201109262011092E3
:1004F00061012CE3289FB001299F700D11248827EA
:1005000077FD8095982F0E94650E20E030E040E84E
:100510005EE30E94190F6B017C01B80180E090E05E
:100520000E94630E9B01AC0160E070E08AE794E4F6
:100530000E94CA0D9B01AC01C701B6010E94190FB0
:100540006B017C0188E691E00E94FB006CE870E0A2
:1005500088E691E00E944A0B20E030E040E05FE353
:10056000C701B6010E94190F0E94320EDC01CB01B7
:10057000BE016F5F7F4F0E942F02BC0188E691E0B1
:100580000E946D0B0F900F900F900F900F90DF91C6
:10059000CF911F910F91FF90EF90DF90CF90089532
:1005A0000E94410720915D0130915E01AB01421B29
:1005B000530B493E23E0520798F060935D0170931E
:1005C0005E0180935F01909360012091520121119F
:1005D0000C94FD010E9463020E94A4010C94B901D5
:1005E0000895EF92FF920F931F93CF93DF93109292
:1005F0005501109256011092570110925801109215
:10060000540110925301E0900A01F0900B01C09147
:100610005301D0915401EC16FD0648F1CE010E9421
:1006200019100091550110915601209157013091F8
:1006300058016017710782079307A0F06F3F2FEFF3
:10064000720782079207F9F0609355017093560183
:1006500080935701909358012496D0935401C093EE
:100660005301D5CF6F3F7F4F8F4F9F4F61F024963F
:10067000D0935401C0935301EC16FD0620F4109260
:10068000540110925301DF91CF911F910F91FF9070
:10069000EF900895E1E8F0E08081887F81608083B9
:1006A00026E040E855E260E070E085EB91E00E94D2
:1006B000050A62E081E10E948A0862E082E00E940D
:1006C0008A0862E083E00E948A0861E08AE00E9472
:1006D0008A0861E089E00E948A0862E08EE00E9458
:1006E0008A0862E08FE00E948A088EE891E00E940A
:1006F0003F068EE891E00E940906809306019093E0
:1007000007018093040190930501682F8AE00E94FD
:10071000C30843E050E063E671E081E00E9489068F
:1007200010926201109261010E94F10264E670E091
:1007300080E090E00E94700788E691E00E9423012B
:1007400068E088E691E00E94450188E691E00E9419
:10075000FB006CE970E088E691E00E944A0B40E003
:1007600061E088E691E00E94C20062E970E088E6FC
:1007700091E00E944A0B60910C0170910D0188E696
:1007800091E00E946D0B60ED77E080E090E00E94C8
:10079000700788E691E00C94170140915501509143
:1007A00056016091570170915801809153019091C9
:1007B00054010E941F10809153019091540104969E
:1007C000909354018093530120910A0130910B01C1
:1007D0002817390720F410925401109253010895FC
:1007E0000F931F9380916301882309F43FC00E94F7
:1007F00041070091590110915A0120915B013091FC
:100800005C01061717072807390780F5D901C801C9
:1008100088519C4FAF4FBF4F8093590190935A011D
:10082000A0935B01B0935C016091550170915601FA
:1008300080915701909158016F5F7F4F8F4F9F4F6D
:10084000609355017093560180935701909358011E
:100850002CE330E040E050E00E94A40F672B682BAF
:10086000692B21F41F910F910C94CD031F910F91CF
:100870000895CF93DF93C0E0D0E080910A0190917A
:100880000B018C179D0740F04FEF5FEFBA01CE01CF
:100890000E941F102496F1CF109254011092530120
:1008A0001092550110925601109257011092580162
:1008B000DF91CF9108954F925F926F927F92AF92A6
:1008C000BF92CF92DF92EF92FF920F931F938FE729
:1008D00091E00E943F068FE791E00E947F06811120
:1008E0000E94390480E791E00E943F0680E791E092
:1008F0000E947F06882351F08091520191E0892760
:100900008093520188E691E00E9417018DE991E001
:100910000E943F068DE991E00E947F068823D9F06E
:100920000E946D018823B9F08091630191E08927CD
:1009300080936301882309F423C10E944107685111
:100940007C4F8F4F9F4F6093590170935A01809352
:100950005B0190935C018EE891E00E943F068EE877
:1009600091E00E940906909307018093060180910F
:1009700063018823C1F180E190E00E947C019093A3
:10098000670180936601BC01882777FD8095982FC9
:100990001F921F921F922FEF2F93EAE1AE2EB12CE0
:1009A000C12CD12C18EEE12E13E0F12E00E010E066
:1009B00020E030E0A9010E94090D70936701609367
:1009C00066010F900F900F900F90209106013091CB
:1009D0000701232B61F4719561957109709367018B
:1009E0006093660104C0109267011092660183E172
:1009F00090E00E947C019093090180930801BC0162
:100A0000882777FD8095982F1F921F921F922EE2C4
:100A10002F934AE0A42EB12CC12CD12C18EEE12E3C
:100A200013E0F12E00E010E020E030E0A9010E9488
:100A3000090D6B017C0170930901609308014090DE
:100A400064015090650157FE03C0519441945108D0
:100A5000209166013091670137FF03C031952195E0
:100A600031090F900F900F900F902415350554F514
:100A700084E64816510434F5B201882777FD809545
:100A8000982F2601662457FC6094762C7F926F92F3
:100A90005F924F922EE2A22EB12CC12CD12C14E6E3
:100AA000E12EF12C00E010E02AE130E040E050E0DF
:100AB0000E94090D70930901609308010F900F9037
:100AC0000F900F908091640190916501892BD1F472
:100AD00060910601709107018091040190910501D8
:100AE0008617970779F08AE00E94C3088091060173
:100AF0009091070190930501809304010E94A40145
:100B00001092630180916601909167016091640188
:100B100070916501861797074CF031E020E0681767
:100B200079070CF030E0832F922F02C08FEF9FEFF8
:100B3000680F791F709365016093640177FF03C0AC
:100B400071956195710989E00E9402080E94F00385
:100B50000E94D0026091080170910901882777FDF9
:100B60008095982F1F910F91FF90EF90DF90CF907D
:100B7000BF90AF907F906F905F904F900C947007F4
:100B80000E94CD03E8CE2EE130E040E050E061E18C
:100B90008DE991E00E94ED052EE130E040E050E06B
:100BA00062E08EE891E00E94ED052EE130E040E049
:100BB00050E06EE08FE791E00E94ED052EE130E01D
:100BC00040E050E06FE080E791E00E94ED0540E1F9
:100BD00062E088E691E00C94B4001F93CF93DF931A
:100BE000EC01162F2C833D834E835F831886198674
:100BF0001A861B860E944107688379838A839B83B8
:100C0000812F0E94F9088C871D87DF91CF911F915A
:100C10000895FC01848590E00895FF920F931F933F
:100C2000CF93DF93EC018D850E94F908F82E8C8517
:100C30008F1103C080E090E01CC00E944107088132
:100C400019812A813B81601B710B820B930B0C81F4
:100C50001D812E813F81601771078207930750F332
:100C60000E944107688379838A839B83FC8681E0A5
:100C700090E0DF91CF911F910F91FF900895EF9237
:100C8000FF920F931F93CF93DF93EC010E940D0609
:100C90007C01009709F588859985AA85BB85892BF4
:100CA0008A2B8B2B19F10E944107088119812A8117
:100CB0003B81601B710B820B930B088519852A857C
:100CC0003B85601771078207930780F00E944107F8
:100CD000688379838A839B83188619861A861B8684
:100CE00081E08E87EE24E394F12C01C01E86C701BB
:100CF000DF91CF911F910F91FF90EF900895FC012C
:100D00008685882319F081E09485911180E008950B
:100D100008958230E8F4E82FF0E0EE0FFF1FE25F65
:100D2000FE4F71836083813041F0809169008C7F38
:100D3000842B80936900E89A089580916900440F9C
:100D4000551F440F551F837F842B80936900E99AB8
:100D500008951F920F920FB60F9211242F933F9375
:100D60004F935F936F937F938F939F93AF93BF93B3
:100D7000EF93FF93E0910E01F0910F010995FF9120
:100D8000EF91BF91AF919F918F917F916F915F9103
:100D90004F913F912F910F900FBE0F901F9018957C
:100DA0001F920F920FB60F9211242F933F934F93E0
:100DB0005F936F937F938F939F93AF93BF93EF93C3
:100DC000FF93E0911001F09111010995FF91EF91CE
:100DD000BF91AF919F918F917F916F915F914F9153
:100DE0003F912F910F900FBE0F901F9018951F925B
:100DF0000F920FB60F9211242F933F938F939F93CF
:100E0000AF93BF938091AD019091AE01A091AF01DE
:100E1000B091B0013091AC0123E0230F2D3720F4C5
:100E20000196A11DB11D05C026E8230F0296A11D44
:100E3000B11D2093AC018093AD019093AE01A093BE
:100E4000AF01B093B0018091B1019091B201A09136
:100E5000B301B091B4010196A11DB11D8093B10100
:100E60009093B201A093B301B093B401BF91AF913D
:100E70009F918F913F912F910F900FBE0F901F90D8
:100E800018952FB7F8946091AD017091AE018091E3
:100E9000AF019091B0012FBF08953FB7F8948091B2
:100EA000B1019091B201A091B301B091B40126B506
:100EB000A89B05C02F3F19F00196A11DB11D3FBF92
:100EC0006627782F892F9A2F620F711D811D911D22
:100ED00042E0660F771F881F991F4A95D1F7089542
:100EE0008F929F92AF92BF92CF92DF92EF92FF923A
:100EF0006B017C010E944D074B015C01C114D104C0
:100F0000E104F104F1F00E94600D0E944D076819A0
:100F100079098A099B09683E73408105910570F340
:100F200021E0C21AD108E108F10888EE880E83E0BA
:100F3000981EA11CB11CC114D104E104F10429F7CD
:100F4000DDCFFF90EF90DF90CF90BF90AF909F905C
:100F50008F900895789484B5826084BD84B5816053
:100F600084BD85B5826085BD85B5816085BDEEE6B1
:100F7000F0E0808181608083E1E8F0E01082808190
:100F800082608083808181608083E0E8F0E08081FE
:100F900081608083E1EBF0E0808184608083E0EB1E
:100FA000F0E0808181608083EAE7F0E08081846006
:100FB0008083808182608083808181608083808162
:100FC000806880831092C10008958E3008F08E50A2
:100FD00087702091120190E4299F90011124822BA7
:100FE00080937C0080917A00806480937A00809165
:100FF0007A0086FDFCCF809178002091790090E006
:10100000922B08951F93CF93DF93182FEB0161E08C
:101010000E948A08209711F460E004C0CF3FD105F8
:1010200039F461E0812FDF91CF911F910C94C308B7
:10103000E12FF0E0E955FF4FE491E330F9F048F497
:10104000E130B9F0E230A1F584B5806284BDC8BD5D
:1010500034C0E730E9F0E83019F1E43049F5809127
:101060008000806280938000D0938B00C0938A00C0
:1010700024C084B5806884BDC7BD1FC08091800036
:10108000806880938000D0938900C093880015C049
:101090008091B00080688093B000C093B3000DC011
:1010A0008091B00080628093B000C093B40005C00E
:1010B000C038D1050CF0B5CFAFCFDF91CF911F91E4
:1010C0000895833081F028F4813099F08230A1F0C6
:1010D00008958730A9F08830B9F08430D1F4809138
:1010E00080008F7D03C0809180008F778093800087
:1010F000089584B58F7702C084B58F7D84BD08952F
:101100008091B0008F7703C08091B0008F7D809375
:10111000B0000895CF93DF9390E0FC01E554FF4FBA
:101120002491FC01E153FF4F8491882349F190E021
:10113000880F991FFC01E950FF4FA591B49183518D
:101140009F4FFC01C591D4919FB7611108C0F894DD
:101150008C91209582238C93888182230AC06230EF
:1011600051F4F8948C91322F309583238C9388819D
:10117000822B888304C0F8948C91822B8C939FBF20
:10118000DF91CF9108950F931F93CF93DF931F9219
:10119000CDB7DEB7282F30E0F901E955FF4F849134
:1011A000F901E554FF4F1491F901E153FF4F049108
:1011B0000023C9F0882321F069830E9461086981B6
:1011C000E02FF0E0EE0FFF1FE351FF4FA591B49128
:1011D0009FB7F8948C91611103C01095812301C0D1
:1011E000812B8C939FBF0F90DF91CF911F910F9117
:1011F0000895CF93DF93282F30E0F901E955FF4F91
:101200008491F901E554FF4FD491F901E153FF4F67
:10121000C491CC2391F081110E946108EC2FF0E081
:10122000EE0FFF1FED51FF4FA591B4912C912D238F
:1012300081E090E021F480E002C080E090E0DF9166
:10124000CF910895FC01818D228D90E0805C9F4FAD
:10125000821B91098F7399270895FC01918D828DCE
:10126000981731F0828DE80FF11D858D90E008957B
:101270008FEF9FEF0895FC01918D828D981761F09B
:10128000828DDF01A80FB11D5D968C91928D9F5FBD
:101290009F73928F90E008958FEF9FEF08958FEBEB
:1012A0009AE0892B49F080E090E0892B29F00E9498
:1012B000BF0A81110C9400000895FC01848DDF01A8
:1012C000A80FB11DA35ABF4F2C91848D90E00196B9
:1012D0008F739927848FA689B7892C93A089B189A8
:1012E0008C9180648C93938D848D981306C00288B2
:1012F000F389E02D80818F7D80830895CF93DF93E4
:10130000EC01888D8823C9F0EA89FB89808185FDFD
:1013100005C0A889B9898C9186FD0FC00FB607FC5E
:10132000F5CF808185FFF2CFA889B9898C9185FF9F
:10133000EDCFCE010E945D09E7CFDF91CF910895F7
:10134000CF92DF92FF920F931F93CF93DF931F9261
:10135000CDB7DEB76C0181E0D60158968C935897D3
:101360005B969C915B975C968C915C97981307C0F9
:101370005096ED91FC915197808185FD2EC0F6012C
:10138000038D10E00F5F1F4F0F731127F02EF60132
:10139000848DF81211C00FB607FCF9CFD601509614
:1013A000ED91FC915197808185FFF1CFC601698352
:1013B0000E945D096981EBCF838DE80FF11DE35A2F
:1013C000FF4F6083D6015B960C935B975296ED912D
:1013D000FC915397808180620CC0D6015696ED91A6
:1013E000FC91579760835096ED91FC9151978081C5
:1013F0008064808381E090E00F90DF91CF911F9116
:101400000F91FF90DF90CF900895BF92CF92DF921F
:10141000EF92FF92CF93DF93EC016A017B01B22E32
:10142000E889F98982E08083411581EE58076105DA
:101430007105A1F060E079E08DE390E0A7019601ED
:101440000E94A40F21503109410951095695479531
:1014500037952795211580E1380798F0E889F989B3
:10146000108260E874E88EE190E0A70196010E9486
:10147000A40F2150310941095109569547953795D7
:101480002795EC85FD853083EE85FF852083188EBA
:10149000EC89FD89B082EA89FB8980818061808343
:1014A000EA89FB89808188608083EA89FB89808161
:1014B00080688083EA89FB8980818F7D8083DF91CA
:1014C000CF91FF90EF90DF90CF90BF9008951F9243
:1014D0000F920FB60F9211242F938F939F93EF9338
:1014E000FF93E091C501F091C6018081E091CB01AD
:1014F000F091CC0182FD12C090818091CE018F5F6E
:101500008F732091CF01821751F0E091CE01F0E06E
:10151000EB54FE4F958F8093CE0101C08081FF91E7
:10152000EF919F918F912F910F900FBE0F901F9071
:1015300018951F920F920FB60F9211242F933F937D
:101540004F935F936F937F938F939F93AF93BF93CB
:10155000EF93FF9385EB91E00E945D09FF91EF917E
:10156000BF91AF919F918F917F916F915F914F91BB
:101570003F912F910F900FBE0F901F90189585EB04
:1015800091E00E94220921E0892B09F420E0822FBA
:1015900008951092B8011092B70188EE93E0A0E090
:1015A000B0E08093B9019093BA01A093BB01B093CE
:1015B000BC0180E391E09093B6018093B50185EC86
:1015C00090E09093C2018093C10184EC90E09093ED
:1015D000C4018093C30180EC90E09093C601809396
:1015E000C50181EC90E09093C8018093C70182EC23
:1015F00090E09093CA018093C90186EC90E09093AB
:10160000CC018093CB011092CE011092CF011092A9
:10161000D0011092D1010895CF92DF92EF92FF9204
:101620000F931F93CF93DF937C016A01EB0100E0DE
:1016300010E00C151D0571F06991D701ED91FC9139
:101640000190F081E02DC7010995892B19F00F5FFA
:101650001F4FEFCFC801DF91CF911F910F91FF90E6
:10166000EF90DF90CF9008956115710581F0DB0157
:101670000D900020E9F7AD0141505109461B570B71
:10168000DC01ED91FC910280F381E02D099480E072
:1016900090E00895EF92FF920F931F93CF93DF9303
:1016A0008C017B01C0E0D0E0F701EC0FFD1F6491DD
:1016B000662359F0F801A081B181ED91FC91C80138
:1016C0000995892B11F02196EFCFCE01DF91CF91B3
:1016D0001F910F91FF90EF9008950C94340BDC0153
:1016E000ED91FC910190F081E02D09948F929F92F1
:1016F000AF92BF92DF92EF92FF920F931F93CF931F
:10170000DF93CDB7DEB7A1970FB6F894DEBF0FBE5B
:10171000CDBF7C01F42FD52ECB0119A2223008F4C5
:101720002AE08E010F5D1F4F822E912CA12CB12C2F
:101730006F2F7D2DA50194010E94A40FF22FD32EAF
:10174000CA01015011096A3014F4E0E301C0E7E373
:10175000E60FD801EC93232B242B252B49F7B80156
:10176000C7010E94340BA1960FB6F894DEBF0FBEDE
:10177000CDBFDF91CF911F910F91FF90EF90DF9040
:10178000BF90AF909F908F900895CF92DF92EF928D
:10179000FF920F931F93CF93DF93EC016A017B01BC
:1017A0002115310579F4E881F9810190F081E02D6E
:1017B000642FDF91CF911F910F91FF90EF90DF90F9
:1017C000CF9009942A303105E9F477FF1AC06DE211
:1017D0000E946F0B8C0144275527BA014C195D09F3
:1017E0006E097F092AE0CE010E94760B800F911FBF
:1017F000DF91CF911F910F91FF90EF90DF90CF90ED
:1018000008952AE0B701A601CE01DF91CF911F9183
:101810000F91FF90EF90DF90CF900C94760B2115F5
:10182000310541F4DC01ED91FC910190F081E02D56
:10183000642F09940C94760B4F925F926F927F9273
:101840008F929F92AF92BF92CF92DF92EF92FF92D0
:101850000F931F93CF93DF93EC016A017B01B22EAC
:101860009A01AB01C701B6010E947C0F882319F0D1
:101870006FE371E027C026013701E89477F82FEF76
:101880003FEF4FE75FE7C301B2010E947C0F811178
:101890000DC02FEF3FEF4FE75FE7C301B2010E949A
:1018A000C60D18161CF463E471E00CC02FEF3FEF77
:1018B0004FE75FE4C701B6010E94150F1816ACF49C
:1018C00067E471E0CE01DF91CF911F910F91FF90FE
:1018D000EF90DF90CF90BF90AF909F908F907F90D0
:1018E0006F905F904F900C94340B2FEF3FEF4FE7CA
:1018F0005FECC701B6010E94C60D87FDE1CF20E075
:1019000030E0A901C701B6010E94C60D87FF0AC0D9
:101910006DE2CE010E946F0B8C01F7FAF094F7F89C
:10192000F09402C000E010E0A12C60E070E080E0E4
:101930009FE3AB1441F020E030E040E251E40E942C
:10194000CA0DA394F6CF9B01AC01C701B6010E945A
:10195000620D6B017C010E94370E2B013C010E943D
:10196000630E9B01AC01C701B6010E94610D6B01C2
:101970007C012AE0B301A201CE010E94760B080F80
:10198000191FBB2039F06BE471E0CE010E94340BCB
:10199000080F191F7B2C772041F120E030E040E256
:1019A00051E4C701B6010E94190F6B017C010E942E
:1019B000320E4B01AA2497FCA094BA2C2AE030E006
:1019C000B501A401CE010E94C50B080F191FC50166
:1019D000B4010E94650E9B01AC01C701B6010E94D3
:1019E000610D6B017C017A94D6CFC801DF91CF9154
:1019F0001F910F91FF90EF90DF90CF90BF90AF902D
:101A00009F908F907F906F905F904F9008950C946F
:101A10001C0C4F925F926F927F92AF92BF92CF92C7
:101A2000DF92EF92FF920F931F93CF93DF93CDB787
:101A3000DEB729013A01621B730B840B950B2989D0
:101A40003A894B895C892A193B094C095D09298B24
:101A50003A8B4B8B5C8B9B01AC0169897A898B89B2
:101A60009C890E94800FE418F50806091709A8014F
:101A700097010E94C60F2A0D3B1D4C1D5D1DCA011A
:101A8000B901DF91CF911F910F91FF90EF90DF90FF
:101A9000CF90BF90AF907F906F905F904F900895E0
:101AA00008950E94AA070E94500D0E944A03CFE4A5
:101AB000D9E00E945B042097E1F30E944F09F9CF1F
:101AC00008955058BB27AA270ED075C166D130F0B3
:101AD0006BD120F031F49F3F11F41EF45BC10EF482
:101AE000E095E7FB51C1E92F77D180F3BA17620780
:101AF00073078407950718F071F49EF58FC10EF4F3
:101B0000E0950B2EBA2FA02D0B01B90190010C010D
:101B1000CA01A0011124FF27591B99F0593F50F425
:101B2000503E68F11A16F040A22F232F342F44277D
:101B3000585FF3CF469537952795A795F040539575
:101B4000C9F77EF41F16BA0B620B730B840BBAF045
:101B50009150A1F0FF0FBB1F661F771F881FC2F7B0
:101B60000EC0BA0F621F731F841F48F487957795C4
:101B70006795B795F7959E3F08F0B3CF9395880F7B
:101B800008F09927EE0F979587950895D9D008F416
:101B900081E008950CD00FC107D140F0FED030F0A5
:101BA00021F45F3F19F0F0C0511139C1F3C014D1D5
:101BB00098F39923C9F35523B1F3951B550BBB2714
:101BC000AA2762177307840738F09F5F5F4F220FC1
:101BD000331F441FAA1FA9F333D00E2E3AF0E0E8BA
:101BE00030D091505040E695001CCAF729D0FE2F06
:101BF00027D0660F771F881FBB1F26173707480798
:101C0000AB07B0E809F0BB0B802DBF01FF2793584D
:101C10005F4F2AF09E3F510568F0B6C000C15F3F9C
:101C2000ECF3983EDCF3869577956795B795F79535
:101C30009F5FC9F7880F911D9695879597F908952D
:101C4000E1E0660F771F881FBB1F621773078407C9
:101C5000BA0720F0621B730B840BBA0BEE1F88F7D8
:101C6000E095089504D06894B111D9C00895BCD00E
:101C700088F09F5790F0B92F9927B751A0F0D1F075
:101C8000660F771F881F991F1AF0BA95C9F712C0FF
:101C9000B13081F0C3D0B1E00895C0C0672F782F74
:101CA0008827B85F39F0B93FCCF38695779567956B
:101CB000B395D9F73EF490958095709561957F4FD7
:101CC0008F4F9F4F0895E89409C097FB3EF490957D
:101CD0008095709561957F4F8F4F9F4F9923A9F005
:101CE000F92F96E9BB279395F69587957795679594
:101CF000B795F111F8CFFAF4BB0F11F460FF1BC0D8
:101D00006F5F7F4F8F4F9F4F16C0882311F096E96A
:101D100011C0772321F09EE8872F762F05C0662318
:101D200071F096E8862F70E060E02AF09A95660FD1
:101D3000771F881FDAF7880F9695879597F908958A
:101D4000990F0008550FAA0BE0E8FEEF16161706CC
:101D5000E807F907C0F012161306E407F50798F034
:101D6000621B730B840B950B39F40A2661F0232B4D
:101D7000242B252B21F408950A2609F4A140A695C9
:101D80008FEF811D811D089597F99F6780E870E0AE
:101D900060E008959FEF80EC089500240A941616E1
:101DA000170618060906089500240A941216130649
:101DB000140605060895092E0394000C11F48823D7
:101DC00052F0BB0F40F4BF2B11F460FF04C06F5FF3
:101DD0007F4F8F4F9F4F089557FD9058440F551FC9
:101DE00059F05F3F71F04795880F97FB991F61F09D
:101DF0009F3F79F087950895121613061406551F14
:101E0000F2CF4695F1DF08C0161617061806991F7F
:101E1000F1CF86957105610508940895E894BB2774
:101E200066277727CB0197F908958ADF08F48FEFAB
:101E300008950BD0C0CFB1DF28F0B6DF18F095239E
:101E400009F0A2CFA7CF1124EACFC6DFA0F3959F58
:101E5000D1F3950F50E0551F629FF001729FBB2791
:101E6000F00DB11D639FAA27F00DB11DAA1F649F3D
:101E70006627B00DA11D661F829F2227B00DA11DF0
:101E8000621F739FB00DA11D621F839FA00D611D76
:101E9000221F749F3327A00D611D231F849F600D97
:101EA000211D822F762F6A2F11249F5750408AF0D0
:101EB000E1F088234AF0EE0FFF1FBB1F661F771F5C
:101EC000881F91505040A9F79E3F510570F05CCF9C
:101ED000A6CF5F3FECF3983EDCF386957795679548
:101EE000B795F795E7959F5FC1F7FE2B880F911D7A
:101EF0009695879597F9089523DF880B990B089598
:101F0000DB018F939F930E94E50FBF91AF91A29F3A
:101F1000800D911DA39F900DB29F900D11240895E7
:101F200097FB072E16F4009407D077FD09D00E9486
:101F3000F00F07FC05D03EF4909581959F4F0895D2
:101F4000709561957F4F0895A1E21A2EAA1BBB1BC5
:101F5000FD010DC0AA1FBB1FEE1FFF1FA217B30775
:101F6000E407F50720F0A21BB30BE40BF50B661F8B
:101F7000771F881F991F1A9469F76095709580954F
:101F800090959B01AC01BD01CF010895052E97FBF3
:101F90001EF400940E94DD0F57FD07D00E94A40F8D
:101FA00007FC03D04EF40C94DD0F5095409530950E
:101FB00021953F4F4F4F5F4F0895909580957095B5
:101FC00061957F4F8F4F9F4F08950E940A10A59FE4
:101FD000900DB49F900DA49F800D911D1124089524
:101FE000AA1BBB1B51E107C0AA1FBB1FA617B7073F
:101FF00010F0A61BB70B881F991F5A95A9F780955B
:102000009095BC01CD010895EE0FFF1F0590F4914E
:10201000E02D0994A29FB001B39FC001A39F700D52
:10202000811D1124911DB29F700D811D1124911DE0
:102030000895A6E1B0E044E050E00C942E10242F67
:102040000E943D10252F0E943D100C9427100E94E5
:102050003C10272F0C943D10DC01CB01FC01F999B9
:10206000FECF06C0F2BDE1BDF89A319600B40D92E4
:1020700041505040B8F70895262FF999FECF1FBA66
:1020800092BD81BD20BD0FB6F894FA9AF99A0FBEA1
:0820900001960895F894FFCFBA
:1020980001000000010001000F00FC032601880672
:1020A8008806010000000036010C0B303132333451
:1020B800353637383900332E312E30000000000015
:1020C800A0090C0B22093B092D097E090D0A006E97
:0E20D800616E00696E66006F7666002E000075
:00000001FF
