:100000000C947D000C94F0050C941D060C94A50036
:100010000C94A5000C94A5000C94A5000C94A500CC
:100020000C94A5000C94A5000C94A5000C94A500BC
:100030000C94A5000C94A5000C94A5000C94A500AC
:100040000C944A060C94A5000C94A8090C94DA09A7
:100050000C94A5000C94A5000C94A5000C94A5008C
:100060000C94A5000C94A500484F5552533A20001B
:1000700020202020504C59002020205350494E0071
:1000800052504D3A20004669726D776172652000CA
:10009000576F6F4C656520416E6E000000000800D0
:1000A000020100000304070000000000000000013E
:1000B00002040810204080010204081020010204FC
:1000C00008102004040404040404040202020202CE
:1000D000020303030303030000000023002600299A
:1000E0000000000000250028002B00000000002474
:1000F0000027002A00001D050A0A11241FBECFEFA9
:10010000D8E0DEBFCDBF11E0A0E0B1E0E8E1FFE163
:1001100002C005900D92A834B107D9F722E0A8E4F7
:10012000B1E001C01D92A133B207E1F710E0CAEFC0
:10013000D0E004C02297FE010E94460FC63FD107BF
:10014000C9F70E944E0A0C948A0F0C940000DC013F
:10015000ED91FC910190F081E02D0994FC01138256
:10016000128281E191E09183808370E077836683DE
:1001700050E05583448308951F93CF93DF931F92DC
:10018000CDB7DEB7613031F0623031F0633031F03D
:1001900010E005C010E403C014E101C014E56EEFE7
:1001A00070E084E991E049830E94A70065E470E073
:1001B00084E991E00E94A7004981642F70E0610FFB
:1001C000711D84E991E00E94A70060914A0170913D
:1001D0004B01660F771F882777FD8095982F0F902A
:1001E000DF91CF911F910C94C30640E060E00C9426
:1001F000BC00CF93C62F6EEF70E084E991E00E94BF
:10020000A7006C2F84E991E00E94E10860914A0107
:1002100070914B01882777FD8095982FCF910C9492
:10022000C30661E50C94F90061E40C94F90068E4FC
:100230000C94F9006CE40C94F900CF93DF93EC017B
:100240000E941401CE010E941101CE010E941A01E8
:10025000CE010E941701CE01DF91CF910C94F500E1
:1002600084E991E00E94E1086091480170914901A0
:10027000882777FD8095982F0E94C3060895CF9315
:10028000C62F6EEF70E084E991E00E94A70063E55D
:1002900070E084E991E00E94A7006C2F84E991E06E
:1002A0000E94E10860914A0170914B01882777FD17
:1002B0008095982FCF910C94C30680915A0190910C
:1002C0005B01019690935B0180935A0108958091A0
:1002D0005C01811109C081E020915D0130915E01D6
:1002E000232B19F080E0089581E00895FF920F9389
:1002F0001F93CF93DF93F82E05E010E0C0E0D0E02D
:100300008F2D0E942607C80FD91F01501109C1F770
:10031000CE0165E070E00E94D00E693E83E0780770
:1003200014F068EE73E0CB0177FF02C080E090E04C
:10033000DF91CF911F910F91FF90089549E060E008
:1003400081E691E00E94BC0080910401909105013A
:10035000019719F468E770E002C060E770E081E699
:1003600091E00C949B0ACF92DF92EF92FF92609102
:100370004E0170914F0180915001909151010E9466
:10038000A30D20E030E041E655E40E940A0D20E094
:1003900030E040E251E40E94590E0E94720D88271D
:1003A00077FD8095982F0E94A50D6B017C0140E0A0
:1003B00061E081E691E00E94BC0068E670E081E6C1
:1003C00091E00E949B0A20E030E040E251E4C70146
:1003D000B6010E940A0DAB01BC0121E030E081E6CC
:1003E00091E0FF90EF90DF90CF900C94570C0F931B
:1003F0001F93CF93DF93FB01EB0120E030E00AE095
:1004000010E040E22115310511F0009751F0B801DC
:100410000E94D00EDC01AB5EBE4F8C918883CB0175
:1004200001C048832F5F3F4F21962430310551F79B
:100430001482DF011396EF01CA17DB0730F48C91A9
:1004400098819C9389931197F7CFCF01DF91CF913A
:100450001F910F910895CF92DF92EF92FF920F9329
:100460001F93CF93DF9300D000D01F92CDB7DEB79C
:100470008A0180915A0190915B0110925B01109268
:100480005A012CE3289FB001299F700D1124882761
:1004900077FD8095982F0E94A50D20E030E040E880
:1004A0005EE30E94590E6B017C01B80180E090E090
:1004B0000E94A30D9B01AC0160E070E08AE794E428
:1004C0000E940A0D9B01AC01C701B6010E94590EA2
:1004D0006B017C0181E691E00E94F50060E870E02C
:1004E00081E691E00E949B0A20E030E040E05FE37B
:1004F000C701B6010E94590E0E94720DDC01CB01AA
:10050000BE016F5F7F4F0E94F701BC0181E691E061
:100510000E94C00A0F900F900F900F900F90DF91E4
:10052000CF911F910F91FF90EF90DF90CF900895A2
:100530000E9494062091560130915701AB01421B55
:10054000530B493E23E0520770F0609356017093BD
:10055000570180935801909359010E942B020E94E9
:100560009E010C94B30108950F931F93CF93DF93D3
:1005700010924E0110924F011092500110925101B1
:1005800010924D0110924C01C0914C01D0914D013F
:10059000C11584E0D80720F5CE010E94590F0091C3
:1005A0004E0110914F01209150013091510160177F
:1005B000710782079307A0F06F3F2FEF7207820742
:1005C000920771F060934E0170934F018093500138
:1005D000909351012496D0934D01C0934C01D4CFF8
:1005E000DF91CF911F910F910895E1E8F0E08081B4
:1005F000887F8160808326E040E855E260E070E01B
:1006000084E991E00E94460981E691E00E941D0183
:1006100068E081E691E00E943F0162E081E10E9492
:10062000CB0762E082E00E94CB0762E083E00E9499
:10063000CB0761E08AE00E94CB0761E089E00E947D
:10064000CB0789E691E00E94870589E691E00E9448
:1006500051058093060190930701809304019093C4
:100660000501682F8AE00E94040843E050E06DE530
:1006700071E081E00E94D00510925B0110925A0156
:100680000E94B40281E691E00E94F50060E970E00A
:1006900081E691E00E949B0A40E061E081E691E002
:1006A0000E94BC0066E870E081E691E00E949B0A2F
:1006B00060910A0170910B0181E691E00E94C00AED
:1006C00060ED77E080E090E00E94C30681E691E073
:1006D0000C94110140914E0150914F0160915001D5
:1006E0007091510180914C0190914D010E945F0FDA
:1006F00080914C0190914D010496813024E0920745
:1007000028F490934D0180934C01089510924D016F
:1007100010924C0108950F931F9380915C018823E0
:1007200009F43FC00E9494060091520110915301B8
:1007300020915401309155010617170728073907F2
:1007400080F5D901C80188519C4FAF4FBF4F8093AE
:10075000520190935301A0935401B09355016091BD
:100760004E0170914F0180915001909151016F5F46
:100770007F4F8F4F9F4F60934E0170934F01809337
:100780005001909351012CE330E040E050E00E9492
:10079000E40E672B682B692B21F41F910F910C94A9
:1007A0006A031F910F9108954F925F926F927F920B
:1007B000AF92BF92CF92DF92EF92FF920F931F936F
:1007C00088E791E00E94870588E791E00E94C705CD
:1007D0008823D9F00E9467018823B9F080915C01D9
:1007E00091E0892780935C01882309F423C10E944A
:1007F000940668517C4F8F4F9F4F609352017093C6
:100800005301809354019093550189E691E00E9431
:10081000870589E691E00E94510590930701809336
:10082000060180915C018823C1F180E190E00E9483
:1008300076019093600180935F01BC01882777FD6A
:100840008095982F1F921F921F922FEF2F93EAE10E
:10085000AE2EB12CC12CD12C18EEE12E13E0F12ECE
:1008600000E010E020E030E0A9010E94590C7093F4
:10087000600160935F010F900F900F900F90209197
:10088000060130910701232B61F47195619571097F
:100890007093600160935F0104C010926001109238
:1008A0005F0183E190E00E947601909309018093BB
:1008B0000801BC01882777FD8095982F1F921F9211
:1008C0001F922EE22F934AE0A42EB12CC12CD12CE2
:1008D00018EEE12E13E0F12E00E010E020E030E011
:1008E000A9010E94590C6B017C017093090160936E
:1008F000080140905D0150905E0157FE03C0519485
:100900004194510820915F013091600137FF03C08D
:100910003195219531090F900F900F900F9024156C
:10092000350554F584E64816510434F5B20188279C
:1009300077FD8095982F2601662457FC6094762CCD
:100940007F926F925F924F922EE2A22EB12CC12C19
:10095000D12C14E6E12EF12C00E010E02AE130E089
:1009600040E050E00E94590C709309016093080127
:100970000F900F900F900F9080915D0190915E010C
:10098000892BD1F4609106017091070180910401D7
:10099000909105018617970779F08AE00E94040874
:1009A00080910601909107019093050180930401C5
:1009B0000E949E0110925C0180915F019091600104
:1009C00060915D0170915E01861797074CF031E0F0
:1009D00020E0681779070CF030E0832F922F02C0D7
:1009E0008FEF9FEF680F791F70935E0160935D0139
:1009F00077FF03C071956195710989E00E944307F3
:100A00000E948B030E949802609108017091090175
:100A1000882777FD8095982F1F910F91FF90EF9079
:100A2000DF90CF90BF90AF907F906F905F904F908E
:100A30000C94C3060E946A03E8CE2EE130E040E049
:100A400050E061E188E791E00E9435052EE130E059
:100A500040E050E062E089E691E00E94350540E127
:100A600062E081E691E00C94AE001F93CF93DF9398
:100A7000EC01162F2C833D834E835F8318861986E5
:100A80001A861B860E949406688379838A839B83D7
:100A9000812F0E943A088C871D87DF91CF911F918B
:100AA0000895FC01848590E00895FF920F931F93B1
:100AB000CF93DF93EC018D850E943A08F82E8C8548
:100AC0008F1103C080E090E01CC00E949406088152
:100AD00019812A813B81601B710B820B930B0C8166
:100AE0001D812E813F81601771078207930750F3A4
:100AF0000E949406688379838A839B83FC8681E0C5
:100B000090E0DF91CF911F910F91FF900895EF92A8
:100B1000FF920F931F93CF93DF93EC010E94550533
:100B20007C01009709F588859985AA85BB85892B65
:100B30008A2B8B2B19F10E949406088119812A8136
:100B40003B81601B710B820B930B088519852A85ED
:100B50003B85601771078207930780F00E94940617
:100B6000688379838A839B83188619861A861B86F5
:100B700081E08E87EE24E394F12C01C01E86C7012C
:100B8000DF91CF911F910F91FF90EF900895FC019D
:100B90008685882319F081E09485911180E008957D
:100BA0008230E8F4E82FF0E0EE0FFF1FE957FE4F28
:100BB00071836083813041F0809169008C7F842B48
:100BC00080936900E89A089580916900440F551F49
:100BD000440F551F837F842B80936900E99A089501
:100BE0001F920F920FB60F9211242F933F934F93A2
:100BF0005F936F937F938F939F93AF93BF93EF9385
:100C0000FF938091870190918801892B29F0E091D1
:100C10008701F09188010995FF91EF91BF91AF9104
:100C20009F918F917F916F915F914F913F912F9104
:100C30000F900FBE0F901F9018951F920F920FB636
:100C40000F9211242F933F934F935F936F937F9352
:100C50008F939F93AF93BF93EF93FF9380918901FD
:100C600090918A01892B29F0E0918901F0918A0104
:100C70000995FF91EF91BF91AF919F918F917F91D6
:100C80006F915F914F913F912F910F900FBE0F90F9
:100C90001F9018951F920F920FB60F9211242F9349
:100CA0003F938F939F93AF93BF9380918C019091CB
:100CB0008D01A0918E01B0918F0130918B0123E0C5
:100CC000230F2D3720F40196A11DB11D05C026E884
:100CD000230F0296A11DB11D20938B0180938C01DF
:100CE00090938D01A0938E01B0938F01809190011C
:100CF00090919101A0919201B09193010196A11D53
:100D0000B11D8093900190939101A0939201B093B3
:100D10009301BF91AF919F918F913F912F910F9030
:100D20000FBE0F901F9018952FB7F89460918C010B
:100D300070918D0180918E0190918F012FBF089548
:100D40003FB7F8948091900190919101A091920108
:100D5000B091930126B5A89B05C02F3F19F00196CD
:100D6000A11DB11D3FBF6627782F892F9A2F620FD3
:100D7000711D811D911D42E0660F771F881F991F0D
:100D80004A95D1F70895CF92DF92EF92FF92CF93D9
:100D9000DF936B017C010E94A006EB01C114D1041A
:100DA000E104F10489F00E94A00C0E94A0066C1BD3
:100DB0007D0B683E734090F381E0C81AD108E108CA
:100DC000F108C851DC4FEACFDF91CF91FF90EF904F
:100DD000DF90CF900895789484B5826084BD84B507
:100DE000816084BD85B5826085BD85B5816085BD26
:100DF000EEE6F0E0808181608083E1E8F0E010823F
:100E0000808182608083808181608083E0E8F0E07F
:100E1000808181608083E1EBF0E080818460808369
:100E2000E0EBF0E0808181608083EAE7F0E08081A0
:100E30008460808380818260808380818160808300
:100E40008081806880831092C10008958E3008F000
:100E50008E50877020910C0190E4299F90011124FD
:100E6000822B80937C0080917A00806480937A004A
:100E700080917A0086FDFCCF8091780020917900E6
:100E800090E0922B08951F93CF93DF93182FEB01DF
:100E900061E00E94CB07209711F460E004C0CF3FCF
:100EA000D10539F461E0812FDF91CF911F910C942E
:100EB0000408E12FF0E0E556FF4FE491E330F9F04C
:100EC00048F4E130B9F0E230A1F584B5806284BD28
:100ED000C8BD34C0E730E9F0E83019F1E43049F535
:100EE00080918000806280938000D0938B00C093BB
:100EF0008A0024C084B5806884BDC7BD1FC08091AE
:100F00008000806880938000D0938900C09388001F
:100F100015C08091B00080688093B000C093B3008A
:100F20000DC08091B00080628093B000C093B40087
:100F300005C0C038D1050CF0B5CFAFCFDF91CF9150
:100F40001F910895833081F028F4813099F0823028
:100F5000A1F008958730A9F08830B9F08430D1F439
:100F6000809180008F7D03C0809180008F77809377
:100F70008000089584B58F7702C084B58F7D84BDCD
:100F800008958091B0008F7703C08091B0008F7D6D
:100F90008093B0000895CF93DF9390E0FC01E1557A
:100FA000FF4F2491FC01ED53FF4F8491882349F1B9
:100FB00090E0880F991FFC01E551FF4FA591B49176
:100FC0008F519F4FFC01C591D4919FB7611108C00B
:100FD000F8948C91209582238C93888182230AC077
:100FE000623051F4F8948C91322F309583238C9396
:100FF0008881822B888304C0F8948C91822B8C93F7
:101000009FBFDF91CF9108950F931F93CF93DF93ED
:101010001F92CDB7DEB7282F30E0F901E556FF4F1C
:101020008491F901E155FF4F1491F901ED53FF4F00
:1010300004910023C9F0882321F069830E94A2074C
:101040006981E02FF0E0EE0FFF1FEF51FF4FA591F8
:10105000B4919FB7F8948C91611103C010958123CE
:1010600001C0812B8C939FBF0F90DF91CF911F9177
:101070000F910895CF93DF93282F30E0F901E556C3
:10108000FF4F8491F901E155FF4FD491F901ED53E0
:10109000FF4FC491CC2391F081110E94A207EC2F45
:1010A000F0E0EE0FFF1FE952FF4FA591B4912C9194
:1010B0002D2381E090E021F480E002C080E090E008
:1010C000DF91CF910895FC01818D228D90E0805CAD
:1010D0009F4F821B91098F7399270895FC01918D71
:1010E000828D981731F0828DE80FF11D858D90E08B
:1010F00008958FEF9FEF0895FC01918D828D9817D1
:1011000061F0828DDF01A80FB11D5D968C91928DEB
:101110009F5F9F73928F90E008958FEF9FEF0895E8
:1011200080E09AE0892B49F080E090E0892B29F05B
:101130000E94000A81110C9400000895FC01848D26
:10114000DF01A80FB11DA35ABF4F2C91848D90E0F1
:1011500001968F739927848FA689B7892C93A089CC
:10116000B1898C9180648C93938D848D981306C083
:101170000288F389E02D80818F7D80830895CF934D
:10118000DF93EC01888D8823C9F0EA89FB8980818F
:1011900085FD05C0A889B9898C9186FD0FC00FB661
:1011A00007FCF5CF808185FFF2CFA889B9898C91A2
:1011B00085FFEDCFCE010E949E08E7CFDF91CF9152
:1011C0000895CF92DF92FF920F931F93CF93DF93F7
:1011D0001F92CDB7DEB76C0181E0D60158968C9393
:1011E00058975B969C915B975C968C915C97981353
:1011F00007C05096ED91FC915197808185FD2EC0DE
:10120000F601038D10E00F5F1F4F0F731127F02EB3
:10121000F601848DF81211C00FB607FCF9CFD60184
:101220005096ED91FC915197808185FFF1CFC601D9
:1012300069830E949E086981EBCF838DE80FF11DC1
:10124000E35AFF4F6083D6015B960C935B975296EF
:10125000ED91FC915397808180620CC0D601569627
:10126000ED91FC91579760835096ED91FC915197C9
:1012700080818064808381E090E00F90DF91CF9146
:101280001F910F91FF90DF90CF900895BF92CF9262
:10129000DF92EF92FF92CF93DF93EC016A017B0123
:1012A000B22EE889F98982E08083411581EE5807E2
:1012B00061057105A1F060E079E08DE390E0A701A0
:1012C00096010E94E40E21503109410951095695B9
:1012D000479537952795211580E1380798F0E889DB
:1012E000F989108260E874E88EE190E0A701960128
:1012F0000E94E40E21503109410951095695479544
:1013000037952795EC85FD853083EE85FF85208315
:10131000188EEC89FD89B082EA89FB898081806121
:101320008083EA89FB89808188608083EA89FB89E0
:10133000808180688083EA89FB8980818F7D8083BA
:10134000DF91CF91FF90EF90DF90CF90BF90089505
:101350001F920F920FB60F9211242F938F939F938A
:10136000EF93FF93E091A401F091A5018081E091BA
:10137000AA01F091AB0182FD12C090818091AD0174
:101380008F5F8F732091AE01821751F0E091AD0114
:10139000F0E0EC56FE4F958F8093AD0101C0808147
:1013A000FF91EF919F918F912F910F900FBE0F9012
:1013B0001F9018951F920F920FB60F9211242F9322
:1013C0003F934F935F936F937F938F939F93AF93CD
:1013D000BF93EF93FF9384E991E00E949E08FF91F1
:1013E000EF91BF91AF919F918F917F916F915F919D
:1013F0004F913F912F910F900FBE0F901F90189516
:1014000084E991E00E94630821E0892B09F420E03F
:10141000822F0895109297011092960188EE93E022
:10142000A0E0B0E08093980190939901A0939A0175
:10143000B0939B018AE291E090939501809394018F
:1014400085EC90E09093A1018093A00184EC90E062
:101450009093A3018093A20180EC90E09093A5016A
:101460008093A40181EC90E09093A7018093A60162
:1014700082EC90E09093A9018093A80186EC90E023
:101480009093AB018093AA011092AD011092AE012E
:101490001092AF011092B001089508950E94EB06DA
:1014A0000E944D0A0E94F502C0E9D8E00E94D403D0
:1014B0002097E1F30E949008F9CFCF92DF92EF924C
:1014C000FF920F931F93CF93DF936C017A01EB018F
:1014D000E60EF71E00E010E0CE15DF0561F0699121
:1014E000D601ED91FC910190F081E02DC6010995A6
:1014F000080F191FF1CFC801DF91CF911F910F91F4
:10150000FF90EF90DF90CF9008956115710581F005
:10151000DB010D900020E9F7AD0141505109461B58
:10152000570BDC01ED91FC910280F381E02D0994D1
:1015300080E090E00895EF92FF920F931F93CF9376
:10154000DF938C01FB01C0E0D0E064917F018FEF5D
:10155000E81AF80A662361F0D801ED91FC91019038
:10156000F081E02DC8010995C80FD91FF701EDCF13
:10157000CE01DF91CF911F910F91FF90EF900895D1
:101580000C94850ADC01ED91FC910190F081E02D35
:1015900009948F929F92AF92BF92CF92DF92EF9277
:1015A000FF920F931F93CF93DF93CDB7DEB7A19731
:1015B0000FB6F894DEBF0FBECDBF7C01C42EE52F61
:1015C000CB01D22E19A221E02D1510F02AE0D22E47
:1015D0008E010F5D1F4F8D2C912CA12CB12C6C2DE9
:1015E0007E2FA50194010E94E40E8C2DD29E8019BD
:1015F0001124015011098A3014F4805D01C0895C06
:10160000F8018083211531054105510521F0C22ED5
:10161000E32FCA01E4CFB801C7010E94850AA19651
:101620000FB6F894DEBF0FBECDBFDF91CF911F91F3
:101630000F91FF90EF90DF90CF90BF90AF909F9071
:101640008F900895CF92DF92EF92FF920F931F93A6
:10165000CF93DF93EC016A017B012115310579F409
:10166000E881F9810190F081E02D642FDF91CF9125
:101670001F910F91FF90EF90DF90CF9009942A3047
:101680003105E9F477FF1AC06DE20E94C20A8C01AD
:1016900044275527BA014C195D096E097F092AE0D4
:1016A000CE010E94C90A800F911FDF91CF911F9137
:1016B0000F91FF90EF90DF90CF9008952AE0B7014F
:1016C000A601CE01DF91CF911F910F91FF90EF9076
:1016D000DF90CF900C94C90A4F925F926F927F92E5
:1016E0008F929F92AF92BF92CF92DF92EF92FF9232
:1016F0000F931F93CF93DF93EC016A017B01B22E0E
:101700009A01AB01C701B6010E94BC0E882319F0F3
:1017100069E371E027C026013701E89477F82FEFDD
:101720003FEF4FE75FE7C301B2010E94BC0E81119A
:101730000DC02FEF3FEF4FE75FE7C301B2010E94FB
:10174000060D18161CF46DE371E00CC02FEF3FEF8F
:101750004FE75FE4C701B6010E94550E1816ACF4BE
:1017600061E471E0CE01DF91CF911F910F91FF9065
:10177000EF90DF90CF90BF90AF909F908F907F9031
:101780006F905F904F900C94850A2FEF3FEF4FE7DB
:101790005FECC701B6010E94060D87FDE1CF20E096
:1017A00030E0A901C701B6010E94060D87FF0AC0FB
:1017B0006DE2CE010E94C20A8C01F7FAF094F7F8AC
:1017C000F09402C000E010E0A12C60E070E080E046
:1017D0009FE3AB1441F020E030E040E251E40E948E
:1017E0000A0DA394F6CF9B01AC01C701B6010E947C
:1017F000A20C6B017C010E94770D2B013C010E9421
:10180000A30D9B01AC01C701B6010E94A10C6B01A5
:101810007C012AE0B301A201CE010E94C90A080F8F
:10182000191FBB2039F065E471E0CE010E94850AE2
:10183000080F191F7B2C772041F120E030E040E2B7
:1018400051E4C701B6010E94590E6B017C010E9450
:10185000720D4B01AA2497FCA094BA2C2AE030E028
:10186000B501A401CE010E94220B080F191FC5016A
:10187000B4010E94A50D9B01AC01C701B6010E94F5
:10188000A10C6B017C017A94D6CFC801DF91CF9176
:101890001F910F91FF90EF90DF90CF90BF90AF908E
:1018A0009F908F907F906F905F904F9008950C94D1
:1018B0006C0B4F925F926F927F92AF92BF92CF92DA
:1018C000DF92EF92FF920F931F93CF93DF93CDB7E9
:1018D000DEB729013A01621B730B840B950B298932
:1018E0003A894B895C892A193B094C095D09298B86
:1018F0003A8B4B8B5C8B9B01AC0169897A898B8914
:101900009C890E94C00EE418F50806091709A80171
:1019100097010E94060F2A0D3B1D4C1D5D1DCA013B
:10192000B901DF91CF911F910F91FF90EF90DF9060
:10193000CF90BF90AF907F906F905F904F90089541
:1019400008955058BB27AA270ED075C166D130F034
:101950006BD120F031F49F3F11F41EF45BC10EF403
:10196000E095E7FB51C1E92F77D180F3BA17620701
:1019700073078407950718F071F49EF58FC10EF474
:10198000E0950B2EBA2FA02D0B01B90190010C018F
:10199000CA01A0011124FF27591B99F0593F50F4A7
:1019A000503E68F11A16F040A22F232F342F4427FF
:1019B000585FF3CF469537952795A795F0405395F7
:1019C000C9F77EF41F16BA0B620B730B840BBAF0C7
:1019D0009150A1F0FF0FBB1F661F771F881FC2F732
:1019E0000EC0BA0F621F731F841F48F48795779546
:1019F0006795B795F7959E3F08F0B3CF9395880FFD
:101A000008F09927EE0F979587950895D9D008F497
:101A100081E008950CD00FC107D140F0FED030F026
:101A200021F45F3F19F0F0C0511139C1F3C014D156
:101A300098F39923C9F35523B1F3951B550BBB2795
:101A4000AA2762177307840738F09F5F5F4F220F42
:101A5000331F441FAA1FA9F333D00E2E3AF0E0E83B
:101A600030D091505040E695001CCAF729D0FE2F87
:101A700027D0660F771F881FBB1F26173707480719
:101A8000AB07B0E809F0BB0B802DBF01FF279358CF
:101A90005F4F2AF09E3F510568F0B6C000C15F3F1E
:101AA000ECF3983EDCF3869577956795B795F795B7
:101AB0009F5FC9F7880F911D9695879597F90895AF
:101AC000E1E0660F771F881FBB1F6217730784074B
:101AD000BA0720F0621B730B840BBA0BEE1F88F75A
:101AE000E095089504D06894B111D9C00895BCD090
:101AF00088F09F5790F0B92F9927B751A0F0D1F0F7
:101B0000660F771F881F991F1AF0BA95C9F712C080
:101B1000B13081F0C3D0B1E00895C0C0672F782FF5
:101B20008827B85F39F0B93FCCF3869577956795EC
:101B3000B395D9F73EF490958095709561957F4F58
:101B40008F4F9F4F0895E89409C097FB3EF49095FE
:101B50008095709561957F4F8F4F9F4F9923A9F086
:101B6000F92F96E9BB279395F69587957795679515
:101B7000B795F111F8CFFAF4BB0F11F460FF1BC059
:101B80006F5F7F4F8F4F9F4F16C0882311F096E9EC
:101B900011C0772321F09EE8872F762F05C066239A
:101BA00071F096E8862F70E060E02AF09A95660F53
:101BB000771F881FDAF7880F9695879597F908950C
:101BC000990F0008550FAA0BE0E8FEEF161617064E
:101BD000E807F907C0F012161306E407F50798F0B6
:101BE000621B730B840B950B39F40A2661F0232BCF
:101BF000242B252B21F408950A2609F4A140A6954B
:101C00008FEF811D811D089597F99F6780E870E02F
:101C100060E008959FEF80EC089500240A94161662
:101C2000170618060906089500240A9412161306CA
:101C3000140605060895092E0394000C11F4882358
:101C400052F0BB0F40F4BF2B11F460FF04C06F5F74
:101C50007F4F8F4F9F4F089557FD9058440F551F4A
:101C600059F05F3F71F04795880F97FB991F61F01E
:101C70009F3F79F087950895121613061406551F95
:101C8000F2CF4695F1DF08C0161617061806991F01
:101C9000F1CF86957105610508940895E894BB27F6
:101CA00066277727CB0197F908958ADF08F48FEF2D
:101CB00008950BD0C0CFB1DF28F0B6DF18F0952320
:101CC00009F0A2CFA7CF1124EACFC6DFA0F3959FDA
:101CD000D1F3950F50E0551F629FF001729FBB2713
:101CE000F00DB11D639FAA27F00DB11DAA1F649FBF
:101CF0006627B00DA11D661F829F2227B00DA11D72
:101D0000621F739FB00DA11D621F839FA00D611DF7
:101D1000221F749F3327A00D611D231F849F600D18
:101D2000211D822F762F6A2F11249F5750408AF051
:101D3000E1F088234AF0EE0FFF1FBB1F661F771FDD
:101D4000881F91505040A9F79E3F510570F05CCF1D
:101D5000A6CF5F3FECF3983EDCF3869577956795C9
:101D6000B795F795E7959F5FC1F7FE2B880F911DFB
:101D70009695879597F9089523DF880B990B089519
:101D8000DB018F939F930E94250FBF91AF91A29F7C
:101D9000800D911DA39F900DB29F900D1124089569
:101DA00097FB072E16F4009407D077FD09D00E9408
:101DB000300F07FC05D03EF4909581959F4F089514
:101DC000709561957F4F0895A1E21A2EAA1BBB1B47
:101DD000FD010DC0AA1FBB1FEE1FFF1FA217B307F7
:101DE000E407F50720F0A21BB30BE40BF50B661F0D
:101DF000771F881F991F1A9469F7609570958095D1
:101E000090959B01AC01BD01CF010895052E97FB74
:101E10001EF400940E941D0F57FD07D00E94E40E8F
:101E200007FC03D04EF40C941D0F5095409530954F
:101E300021953F4F4F4F5F4F089590958095709536
:101E400061957F4F8F4F9F4F08950E944A0FA59F26
:101E5000900DB49F900DA49F800D911D11240895A5
:101E6000AA1BBB1B51E107C0AA1FBB1FA617B707C0
:101E700010F0A61BB70B881F991F5A95A9F78095DC
:101E80009095BC01CD010895EE0FFF1F0590F491D0
:101E9000E02D0994A29FB001B39FC001A39F700DD4
:101EA000811D1124911DB29F700D811D1124911D62
:101EB0000895A6E1B0E044E050E00C946E0F242FAA
:101EC0000E947D0F252F0E947D0F0C94670F0E94AA
:101ED0007C0F272F0C947D0FDC01CB01FC01F999BD
:101EE000FECF06C0F2BDE1BDF89A319600B40D9266
:101EF00041505040B8F70895262FF999FECF1FBAE8
:101F000092BD81BD20BD0FB6F894FA9AF99A0FBE22
:081F100001960895F894FFCF3B
:101F180001000000010001000F0020010100000085
:101F28000030015D0A303132333435363738390004
:101F3800332E302E300000000000E1085D0A6308EF
:101F48007C086E08BF080D0A006E616E00696E6637
:081F5800006F7666002E000008
:00000001FF
