:100000000C9484000C941B080C94F4070C94AC0022
:100010000C94AC000C94AC000C94AC000C94AC00B0
:100020000C94AC000C94AC000C94AC000C94AC00A0
:100030000C94AC000C94AC000C94AC000C94AC0090
:100040000C94AA070C94AC000C9468080C94420819
:100050000C94AC000C94AC000C94AC000C94AC0070
:100060000C94AC000C94AC004E455854204C4F43BB
:100070003A20005345433A2000484F5552533A2006
:100080000052504D3A20002020205350494E00206D
:10009000202020504C59004669726D7761726520AE
:1000A00000576F6F4C656520416E6E0000000000C8
:1000B000240027002A0000000000250028002B0053
:1000C00000000000230026002900040404040404A6
:1000D00004040202020202020303030303030102F7
:1000E00004081020408001020408102001020408C6
:1000F00010200000000800020100000304070000B7
:100100000000000000009A0811241FBECFEFD8E0C5
:10011000DEBFCDBF11E0A0E0B1E0E4E2F0E202C05A
:1001200005900D92A435B107D9F722E0A4E5B1E01E
:1001300001C01D92A43AB207E1F710E0C4E8D0E094
:1001400004C02197FE010E940A10C338D107C9F7E5
:100150000E94E6090C9410100C940000FC014283EC
:1001600053836483758386819781A085B185840FCD
:10017000951FA61FB71F82879387A487B587089509
:10018000CF93DF93A3E2B2E0FD01C191D19120971B
:1001900041F049895A89EC0129893A894217530764
:1001A000D1F0D2E0E134FD0781F730E020E04D915D
:1001B0005D91452B91F4220F331FF901E05FFD4F54
:1001C000948B838B8091410290914202019690938F
:1001D00042028093410281E006C02F5F3F4F2F30E3
:1001E000310529F780E0DF91CF910895833081F0C8
:1001F00028F4813099F08230A9F008958730A9F071
:100200008830C9F08430B1F4809180008F7D03C0C4
:10021000809180008F7780938000089584B58F77D8
:1002200084BD089584B58F7DFBCF8091B0008F771A
:100230008093B00008958091B0008F7DF9CFCF9367
:10024000DF93282F30E0F901EE50FF4F8491F90140
:10025000E252FF4FD491F901E653FF4FC491CC23F2
:10026000A1F081110E94F600EC2FF0E0EE0FFF1FCD
:10027000E054FF4FA591B491EC91ED2381E090E023
:1002800009F480E0DF91CF91089580E090E0FACF0B
:100290001F93CF93DF93282F30E0F901EE50FF4FEB
:1002A0008491F901E252FF4FD491F901E653FF4FD7
:1002B000C491CC23A9F0162F81110E94F600EC2FD7
:1002C000F0E0EE0FFF1FEA54FF4FA591B4918FB7F6
:1002D000F894EC91111108C0D095DE23DC938FBF08
:1002E000DF91CF911F910895DE2BF8CFCF93DF934D
:1002F00090E0FC01E252FF4F249186539F4FFC0196
:1003000084918823D1F090E0880F991FFC01E45577
:10031000FF4FA591B491FC01EA54FF4FC591D491D0
:10032000623071F49FB7F8943C91822F80958323BB
:100330008C93E8812E2B28839FBFDF91CF91089566
:100340008FB7F894EC912E2B2C938FBFF6CF8E3075
:1003500008F08E508770806480937C0080917A00D2
:10036000806480937A0080917A0086FDFCCF809132
:1003700078009091790008953FB7F89480916F01CB
:1003800090917001A0917101B091720126B5A89B66
:1003900005C02F3F19F00196A11DB11D3FBFBA2F17
:1003A000A92F982F8827BC01CD01620F711D811DD7
:1003B000911D42E0660F771F881F991F4A95D1F75C
:1003C00008958F929F92AF92BF92CF92DF92EF9259
:1003D000FF926B017C010E94BC014B015C01C114C6
:1003E000D104E104F104B9F00E94BC016819790953
:1003F0008A099B09683E73408105910580F321E0DD
:10040000C21AD108E108F10888EE880E83E0981E30
:10041000A11CB11CE4CFFF90EF90DF90CF90BF9074
:10042000AF909F908F9008952FB7F89460916B01D3
:1004300070916C0180916D0190916E012FBF0895B4
:1004400080915C0190915D01019690935D01809394
:100450005C0108950895AF92BF92CF92DF92EF9220
:10046000FF920F931F93CF93DF936C017B018B015E
:10047000040F151FEB015E01AE18BF08C017D107AE
:1004800059F06991D601ED91FC910190F081E02D38
:10049000C6010995892B79F7C501DF91CF911F918D
:1004A0000F91FF90EF90DF90CF90BF90AF900895A5
:1004B000FC01538D448D252F30E0842F90E0821B6A
:1004C000930B541710F0CF96089501970895FC01EF
:1004D000918D828D981761F0A28DAE0FBF2FB11D47
:1004E0005D968C91928D9F5F9F73928F90E008959F
:1004F0008FEF9FEF0895FC01918D828D981731F059
:10050000828DE80FF11D858D90E008958FEF9FEFAC
:100510000895FC01918D228D892F90E0805C9F4F82
:10052000821B91098F739927089583E791E00E94B8
:10053000890221E0892B09F420E0822F089580E0D0
:1005400090E0892B29F00E94950281110C94000003
:100550000895FC01A48DA80FB92FB11DA35ABF4F58
:100560002C91848D90E001968F739927848FA689B2
:10057000B7892C93A089B1898C91837080648C9306
:10058000938D848D981306C00288F389E02D8081B5
:100590008F7D80830895EF92FF920F931F93CF93E7
:1005A000DF93EC0181E0888F9B8D8C8D98131AC0AE
:1005B000E889F989808185FF15C09FB7F894EE8995
:1005C000FF896083E889F9898081837080648083F2
:1005D0009FBF81E090E0DF91CF911F910F91FF903D
:1005E000EF900895F62E0B8D10E00F5F1F4F0F73E5
:1005F0001127E02E8C8D8E110CC00FB607FCFACFA0
:10060000E889F989808185FFF5CFCE010E94A90292
:10061000F1CFEB8DEC0FFD2FF11DE35AFF4FF08270
:100620009FB7F8940B8FEA89FB8980818062CFCFD6
:10063000682F83E791E00C94CB02CF93DF93C82F10
:10064000D62F813009F4C0E48EEF90E00E941803A9
:1006500085E490E00E9418032C2F2D0F3327331FC1
:10066000C9010E94180360E070E0CB01DF91CF91D7
:100670000C94E10160E080E00C941D03CF93C82F3F
:100680008EEF90E00E9418036C2F83E791E00E94A8
:10069000CB0260E070E0CB01CF910C94E101CF93ED
:1006A000DF93EC01888D8823B9F0AA89BB89E8899A
:1006B000F9898C9185FD03C0808186FD0DC00FB640
:1006C00007FCF7CF8C9185FFF2CF808185FFEDCFBE
:1006D000CE010E94A902E9CFDF91CF9108958F92B8
:1006E0009F92AF92BF92CF92DF92EF92FF920F93C1
:1006F0001F93CF93DF93EC01EE85FF85309709F0D0
:1007000009950E9414024B015C018E010D5E1F4F82
:100710006E0121E3C20ED11CF12CE12C89A99AA90A
:100720008E159F0514F1D8018D919D918D01009733
:10073000C9F0BFEFEB1AFB0ADC01ED91FC910280DE
:10074000F381E02DB501A4010995882359F0F80142
:10075000329780819181DC01ED91FC910480F581DB
:10076000E02D0995C016D106C9F60E9414026E83C9
:100770007F83888799870A811B812C813D81DC01D9
:10078000CB01800F911FA21FB31F8A879B87AC8765
:10079000BD87DF91CF911F910F91FF90EF90DF9078
:1007A000CF90BF90AF909F908F9008950F931F931D
:1007B000CF93DF93EC01EE85FF85309709F0099523
:1007C0000E9414026E837F83888799870A811B8128
:1007D0002C813D81DC01CB01800F911FA21FB31F33
:1007E0008A879B87AC87BD87DF91CF911F910F913F
:1007F00008950F931F93FC01028513852485358589
:10080000401B510B620B730B80E077FF80891F91B7
:100810000F91089583E791E00E94CB0260E070E0C1
:10082000CB010E94E10108950F931F93CF93DF93B3
:100830008C01D0E0C0E0F801EC0FFD1F649166234D
:1008400041F08CE792E00E940A04892B11F0219676
:10085000F2CFCE01DF91CF911F910F91089569E002
:1008600080E00E941D038091040190910501019791
:1008700021F487E890E00C9414048FE890E0FBCF1B
:100880000F931F93CF93DF93C0916401D0916501C3
:100890002097B9F400910801109109018091040199
:1008A000909105018017910761F0602F8AE00E9406
:1008B000480110930501009304010E942F04109237
:1008C000680180916601909167018C179D07E4F0A3
:1008D00031E020E0C817D9070CF030E0832F922FC9
:1008E000C80FD91FD0936501C093640161E089E00E
:1008F0000E947601209759F460E089E0DF91CF9162
:100900001F910F910C9448018FEF9FEFE9CFD7FF14
:1009100003C0D195C195D109CF3FD10511F461E054
:10092000ECCFEBEFF0E0E491E33039F140F4E1306B
:10093000B1F0E230E9F0C038D1058CF7DDCFE73017
:1009400031F1E83061F1E430B1F7209180002062AC
:1009500020938000D0938B00C0938A0004C094B58C
:10096000906894BDC7BDDF91CF911F910F910895FD
:1009700094B5906294BDC8BDF6CF209180002068E8
:1009800020938000D0938900C0938800ECCF909191
:10099000B00090689093B000C093B300E4CF909102
:1009A000B00090629093B000C093B400DCCF089583
:1009B00090E080E00895FC01868180FD04C083FB07
:1009C000882780F9089580E00895CF92DF92EF9212
:1009D000FF921F93CF93DF93EC018F810E941F0141
:1009E0001E81212F277F2E831695117021E0892BE0
:1009F00009F420E01217B1F00E9414026883798391
:100A00008A839B838E8192E089278E838E8183FBEC
:100A1000882780F9DF91CF911F91FF90EF90DF90B1
:100A2000CF9008950E941402C880D980EA80FB808C
:100A3000AB01BC014C195D096E097F098C819D8158
:100A4000B0E0A0E0481759076A077B07F8F28E81EB
:100A500081701817D9F20E941402688379838A83FF
:100A60009B838E8191E089278860CFCFCF93DF93DE
:100A7000EC01862F6F831E820E941F01892B11F0CB
:100A800083E08E830E941402688379838A839B8328
:100A9000DF91CF910895FC0101900020E9F7319793
:100AA000AF01481B590BBC018CE792E00C942B0260
:100AB0008F929F92AF92BF920F931F93CF93DF932A
:100AC000CDB7DEB7A1970FB6F894DEBF0FBECDBF8E
:100AD00019A2423008F44AE08E010F5D1F4F842EA8
:100AE000912CB12CA12CA50194010E94570DE62F49
:100AF000B901CA01EA30F4F4E05DD801EE938D014A
:100B0000232B242B252B79F790E080E0109719F008
:100B1000CD010E944B05A1960FB6F894DEBF0FBE23
:100B2000CDBFDF91CF911F910F91BF90AF909F905C
:100B30008F900895E95CE1CF40915E0150915F0193
:100B400060916001709161018091620190916301F7
:100B50000E94020D809162019091630104968115BB
:100B600024E0920728F49093630180936201089532
:100B700010926301109262010895809168018823A8
:100B800001F160915E0170915F018091600190912F
:100B900061016F5F7F4F8F4F9F4F60935E01709336
:100BA0005F0180936001909361012CE330E040E0AD
:100BB00050E00E94570D672B682B692B11F40C94A1
:100BC0009C0508954F925F926F927F928F929F92B1
:100BD000AF92BF92CF92DF92EF92FF920F931F934B
:100BE000CF93DF93809169018823B9F181E50E9459
:100BF0003E030E943A0383E790E00E941404609150
:100C00005E0170915F0180916001909161014AE005
:100C10000E94580560E081E00E941D0388E690E094
:100C20000E9414046091620170916301072E000C10
:100C3000880B990B4AE0DF91CF911F910F91FF90A4
:100C4000EF90DF90CF90BF90AF909F908F907F906C
:100C50006F905F904F900C9458050E94BC014B011F
:100C60005C01C0915C01D0915D0110925D01109218
:100C70005C018091580190915901A0915A01B09165
:100C80005B018092580190925901A0925A01B09252
:100C90005B0188169906AA06BB0608F049C00E94A7
:100CA0002F0460915E0170915F01809160019091CD
:100CB00061010E94A20E20E030E041E655E40E946E
:100CC000FA0D20E030E040E251E40E94590F0E940A
:100CD000730E0E94A20E20E030E040E251E40E9438
:100CE000FA0D6B017C0160E081E00E941D0389E741
:100CF00090E00E941404A7019601C701B6010E946A
:100D0000C60F882309F4C9C082E491E0DF91CF9136
:100D10001F910F91FF90EF90DF90CF90BF90AF9019
:100D20009F908F907F906F905F904F900C944B05A9
:100D3000A5019401281B390B4A0B5B0BCA01B901B1
:100D40000E94A20E9B01AC0160E074E284E799E48A
:100D50000E94FA0D6B017C01BE01DD0F880B990B1F
:100D60000E94A40E20E030E040E451E40E94FA0D1D
:100D70009B01AC01C701B6010E94590F20E030E091
:100D800040E752E40E94590F20E030E040E05FE38A
:100D90000E94590F0E946C0E6B01EB0140905401B0
:100DA00050905501609056017090570120E030E05E
:100DB00040E450E4C301B2010E94F50D1816A4F4FA
:100DC000C301B2010E946C0EC61AD70AD7FE03C037
:100DD000D194C194D10834E0C316D1042CF4C301DA
:100DE000B2010E94730EEB01BE0190E080E00E9410
:100DF000A20E6B017C01C0925401D0925501E09289
:100E00005601F09257010AE010E0C83CD10510F4F9
:100E100005E010E0B80190E080E00E94A20E9B0186
:100E2000AC01C701B6010E94FA0D6B017C0120E004
:100E300030E0A9010E94540F20E030E040E05FE381
:100E400087FD26C0C701B6010E94890D0E946C0E65
:100E5000069FE001079FD00D169FD00D11240E9420
:100E60003A0381E890E00E941404BE0190E080E023
:100E70004AE00E9458058CE391E00E944B05809265
:100E8000580190925901A0925A01B0925B0107CF8C
:100E9000C701B6010E94880DD9CF2FEF3FEF4FE772
:100EA0005FE7C701B6010E94C60F81110DC02FEF89
:100EB0003FEF4FE75FE7C701B6010E94F50D181637
:100EC0001CF486E491E022CF2FEF3FEF4FE75FE481
:100ED000C701B6010E94540F18161CF48AE491E071
:100EE00015CF2FEF3FEF4FE75FECC701B6010E9430
:100EF000F50D87FDF3CF2DEC3CEC4CE45DE3C70131
:100F0000B6010E94890D4B015C010E94730E6B01BA
:100F10007C010E94A20E9B01AC01C501B4010E949C
:100F2000880D4B015C014AE0C701B6010E945805DB
:100F30006EE28CE792E00E940A0420E030E040E29A
:100F400051E4C501B4010E94590F0E94730E90E054
:100F500080E070CE1F920F920FB60F9211242F9344
:100F60003F938F939F93AF93BF9380916B01909129
:100F70006C01A0916D01B0916E0130916A0123E086
:100F8000230F2D3758F50196A11DB11D20936A013D
:100F900080936B0190936C01A0936D01B0936E01EF
:100FA00080916F0190917001A0917101B0917201D7
:100FB0000196A11DB11D80936F0190937001A093C4
:100FC0007101B0937201BF91AF919F918F913F9149
:100FD0002F910F900FBE0F901F90189526E8230FAA
:100FE0000296A11DB11DD2CF1F920F920FB60F9284
:100FF00011242F933F934F935F936F937F938F931E
:101000009F93AF93BF93EF93FF93E0910201F09111
:1010100003010995FF91EF91BF91AF919F918F913E
:101020007F916F915F914F913F912F910F900FBEE4
:101030000F901F9018951F920F920FB60F921124C8
:101040002F933F934F935F936F937F938F939F93D0
:10105000AF93BF93EF93FF93E0910001F0910101F3
:101060000995FF91EF91BF91AF919F918F917F91E2
:101070006F915F914F913F912F910F900FBE0F9005
:101080001F9018951F920F920FB60F9211242F9355
:101090003F934F935F936F937F938F939F93AF9300
:1010A000BF93EF93FF9383E791E00E94A902FF9122
:1010B000EF91BF91AF919F918F917F916F915F91D0
:1010C0004F913F912F910F900FBE0F901F90189549
:1010D0001F920F920FB60F9211242F938F939F930D
:1010E000EF93FF93E0918301F09184018081E0917F
:1010F0008901F0918A0182FD1BC0908180918C0151
:101100008F5F8F7320918D01821741F0E0918C01E8
:10111000F0E0ED58FE4F958F80938C01FF91EF9199
:101120009F918F912F910F900FBE0F901F90189548
:101130008081F4CF109276011092750188EE93E0D1
:10114000A0E0B0E08093770190937801A0937901BB
:10115000B0937A018EE091E09093740180937301D3
:1011600085EC90E09093800180937F0184EC90E087
:10117000909382018093810180EC90E090938401B0
:101180008093830181EC90E09093860180938501A8
:1011900082EC90E0909388018093870186EC90E048
:1011A00090938A018093890110928C0110928D0195
:1011B00010928E0110928F0110929C0210929D024B
:1011C00010929E0210929F028AE090E09093A102FA
:1011D0008093A0021092A2021092A3021092940295
:1011E0001092950210929602109297029093990293
:1011F0008093980210929A0210929B0210928C0295
:1012000010928D0210928E0210928F029093910292
:101210008093900210929202109293021092840294
:101220001092850210928602109287029093890292
:101230008093880210928A0210928B0210927F0291
:1012400010927E0284E391E090937D0280937C0271
:1012500082E090E0909383028093820280E190E0AC
:1012600090938102809380022AE231E030936A02F7
:101270002093690281E080937902109278021092A3
:10128000770210926F021092700210927102109207
:10129000720249E652E050937B0240937A02109228
:1012A0006B0210926C0210926D0210926E021092FC
:1012B00073021092740210927502109276023093AB
:1012C0005702209356028093660210926502109294
:1012D000640210925C0210925D0210925E02109203
:1012E0005F0246E552E05093680240936702109215
:1012F00058021092590210925A0210925B021092F8
:1013000060021092610210926202109263023093A6
:10131000440220934302809353021092520210928F
:1013200051021092490210924A0210924B021092FE
:101330004C0223E432E03093550220935402109281
:1013400045021092460210924702109248021092F3
:101350004D0210924E0210924F0210925002809352
:10136000200210921F0210921E021092160210927A
:101370001702109218021092190280E192E09093E5
:1013800022028093210210921202109213021092F4
:1013900014021092150210921A0210921B0210925F
:1013A0001C0210921D0280E291E090931102809342
:1013B00010021092420210924102E3E2F2E0119216
:1013C000119282E0E134F807D1F70895789484B55A
:1013D000826084BD84B5816084BD85B5826085BD31
:1013E00085B5816085BD80916E00816080936E00BF
:1013F00010928100809181008260809381008091B1
:101400008100816080938100809180008160809361
:1014100080008091B10084608093B1008091B00021
:1014200081608093B00080917A00846080937A001C
:1014300080917A00826080937A0080917A00816046
:1014400080937A0080917A00806880937A0010926D
:10145000C10080918100887F816080938100E0914C
:101460008301F091840182E08083E0917F01F0911B
:1014700080011082E0918101F09182018FEC8083E4
:1014800010928B01E0918701F091880186E08083C2
:10149000E0918501F0918601808180618083E091F7
:1014A0008501F0918601808188608083E0918501CB
:1014B000F0918601808180688083E0918501F091C0
:1014C000860180818F7D808362E081E10E947601C8
:1014D00062E082E00E94760162E083E00E94760191
:1014E00061E08AE00E94760161E089E00E94760175
:1014F00062E08EE00E94760162E08FE00E94760159
:1015000061E082E10E94760161E170E08CE992E0A5
:101510000E943605C4E1D0E0D093A102C093A0029E
:1015200062E070E084E992E00E943605D09399026F
:10153000C09398026EE070E08CE892E00E9436055D
:10154000D0939102C09390026FE070E084E892E043
:101550000E943605D0938902C093880284E992E004
:101560000E94E50460919A026170862F90E090934A
:1015700009018093080190930501809304018AE09A
:101580000E94480180E292E090930301809302015F
:10159000809169008C6080936900E99A10925D01E6
:1015A00010925C0110925E0110925F011092600136
:1015B000109261011092630110926201C091620168
:1015C000D0916301C11524E0D20720F5CE010E941D
:1015D000FC0C00915E0110915F012091600130913F
:1015E00061016017710782079307C0F06F3F2FEF0B
:1015F00072078207920791F060935E0170935F011A
:1016000080936001909361012496D0936301C0930D
:101610006201D4CF109263011092620168EC70E015
:1016200080E090E00E94E10181E40E943E0381E5B8
:101630000E943E038CE40E943E0388E40E943E0325
:101640000E943A038EEF90E00E94180383E590E039
:101650000E94180368E083E791E00E94CB0260E0FB
:1016600070E0CB010E94E1010E943A0381EA90E020
:101670000E94140460E081E00E941D0387E990E06D
:101680000E9414048EE491E00E944B0560ED77E027
:1016900080E090E00E94E10181E50E943E0380919C
:1016A000060190910701092E000CAA0BBB0B809339
:1016B0006B0290936C02A0936D02B0936E02409106
:1016C0006F02509170026091710270917202840FEA
:1016D000951FA61FB71F8093730290937402A09367
:1016E0007502B093760280E494E090937802809340
:1016F0007702C1E0C093790289E692E00E94C000BF
:1017000088EEC82E83E0D82EE12CF12CC09258022E
:10171000D0925902E0925A02F0925B0280915C02F0
:1017200090915D02A0915E02B0915F0288519C4F42
:10173000AF4FBF4F8093600290936102A09362020B
:10174000B093630282EE95E0909365028093640209
:10175000C093660286E592E00E94C000C0924502F6
:10176000D0924602E0924702F092480280914902EC
:1017700090914A02A0914B02B0914C0288519C4F2B
:10178000AF4FBF4F80934D0290934E02A0934F02F4
:10179000B09350028DEB95E09093520280935102EA
:1017A000C093530283E492E00E94C0003324339438
:1017B00097E5892E912CA12CB12C8CE892E00E9407
:1017C000E5048CE892E00E94DB048823C9F0D0E0B5
:1017D000C0E04FEF5FEFBA01CE010E94020D2496E8
:1017E000C11584E0D807A9F7109263011092620135
:1017F00010925E0110925F011092600110926101DF
:1018000084E892E00E94E50484E892E00E94DB0410
:10181000882329F0809169018325809369018CE9EF
:1018200092E00E94E5048CE992E00E94DB048823A8
:1018300089F080916801811106C020916401309186
:101840006501232B39F4832580936801811102C03F
:101850000E949C0584E992E00E94E50480919A022E
:101860008170282E90E09093090180930801809167
:101870006801882309F4BBC005E010E0D0E0C0E0B7
:1018800080E10E94A701C80FD91F01501109C1F7BB
:10189000CE0165E070E00E94DB0F693E93E07907BE
:1018A00014F068EE73E077FF02C070E060E022EFB2
:1018B00030E0DB010E94EF0FA70196010E942D0D81
:1018C000DA01C9010D96A11DB11D222009F486C0BF
:1018D000909367018093660183E10E94A70124E24F
:1018E00030E0DC010E94EF0FA70196010E942D0D50
:1018F00029013A01DA01C9010A96A11DB11D4091E1
:1019000064015091650157FF03C0519541955109FC
:10191000E0916601F0916701F7FF03C0F195E19551
:10192000F109E417F507F4F444365105DCF4052E0B
:10193000000C660B770B9A01AB012D503109410960
:101940005109C301B20164527109810991090E94D0
:10195000CB0FA50194010E942D0DDA01C9018E96CD
:10196000A11DB11D209106013091070128173907EB
:1019700021F19093070180930601092E000CAA0B18
:10198000BB0B80936B0290936C02A0936D02B0939B
:101990006E0240916F0250917002609171027091DD
:1019A0007202840F951FA61FB71F80937302909336
:1019B0007402A0937502B093760280E192E00E94D7
:1019C0006F0380E090E0892B09F4F7CE0E94950226
:1019D000882309F4F2CE0E940000EFCE222733279D
:1019E000281B390B309367012093660175CF109245
:1019F00067011092660170CFA6E1B0E044E050E0CC
:101A00000C94110D242F0E94200D252F0E94200DD3
:101A10000C940A0D0E941F0D272F0C94200DDC0141
:101A2000CB01FC01F999FECF06C0F2BDE1BDF89AE9
:101A3000319600B40D9241505040B8F70895262FCA
:101A4000F999FECF1FBA92BD81BD20BD0FB6F894A3
:101A5000FA9AF99A0FBE01960895052E97FB1EF487
:101A600000940E94440D57FD07D00E94570D07FCBB
:101A700003D04EF40C94440D50954095309521952B
:101A80003F4F4F4F5F4F08959095809570956195AA
:101A90007F4F8F4F9F4F08950E94790DA59F900D06
:101AA000B49F900DA49F800D911D11240895A1E273
:101AB0001A2EAA1BBB1BFD010DC0AA1FBB1FEE1FC8
:101AC000FF1FA217B307E407F50720F0A21BB30B13
:101AD000E40BF50B661F771F881F991F1A9469F78F
:101AE00060957095809590959B01AC01BD01CF01EB
:101AF0000895A29FB001B39FC001A39F700D811DE7
:101B00001124911DB29F700D811D1124911D089506
:101B10005058BB27AA270E94A00D0C941A0F0E94B0
:101B20000C0F38F00E94130F20F039F49F3F19F486
:101B300026F40C94090F0EF4E095E7FB0C94030FC8
:101B4000E92F0E942B0F58F3BA1762077307840717
:101B5000950720F079F4A6F50C944D0F0EF4E0955E
:101B60000B2EBA2FA02D0B01B90190010C01CA0157
:101B7000A0011124FF27591B99F0593F50F4503E02
:101B800068F11A16F040A22F232F342F4427585FF4
:101B9000F3CF469537952795A795F0405395C9F70C
:101BA0007EF41F16BA0B620B730B840BBAF09150C4
:101BB000A1F0FF0FBB1F661F771F881FC2F70EC063
:101BC000BA0F621F731F841F48F487957795679536
:101BD000B795F7959E3F08F0B0CF9395880F08F022
:101BE0009927EE0F9795879508950E94DF0E08F4C8
:101BF00081E008950E940E0E0C941A0F0E94130F9C
:101C000058F00E940C0F40F029F45F3F29F00C942B
:101C1000030F51110C944E0F0C94090F0E942B0FBF
:101C200068F39923B1F3552391F3951B550BBB270B
:101C3000AA2762177307840738F09F5F5F4F220F50
:101C4000331F441FAA1FA9F335D00E2E3AF0E0E847
:101C500032D091505040E695001CCAF72BD0FE2F91
:101C600029D0660F771F881FBB1F26173707480725
:101C7000AB07B0E809F0BB0B802DBF01FF279358DD
:101C80005F4F3AF09E3F510578F00C94030F0C948F
:101C90004E0F5F3FE4F3983ED4F3869577956795B2
:101CA000B795F7959F5FC9F7880F911D9695879512
:101CB00097F90895E1E0660F771F881FBB1F621731
:101CC00073078407BA0720F0621B730B840BBA0BEF
:101CD000EE1F88F7E09508950E94730E6894B11185
:101CE0000C944E0F08950E94330F88F09F5798F080
:101CF000B92F9927B751B0F0E1F0660F771F881F11
:101D0000991F1AF0BA95C9F714C0B13091F00E942A
:101D10004D0FB1E008950C944D0F672F782F882751
:101D2000B85F39F0B93FCCF3869577956795B39551
:101D3000D9F73EF490958095709561957F4F8F4FC0
:101D40009F4F0895E89409C097FB3EF490958095C5
:101D5000709561957F4F8F4F9F4F9923A9F0F92F71
:101D600096E9BB279395F695879577956795B795EF
:101D7000F111F8CFFAF4BB0F11F460FF1BC06F5FD5
:101D80007F4F8F4F9F4F16C0882311F096E911C0E7
:101D9000772321F09EE8872F762F05C0662371F008
:101DA00096E8862F70E060E02AF09A95660F771F1C
:101DB000881FDAF7880F9695879597F90895990FF8
:101DC0000008550FAA0BE0E8FEEF16161706E80705
:101DD000F907C0F012161306E407F50798F0621B26
:101DE000730B840B950B39F40A2661F0232B242BFB
:101DF000252B21F408950A2609F4A140A6958FEF1A
:101E0000811D811D089597F99F6780E870E060E06B
:101E100008959FEF80EC089500240A941616170683
:101E200018060906089500240A94121613061406CB
:101E300005060895092E0394000C11F4882352F02E
:101E4000BB0F40F4BF2B11F460FF04C06F5F7F4FE6
:101E50008F4F9F4F089557FD9058440F551F59F0CD
:101E60005F3F71F04795880F97FB991F61F09F3F87
:101E700079F087950895121613061406551FF2CFB0
:101E80004695F1DF08C0161617061806991FF1CF00
:101E900086957105610508940895E894BB27662727
:101EA0007727CB0197F908950E94DF0E08F48FEF92
:101EB00008950E946C0F0C941A0F0E940C0F38F0BA
:101EC0000E94130F20F0952311F00C94030F0C9433
:101ED000090F11240C944E0F0E942B0F70F3959F45
:101EE000C1F3950F50E0551F629FF001729FBB2711
:101EF000F00DB11D639FAA27F00DB11DAA1F649FAD
:101F00006627B00DA11D661F829F2227B00DA11D5F
:101F1000621F739FB00DA11D621F839FA00D611DE5
:101F2000221F749F3327A00D611D231F849F600D06
:101F3000211D822F762F6A2F11249F5750409AF02F
:101F4000F1F088234AF0EE0FFF1FBB1F661F771FBB
:101F5000881F91505040A9F79E3F510580F00C9486
:101F6000030F0C944E0F5F3FE4F3983ED4F3869535
:101F700077956795B795F795E7959F5FC1F7FE2B26
:101F8000880F911D9695879597F908950E94DF0E09
:101F9000880B990B0895DB018F939F930E944C0D42
:101FA000BF91AF91A29F800D911DA39F900DB29FF5
:101FB000900D1124089597FB072E16F4009407D076
:101FC00077FD09D00E94F60F07FC05D03EF49095EE
:101FD00081959F4F0895709561957F4F08950E9458
:101FE000790DB7FF0895821B930B0895AA1BBB1BA5
:101FF00051E107C0AA1FBB1FA617B70710F0A61B09
:10200000B70B881F991F5A95A9F780959095BC0129
:10201000CD010895EE0FFF1F0590F491E02D099476
:04202000F894FFCF62
:102024002A022A0201000F00010000000000CB0276
:102034002B0258024F03890267027B020000000052
:10204400AE00F9036F0300000000AE00F903D603ED
:10205400000000000A042B02D804D704202020200A
:1020640020006E616E00696E66006F766600342E25
:04207400302E3000DA
:00000001FF
