:100000000C9484000C9466080C943F080C94AC008B
:100010000C94AC000C94AC000C94AC000C94AC00B0
:100020000C94AC000C94AC000C94AC000C94AC00A0
:100030000C94AC000C94AC000C94AC000C94AC0090
:100040000C94F5070C94AC000C94C3070C949D071A
:100050000C94AC000C94AC000C94AC000C94AC0070
:100060000C94AC000C94AC004E455854204C4F43BB
:100070003A20005345433A2000484F5552533A2006
:100080000052504D3A20002020205350494E00206D
:10009000202020504C590000000000240027002A96
:1000A0000000000000250028002B000000000023B5
:1000B00000260029000404040404040404020202CB
:1000C0000202020303030303030102040810204099
:1000D0008001020408102001020408102000000022
:1000E00008000201000003040700000000000000F7
:1000F000004669726D776172652000576F6F4C65BD
:100100006520416E6E008D0811241FBECFEFD8E030
:10011000DEBFCDBF22E0AAE5B1E001C01D92A63A44
:10012000B207E1F711E0A0E0B1E0E2E0F0E202C0E6
:1001300005900D92AA35B107D9F710E0C4E8D0E0D8
:1001400004C02197FE010E94250DC338D107C9F7CD
:100150000E94D9090C94FF0F0C940000FC0142830B
:1001600053836483758386819781A085B185480F09
:10017000591F6A1F7B1F42875387648775870895BD
:100180000F931F93CF93DF938C01C0E0D0E0F80171
:10019000EC0FFD1F6491662371F0E0917E02F091F7
:1001A0007F020190F081E02D8EE792E00995892B86
:1001B00011F02196ECCFCE01DF91CF911F910F91DD
:1001C0000895CF93DF93A5E2B2E0FD01C191D191F3
:1001D000209741F049895A89EC0129893A894217C7
:1001E000530711F1D2E0E334FD0781F720E030E05E
:1001F0004D915D91452B89F4220F331FF901EE5E7D
:10020000FD4F948B838B8091430290914402019621
:10021000909344028093430207C02F5F3F4F2F30DB
:10022000310531F780E001C081E0DF91CF91089581
:100230008091670190916801019690936801809385
:1002400067010895CF92DF92EF92FF920F931F9371
:10025000CF93DF936C017A018B01C0E0D0E0CE1523
:10026000DF0589F0D8016D918D01D601ED91FC91EA
:100270000190F081E02DC6010995892B11F47E01D2
:1002800002C02196ECCFC701DF91CF911F910F9152
:10029000FF90EF90DF90CF900895FC01918D828DBB
:1002A000981761F0828DDF01A80FB11D5D968C91CA
:1002B000928D9F5F9F73928F90E008958FEF9FEFD5
:1002C0000895FC01918D828D981731F0828DE80F91
:1002D000F11D858D90E008958FEF9FEF0895FC014B
:1002E000918D228D892F90E0805C9F4F821B910918
:1002F0008F739927089585E791E00E946F0121E0AF
:10030000892B09F420E0822F0895FC01848DDF0100
:10031000A80FB11DA35ABF4F2C91848D90E0019678
:100320008F739927848FA689B7892C93A089B18967
:100330008C9180648C93938D848D981306C0028871
:10034000F389E02D80818F7D80830895EF92FF9265
:100350000F931F93CF93DF93EC0181E0888F9B8DE8
:100360008C8D981305C0E889F989808185FD24C0AA
:10037000F62E0B8D10E00F5F1F4F0F731127E02E2D
:100380008C8DE8120CC00FB607FCFACFE889F9890A
:10039000808185FFF5CFCE010E948501F1CF8B8D45
:1003A000FE01E80FF11DE35AFF4FF0820B8FEA893F
:1003B000FB898081806207C0EE89FF896083E889BC
:1003C000F98980818064808381E090E0DF91CF9122
:1003D0001F910F91FF90EF900895682F85E791E0AE
:1003E0000C94A601CF93DF93EC01888D8823C9F08C
:1003F000EA89FB89808185FD05C0A889B9898C912E
:1004000086FD0FC00FB607FCF5CF808185FFF2CFC8
:10041000A889B9898C9185FFEDCFCE010E94850115
:10042000E7CFDF91CF91089580E090E0892B29F00C
:100430000E947B0181110C9400000895833081F0AB
:1004400028F4813099F08230A1F008958730A9F026
:100450008830B9F08430D1F4809180008F7D03C062
:10046000809180008F7780938000089584B58F7786
:1004700002C084B58F7D84BD08958091B0008F77D0
:1004800003C08091B0008F7D8093B0000895CF931A
:10049000DF93282F30E0F901E352FF4F8491F901F7
:1004A000E753FF4FD491F901EB54FF4FC491CC2394
:1004B00091F081110E941E02EC2FF0E0EE0FFF1F61
:1004C000E555FF4FA591B491EC91ED2381E090E0CB
:1004D00021F480E002C080E090E0DF91CF910895A8
:1004E0001F93CF93DF93282F30E0F901E352FF4FA2
:1004F0008491F901E753FF4FD491F901EB54FF4F79
:10050000C491CC23C9F0162F81110E941E02EC2F3A
:10051000F0E0EE0FFF1FEF55FF4FA591B4918FB79D
:10052000F894111105C09C91ED2FE095E92302C0CC
:10053000EC91ED2BEC938FBFDF91CF911F9108953C
:10054000CF93DF9390E0FC01E753FF4F2491FC0130
:10055000EB54FF4F8491882361F190E0880F991F3D
:10056000FC01E956FF4FC591D491FC01EF55FF4FB7
:10057000A591B491611109C09FB7F8948881209525
:1005800082238883EC912E230BC0623061F49FB7E5
:10059000F8943881822F809583238883EC912E2BC9
:1005A0002C939FBF06C08FB7F894E8812E2B288329
:1005B0008FBFDF91CF9108958E3008F08E508770F5
:1005C000806480937C0080917A00806480937A00BC
:1005D00080917A0086FDFCCF80917800209179008F
:1005E00090E0922B08953FB7F89480916301909129
:1005F0006401A0916501B091660126B5A89B05C074
:100600002F3F19F00196A11DB11D3FBFBA2FA92F91
:10061000982F8827820F911DA11DB11DBC01CD010E
:1006200042E0660F771F881F991F4A95D1F70895FA
:100630008F929F92AF92BF92CF92DF92EF92FF92F2
:100640006B017C010E94F3024B015C01C114D104D7
:10065000E104F104F1F00E94F302DC01CB018819FE
:100660009909AA09BB09883E9340A105B10570F319
:1006700021E0C21AD108E108F10888EE880E83E073
:10068000981EA11CB11CC114D104E104F10419F796
:10069000DDCFFF90EF90DF90CF90BF90AF909F9015
:1006A0008F9008951F93CF93DF931F92CDB7DEB73E
:1006B000813031F0823031F0833031F414E505C0FF
:1006C00010E403C014E101C010E08EEF90E06983F4
:1006D0000E94ED0185E490E00E94ED016981862F82
:1006E00090E0810F911D0E94ED0160E070E0CB0170
:1006F0000F90DF91CF911F910C94180360E080E080
:100700000C945203CF93DF931F92CDB7DEB7682FBF
:100710008EEF90E069830E94ED01698185E791E0A9
:100720000E94A60160E070E0CB010F90DF91CF91B5
:100730000C9418032FB7F89460915F0170916001D9
:1007400080916101909162012FBF089508958F9269
:100750009F92AF92BF92CF92DF92EF92FF920F9350
:100760001F93CF93DF93EC01EE85FF85309709F05F
:1007700009950E949A034B015C018E016E012EE1E6
:10078000C20ED11CE12CF12C89A99AA98E159F05C6
:1007900024F1D80153968D919C9154970097C1F004
:1007A000BFEFEB1AFB0ADC01ED91FC910280F381B3
:1007B000E02DB501A4010995882351F0F801838942
:1007C0009489DC01ED91FC910480F581E02D09957F
:1007D0000E5F1F4F0C151D05B9F60E949A036E831C
:1007E0007F83888799870A811B812C813D81DC0169
:1007F000CB01800F911FA21FB31F8A879B87AC87F5
:10080000BD87DF91CF911F910F91FF90EF90DF9007
:10081000CF90BF90AF909F908F9008950F931F93AC
:10082000CF93DF93EC01EE85FF85309709F00995B2
:100830000E949A036E837F83888799870A811B8130
:100840002C813D81DC01CB01800F911FA21FB31FC2
:100850008A879B87AC87BD87DF91CF911F910F91CE
:1008600008950F931F93FC01028513852485358518
:10087000401B510B620B730B77FD02C0808901C0D6
:1008800080E01F910F91089569E080E00E9452037B
:100890008091040190910501019719F487E890E097
:1008A00002C08FE890E00C94C000CF93DF9380915A
:1008B0006F0190917001892BB9F4C0910801D0911A
:1008C000090180910401909105018C179D0761F049
:1008D0006C2F8AE00E947002D0930501C09304013E
:1008E0000E94440410927301409171015091720171
:1008F00080916F0190917001481759074CF031E0D9
:1009000020E0841795070CF030E0C32FD22F02C0EF
:10091000CFEFDFEFC80FD91FD0937001C0936F01E5
:10092000D7FF03C0D195C195D10961E089E00E944C
:10093000A002209711F460E004C0CF3FD10531F44C
:1009400061E089E0DF91CF910C947002E6EEF0E077
:10095000E491E330F9F048F4E130B9F0E230A1F588
:1009600084B5806284BDC8BD34C0E730E9F0E830AA
:1009700019F1E43049F58091800080628093800015
:10098000D0938B00C0938A0024C084B5806884BD56
:10099000C7BD1FC080918000806880938000D09385
:1009A0008900C093880015C08091B0008068809352
:1009B000B000C093B3000DC08091B00080628093FE
:1009C000B000C093B40005C0C038D1050CF0B8CF5A
:1009D000B2CFDF91CF91089585E791E00E94A60103
:1009E00060E070E0CB010E9418030895FC0186814D
:1009F00080FD04C083FB882780F9089580E0089576
:100A0000CF92DF92EF92FF921F93CF93DF93EC018F
:100A10008F810E94470211E0892B09F410E08E813A
:100A2000982F977F9E8386958170181751F00E94AA
:100A30009A03688379838A839B839E8182E08927D6
:100A400023C00E949A03C880D980EA80FB80AB0152
:100A5000BC014C195D096E097F098C819D81A0E064
:100A6000B0E0481759076A077B0778F08E818170DC
:100A7000811759F00E949A03688379838A839B8344
:100A80009E8181E0892788608E838E8183FB882701
:100A900080F9DF91CF911F91FF90EF90DF90CF9081
:100AA0000895CF93DF93EC01862F6F831E820E94FF
:100AB0004702892B11F083E08E830E949A0368839A
:100AC00079838A839B83DF91CF910895009769F0A2
:100AD000FC0101900020E9F73197AF01481B590B49
:100AE000BC018EE792E00C94220180E090E0089532
:100AF0008F929F92AF92BF920F931F93CF93DF93EA
:100B0000CDB7DEB7A1970FB6F894DEBF0FBECDBF4D
:100B100019A2423008F44AE08E010F5D1F4F842E67
:100B2000912CA12CB12CA50194010E94CE0FE62F8F
:100B3000B901CA0101501109EA3014F4E05D01C0A5
:100B4000E95CD801EC93232B242B252B61F7C801FA
:100B50000E946605A1960FB6F894DEBF0FBECDBF0A
:100B6000DF91CF911F910F91BF90AF909F908F9089
:100B700008954091690150916A0160916B017091F3
:100B80006C0180916D0190916E010E94790F8091AE
:100B90006D0190916E010496811524E0920728F46E
:100BA00090936E0180936D01089510926E011092E2
:100BB0006D01089580917301882311F1809169017D
:100BC00090916A01A0916B01B0916C01BC01CD01C3
:100BD0006F5F7F4F8F4F9F4F6093690170936A01E2
:100BE00080936B0190936C012CE330E040E050E087
:100BF0000E94CE0F672B682B692B11F40C94B9055A
:100C000008950E946E0F4F925F926F927F928F9223
:100C10009F92AF92BF92CF92DF92EF92FF920F938B
:100C20001F93CF93DF9300D000D01F92CDB7DEB7D4
:100C300080917401882329F181E50E9482030E943A
:100C40007E0383E790E00E94C0006091690170918B
:100C50006A0180916B0190916C014AE00E947805D5
:100C600060E081E00E94520388E690E00E94C000AC
:100C700060916D0170916E01072E000C880B990B2D
:100C800043C10E949A036B017C018091670190919E
:100C9000680110926801109267012CE3289FB0014F
:100CA000299F700D1124072E000C880B990B0E94B0
:100CB000470E20E030E040E85EE30E94FC0E4B016E
:100CC0005C0180915A0190915B019601281B390BC0
:100CD000B90180E090E00E94450E9B01AC0160E00C
:100CE00070E08AE794E40E949D0D9B01AC01C50170
:100CF000B4010E94FC0E4B015C010E947E0381E85E
:100D000090E00E94C00020E030E040E05FE3C501D9
:100D1000B4010E94FC0E0E940F0ECB01FE01319621
:100D200020E030E09E2E4F2F5AE0A52EB12C60E23D
:100D3000862E8F010F5F1F4F2115310511F000978F
:100D400051F0B5010E94F60CDC01A85BBE4F8C91FE
:100D50008083CB0101C080822F5F3F4F243031055B
:100D600011F0F801E6CFD8011C92A92DB42FAE17CF
:100D7000BF0730F480819C9190838D933197F7CF9A
:100D8000892D942F0E946605C0925A01D0925B0172
:100D9000E0925C01F0925D010E944404609169015F
:100DA00070916A0180916B0190916C010E94450ED7
:100DB00020E030E041E655E40E949D0D20E030E067
:100DC00040E251E40E94FC0E0E940F0E072E000C20
:100DD000880B990B0E94470E20E030E040E251E47E
:100DE0000E949D0D6B017C014B015C0160E081E084
:100DF0000E94520389E790E00E94C000A70196017B
:100E0000C701B6010E94690F882319F08AE391E0B7
:100E100027C026013701E89477F82FEF3FEF4FE71F
:100E20005FE7C301B2010E94690F81110DC02FEF6E
:100E30003FEF4FE75FE7C301B2010E94980D18161C
:100E40001CF48EE391E00CC02FEF3FEF4FE75FE41F
:100E5000C701B6010E94F70E18162CF482E491E047
:100E60000E94660554C02FEF3FEF4FE75FECC701CC
:100E7000B6010E94980D87FDF1CF20E030E0A90176
:100E8000C701B6010E94980D87FF11C0E0917E0254
:100E9000F0917F020190F081E02D6DE28EE792E00B
:100EA000099546015701B7FAB094B7F8B0942DEC04
:100EB0003CEC4CE45DE3C501B4010E942C0D4B01F8
:100EC0005C010E94160E6B017C010E94450E9B0185
:100ED000AC01C501B4010E942B0D4B015C014AE03D
:100EE000C701B6010E94780586E491E00E9466057C
:100EF00020E030E040E251E4C501B4010E94FC0E64
:100F00000E94160E80E090E04AE00E9478050F9063
:100F10000F900F900F900F90DF91CF911F910F9135
:100F2000FF90EF90DF90CF90BF90AF909F908F9009
:100F30007F906F905F904F9008951F920F920FB621
:100F40000F9211242F933F934F935F936F937F934F
:100F50008F939F93AF93BF93EF93FF9385E791E0B8
:100F60000E948501FF91EF91BF91AF919F918F9169
:100F70007F916F915F914F913F912F910F900FBE95
:100F80000F901F9018951F920F920FB60F92112479
:100F90002F938F939F93EF93FF93E0918501F091AF
:100FA00086018081E0918B01F0918C0182FD12C05D
:100FB000908180918E018F5F8F7320918F018217B6
:100FC00051F0E0918E01F0E0EB58FE4F958F809349
:100FD0008E0101C08081FF91EF919F918F912F91A0
:100FE0000F900FBE0F901F9018951F920F920FB683
:100FF0000F9211242F933F938F939F93AF93BF939F
:1010000080915F0190916001A0916101B0916201B6
:1010100030915E0123E0230F2D3720F40196A11DAE
:10102000B11D05C026E8230F0296A11DB11D209316
:101030005E0180935F0190936001A0936101B09382
:1010400062018091630190916401A0916501B0916A
:1010500066010196A11DB11D809363019093640107
:10106000A0936501B0936601BF91AF919F918F915D
:101070003F912F910F900FBE0F901F9018951F92C8
:101080000F920FB60F9211242F933F934F935F93BC
:101090006F937F938F939F93AF93BF93EF93FF9340
:1010A000E0910201F09103010995FF91EF91BF9149
:1010B000AF919F918F917F916F915F914F913F91F0
:1010C0002F910F900FBE0F901F9018951F920F92A7
:1010D0000FB60F9211242F933F934F935F936F930B
:1010E0007F938F939F93AF93BF93EF93FF93E09181
:1010F0000001F09101010995FF91EF91BF91AF912E
:101100009F918F917F916F915F914F913F912F911F
:101110000F900FBE0F901F901895109278011092AB
:10112000770188EE93E0A0E0B0E08093790190939E
:101130007A01A0937B01B0937C0182E191E09093CE
:1011400076018093750185EC90E090938201809305
:10115000810184EC90E0909384018093830180EC82
:1011600090E0909386018093850181EC90E09093CC
:1011700088018093870182EC90E090938A018093AC
:10118000890186EC90E090938C0180938B01109202
:101190008E0110928F011092900110929101109285
:1011A0009E0210929F021092A0021092A1028AE069
:1011B00090E09093A3028093A2021092A402109256
:1011C000A502109296021092970210929802109225
:1011D000990290939B0280939A0210929C02109223
:1011E0009D0210928E0210928F0210929002109225
:1011F0009102909393028093920210929402109223
:101200009502109286021092870210928802109224
:10121000890290938B0280938A0210928C02109222
:101220008D02109281021092800286E391E09093E9
:101230007F0280937E0282E090E09093850280930B
:10124000840280E190E090938302809382022CE2FA
:1012500031E030936C0220936B0281E080937B023B
:1012600010927A0210927902109275021092760210
:10127000109277021092780210927102109272020C
:1012800010927302109274024BE652E050937D026A
:1012900040937C0210926D0210926E0210926F02C7
:1012A0001092700230935902209358028093680282
:1012B000109267021092660210926202109263020C
:1012C000109264021092650210925E0210925F0208
:1012D000109260021092610248E552E050936A0257
:1012E0004093690210925A0210925B0210925C02C3
:1012F00010925D023093460220934502809355027E
:10130000109254021092530210924F021092500207
:10131000109251021092520210924B0210924C0203
:1013200010924D0210924E0225E432E030935702A3
:1013300020935602109247021092480210924902DE
:1013400010924A02809322021092210210922002EF
:1013500010921C0210921D0210921E0210921F0287
:10136000109218021092190210921A0210921B0287
:1013700082E192E09093240280932302109214025F
:1013800010921502109216021092170282E291E05A
:10139000909313028093120210924402109243021F
:1013A000E5E2F2E01192119282E0E334F807D1F71E
:1013B0000895789484B5826084BD84B5816084BDCD
:1013C00085B5826085BD85B5816085BD80916E00E3
:1013D000816080936E001092810080918100826014
:1013E0008093810080918100816080938100809151
:1013F00080008160809380008091B1008460809340
:10140000B1008091B00081608093B00080917A003B
:10141000846080937A0080917A00826080937A0061
:1014200080917A00816080937A0080917A00806850
:1014300080937A001092C10080918100887F816042
:1014400080938100E0918501F091860182E08083A4
:10145000E0918101F09182011082E0918301F0918D
:1014600084018FEC808310928D01E0918901F091CD
:101470008A0186E08083E0918701F0918801808174
:1014800080618083E0918701F0918801808188608C
:101490008083E0918701F09188018081806880835A
:1014A000E0918701F091880180818F7D808362E0E7
:1014B00081E10E94A00262E082E00E94A00262E05C
:1014C00083E00E94A00261E08AE00E94A00261E045
:1014D00089E00E94A00262E08EE00E94A00262E029
:1014E0008FE00E94A00261E082E10E94A00261E11F
:1014F00070E08EE992E00E945105C4E1D0E0D09303
:10150000A302C093A20262E070E086E992E00E942A
:101510005105D0939B02C0939A026EE070E08EE872
:1015200092E00E945105D0939302C09392026FE023
:1015300070E086E892E00E945105D0938B02C09340
:101540008A0286E992E00E94000560919C02617027
:10155000862F90E0909309018093080190930501F4
:10156000809304018AE00E94700288E191E09093E8
:10157000030180930201809169008C60809369006F
:10158000E99A109268011092670110926901109215
:101590006A0110926B0110926C0110926E01109210
:1015A0006D01C0916D01D0916E01C11584E0D80725
:1015B00020F5CE010E94730F0091690110916A011C
:1015C00020916B0130916C016017710782079307BE
:1015D000C0F06F3F2FEF72078207920791F0609380
:1015E000690170936A0180936B0190936C0124965A
:1015F000D0936E01C0936D01D4CF10926E01109202
:101600006D0168EC70E080E090E00E94180381E4D6
:101610000E94820381E50E9482038CE40E9482037F
:1016200088E40E9482030E947E038EEF90E00E9475
:10163000ED0183E590E00E94ED0168E085E791E02F
:101640000E94A60160E070E0CB010E9418030E9496
:101650007E038BEF90E00E94C00060E081E00E947A
:10166000520381EF90E00E94C00083E591E00E9468
:10167000660560ED77E080E090E00E94180381E568
:101680000E9482038091060190910701092E000CAF
:10169000AA0BBB0B80936D0290936E02A0936F0216
:1016A000B093700240917102509172026091730286
:1016B00070917402840F951FA61FB71F8093750247
:1016C00090937602A0937702B093780285E594E038
:1016D00090937A0280937902C1E0C0937B028BE6FB
:1016E00092E00E94E10098EEC92E93E0D92EE12C01
:1016F000F12CC0925A02D0925B02E0925C02F0920E
:101700005D0280915E0290915F02A0916002B091B3
:10171000610288519C4FAF4FBF4F809362029093FC
:101720006302A0936402B093650283E096E0909315
:10173000670280936602C093680288E592E00E9487
:10174000E100C0924702D0924802E0924902F09232
:101750004A0280914B0290914C02A0914D02B091AF
:101760004E0288519C4FAF4FBF4F80934F029093D2
:101770005002A0935102B09352028AED95E09093EB
:10178000540280935302C093550285E492E00E9474
:10179000E1003324339405E010E02AE4822E912CFA
:1017A000A12CB12C8EE892E00E9400058EE892E018
:1017B0000E94F6048823C9F0C0E0D0E04FEF5FEF4D
:1017C000BA01CE010E94790F2496C11524E0D207F8
:1017D000A9F710926E0110926D011092690110929A
:1017E0006A0110926B0110926C0186E892E00E94EF
:1017F000000586E892E00E94F604882329F0809193
:1018000074018325809374018EE992E00E940005A3
:101810008EE992E00E94F604882389F0809173019A
:10182000811106C020916F0130917001232B39F492
:10183000832580937301811102C00E94B90586E956
:1018400092E00E94000580919C028170482E90E0F9
:101850009093090180930801809173018823D1F14D
:1018600085E0682E712CC0E0D0E080E10E94DC02AF
:10187000C80FD91F81E0681A7108B9F7CE01B80105
:101880000E94F60C693E23E0720714F068EE73E0E4
:10189000DB0177FF02C0A0E0B0E025EE30E00E945F
:1018A0000A0DA70196010E94A40FDA01C9014A9608
:1018B000A11DB11D442029F0909372018093710104
:1018C0000DC022273327281B390B30937201209338
:1018D000710104C0109272011092710183E10E94A3
:1018E000DC0224E230E0DC010E940A0DA70196012F
:1018F0000E94A40F29013A01DA01C9010A96A11D2B
:10190000B11D40916F015091700157FF03C0519577
:1019100041955109E0917101F0917201F7FF03C007
:10192000F195E195F109E417F507F4F44436510512
:10193000DCF4CA01550FAA0BBB0B9C01AD012A5167
:10194000310941095109C301B20164527109810988
:1019500091090E94E60CA50194010E94A40FDA01EE
:10196000C9018E96A11DB11D20910601309107017C
:101970008217930721F19093070180930601092EA6
:10198000000CAA0BBB0B80936D0290936E02A09388
:101990006F02B09370024091710250917202609197
:1019A000730270917402840F951FA61FB71F809356
:1019B000750290937602A0937702B093780282E149
:1019C00092E00E94A7030E941402ECCEDB018F93E9
:1019D0009F930E94C30FBF91AF91A29F800D911D55
:1019E000A39F900DB29F900D1124089597FB072E91
:1019F00016F4009407D077FD09D00E94110D07FC62
:101A000005D03EF4909581959F4F0895709561950E
:101A10007F4F08950E94F00FB7FF0895821B930B2C
:101A20000895AA1BBB1B51E107C0AA1FBB1FA61725
:101A3000B70710F0A61BB70B881F991F5A95A9F777
:101A400080959095BC01CD010895EE0FFF1F059084
:101A5000F491E02D09945058BB27AA270E94430D0A
:101A60000C94BD0E0E94AF0E38F00E94B60E20F00E
:101A700039F49F3F19F426F40C94AC0E0EF4E09563
:101A8000E7FB0C94A60EE92F0E94CE0E58F3BA176E
:101A9000620773078407950720F079F4A6F50C9484
:101AA000F00E0EF4E0950B2EBA2FA02D0B01B9010C
:101AB00090010C01CA01A0011124FF27591B99F0C4
:101AC000593F50F4503E68F11A16F040A22F232FD0
:101AD000342F4427585FF3CF469537952795A79520
:101AE000F0405395C9F77EF41F16BA0B620B730BC7
:101AF000840BBAF09150A1F0FF0FBB1F661F771F38
:101B0000881FC2F70EC0BA0F621F731F841F48F4EC
:101B1000879577956795B795F7959E3F08F0B0CF75
:101B20009395880F08F09927EE0F9795879508955C
:101B30000E94820E08F481E008950E94B10D0C9479
:101B4000BD0E0E94B60E58F00E94AF0E40F029F470
:101B50005F3F29F00C94A60E51110C94F10E0C94D9
:101B6000AC0E0E94CE0E68F39923B1F3552391F386
:101B7000951B550BBB27AA2762177307840738F0FC
:101B80009F5F5F4F220F331F441FAA1FA9F335D059
:101B90000E2E3AF0E0E832D091505040E695001C0D
:101BA000CAF72BD0FE2F29D0660F771F881FBB1FC7
:101BB000261737074807AB07B0E809F0BB0B802DA5
:101BC000BF01FF2793585F4F3AF09E3F510578F0D1
:101BD0000C94A60E0C94F10E5F3FE4F3983ED4F300
:101BE000869577956795B795F7959F5FC9F7880FA5
:101BF000911D9695879597F90895E1E0660F771FF7
:101C0000881FBB1F621773078407BA0720F0621B87
:101C1000730B840BBA0BEE1F88F7E09508950E94B2
:101C2000160E6894B1110C94F10E08950E94D60E10
:101C300088F09F5798F0B92F9927B751B0F0E1F08D
:101C4000660F771F881F991F1AF0BA95C9F714C03D
:101C5000B13091F00E94F00EB1E008950C94F00EB6
:101C6000672F782F8827B85F39F0B93FCCF3869576
:101C700077956795B395D9F73EF4909580957095D3
:101C800061957F4F8F4F9F4F0895E89409C097FB50
:101C90003EF490958095709561957F4F8F4F9F4F43
:101CA0009923A9F0F92F96E9BB279395F695879587
:101CB00077956795B795F111F8CFFAF4BB0F11F44A
:101CC00060FF1BC06F5F7F4F8F4F9F4F16C08823F1
:101CD00011F096E911C0772321F09EE8872F762F27
:101CE00005C0662371F096E8862F70E060E02AF068
:101CF0009A95660F771F881FDAF7880F9695879554
:101D000097F90895990F0008550FAA0BE0E8FEEF28
:101D100016161706E807F907C0F012161306E407AF
:101D2000F50798F0621B730B840B950B39F40A26A8
:101D300061F0232B242B252B21F408950A2609F486
:101D4000A140A6958FEF811D811D089597F99F678A
:101D500080E870E060E008959FEF80EC0895002433
:101D60000A941616170618060906089500240A9400
:101D700012161306140605060895092E0394000C86
:101D800011F4882352F0BB0F40F4BF2B11F460FF15
:101D900004C06F5F7F4F8F4F9F4F089557FD90583E
:101DA000440F551F59F05F3F71F04795880F97FB1F
:101DB000991F61F09F3F79F08795089512161306D9
:101DC0001406551FF2CF4695F1DF08C01616170608
:101DD0001806991FF1CF869571056105089408953D
:101DE000E894BB2766277727CB0197F908950E94CF
:101DF000820E08F48FEF08950E940F0F0C94BD0E11
:101E00000E94AF0E38F00E94B60E20F0952311F01C
:101E10000C94A60E0C94AC0E11240C94F10E0E949E
:101E2000CE0E70F3959FC1F3950F50E0551F629F42
:101E3000F001729FBB27F00DB11D639FAA27F00D23
:101E4000B11DAA1F649F6627B00DA11D661F829F4A
:101E50002227B00DA11D621F739FB00DA11D621F2F
:101E6000839FA00D611D221F749F3327A00D611D4C
:101E7000231F849F600D211D822F762F6A2F11242E
:101E80009F5750409AF0F1F088234AF0EE0FFF1F61
:101E9000BB1F661F771F881F91505040A9F79E3FB8
:101EA000510580F00C94A60E0C94F10E5F3FE4F304
:101EB000983ED4F3869577956795B795F795E7950E
:101EC0009F5FC1F7FE2B880F911D9695879597F917
:101ED00008950E94820E880B990B089581E090E08E
:101EE000F8940C94FF0FA6E1B0E044E050E00C94AD
:101EF000880F242F0E94970F252F0E94970F0C9474
:101F0000810F0E94960F272F0C94970FDC01CB01B5
:101F1000FC01F999FECF06C0F2BDE1BDF89A3196F9
:101F200000B40D9241505040B8F70895262FF9990A
:101F3000FECF1FBA92BD81BD20BD0FB6F894FA9AAC
:101F4000F99A0FBE01960895052E97FB1EF4009492
:101F50000E94BB0F57FD07D00E94CE0F07FC03D095
:101F60004EF40C94BB0F50954095309521953F4F02
:101F70004F4F5F4F089590958095709561957F4F75
:101F80008F4F9F4F08950E94F00FA59F900DB49F13
:101F9000900DA49F800D911D11240895A1E21A2E89
:101FA000AA1BBB1BFD010DC0AA1FBB1FEE1FFF1FFD
:101FB000A217B307E407F50720F0A21BB30BE40B4D
:101FC000F50B661F771F881F991F1A9469F7609594
:101FD0007095809590959B01AC01BD01CF0108954E
:101FE000A29FB001B39FC001A39F700D811D11245A
:101FF000911DB29F700D811D1124911D0895F894BB
:02200000FFCF10
:10200200A603A60301000F0001000100000000006A
:102012000000A60122016F014D016101F2010000E1
:102022000000AE003104A70300000000AE0031043E
:102032000E0400000000EC0422016E616E00696E65
:1020420066006F7666002E00303132333435363713
:0A205200383900332E312E32000021
:00000001FF
