:100000000C9482000C9464080C943D080C94AA0093
:100010000C94AA000C94AA000C94AA000C94AA00B8
:100020000C94AA000C94AA000C94AA000C94AA00A8
:100030000C94AA000C94AA000C94AA000C94AA0098
:100040000C94F3070C94AA000C94C1070C949B0722
:100050000C94AA000C94AA000C94AA000C94AA0078
:100060000C94AA000C94AA004C4F433A200053452C
:10007000433A2000484F5552533A200052504D3ACF
:1000800020002020205350494E0020202020504C9A
:10009000590000000000240027002A000000000092
:1000A000250028002B000000000023002600290066
:1000B000040404040404040402020202020203030E
:1000C0000303030301020408102040800102040816
:1000D00010200102040810200000000800020100A6
:1000E0000003040700000000000000004669726D74
:1000F000776172652000576F6F4C656520416E6EA9
:1001000000008B0811241FBECFEFD8E0DEBFCDBFAB
:1001100022E0AAE5B1E001C01D92A63AB207E1F7DC
:1001200011E0A0E0B1E0E8E1F0E202C005900D923C
:10013000AA35B107D9F710E0C2E8D0E004C0219792
:10014000FE010E94300DC138D107C9F70E94D709BE
:100150000C940A100C940000FC01428353836483C6
:10016000758386819781A085B185480F591F6A1FC5
:100170007B1F428753876487758708950F931F936A
:10018000CF93DF938C01C0E0D0E0F801EC0FFD1FAE
:100190006491662371F0E0917E02F0917F020190FC
:1001A000F081E02D8EE792E00995892B11F02196E0
:1001B000ECCFCE01DF91CF911F910F910895CF9396
:1001C000DF93A5E2B2E0FD01C191D191209741F00A
:1001D00049895A89EC0129893A894217530711F153
:1001E000D2E0E334FD0781F720E030E04D915D91EE
:1001F000452B89F4220F331FF901EE5EFD4F948BDE
:10020000838B809143029091440201969093440223
:100210008093430207C02F5F3F4F2F30310531F7E6
:1002200080E001C081E0DF91CF9108958091670166
:1002300090916801019690936801809367010895F9
:10024000CF92DF92EF92FF920F931F93CF93DF93A2
:100250006C017A018B01C0E0D0E0CE15DF0589F09A
:10026000D8016D918D01D601ED91FC910190F08145
:10027000E02DC6010995892B11F47E0102C021965B
:10028000ECCFC701DF91CF911F910F91FF90EF90BD
:10029000DF90CF900895FC01918D828D981761F0C9
:1002A000828DDF01A80FB11D5D968C91928D9F5FAD
:1002B0009F73928F90E008958FEF9FEF0895FC0158
:1002C000918D828D981731F0828DE80FF11D858D0B
:1002D00090E008958FEF9FEF0895FC01918D228D9E
:1002E000892F90E0805C9F4F821B91098F73992723
:1002F000089585E791E00E946D0121E0892B09F4C2
:1003000020E0822F0895FC01848DDF01A80FB11D2C
:10031000A35ABF4F2C91848D90E001968F7399273B
:10032000848FA689B7892C93A089B1898C91806428
:100330008C93938D848D981306C00288F389E02DE9
:1003400080818F7D80830895EF92FF920F931F939A
:10035000CF93DF93EC0181E0888F9B8D8C8D981378
:1003600005C0E889F989808185FD24C0F62E0B8DB2
:1003700010E00F5F1F4F0F731127E02E8C8DE812D6
:100380000CC00FB607FCFACFE889F989808185FF98
:10039000F5CFCE010E948301F1CF8B8DFE01E80FD6
:1003A000F11DE35AFF4FF0820B8FEA89FB898081B0
:1003B000806207C0EE89FF896083E889F9898081BE
:1003C0008064808381E090E0DF91CF911F910F9155
:1003D000FF90EF900895682F85E791E00C94A401B9
:1003E000CF93DF93EC01888D8823C9F0EA89FB89DC
:1003F000808185FD05C0A889B9898C9186FD0FC0D3
:100400000FB607FCF5CF808185FFF2CFA889B989A7
:100410008C9185FFEDCFCE010E948301E7CFDF9164
:10042000CF91089580E090E0892B29F00E94790116
:1004300081110C9400000895833081F028F48130FC
:1004400099F08230A1F008958730A9F08830B9F092
:100450008430D1F4809180008F7D03C08091800032
:100460008F7780938000089584B58F7702C084B51C
:100470008F7D84BD08958091B0008F7703C08091F7
:10048000B0008F7D8093B0000895CF93DF93282F25
:1004900030E0F901E852FF4F8491F901EC53FF4F2E
:1004A000D491F901E055FF4FC491CC2391F0811113
:1004B0000E941C02EC2FF0E0EE0FFF1FEA55FF4FE9
:1004C000A591B491EC91ED2381E090E021F480E0DE
:1004D00002C080E090E0DF91CF9108951F93CF9309
:1004E000DF93282F30E0F901E852FF4F8491F901A2
:1004F000EC53FF4FD491F901E055FF4FC491CC2349
:10050000C9F0162F81110E941C02EC2FF0E0EE0FB3
:10051000FF1FE456FF4FA591B4918FB7F8941111C6
:1005200005C09C91ED2FE095E92302C0EC91ED2BE5
:10053000EC938FBFDF91CF911F910895CF93DF93FD
:1005400090E0FC01EC53FF4F2491FC01E055FF4F7C
:100550008491882361F190E0880F991FFC01EE5689
:10056000FF4FC591D491FC01E456FF4FA591B49182
:10057000611109C09FB7F8948881209582238883F0
:10058000EC912E230BC0623061F49FB7F894388150
:10059000822F809583238883EC912E2B2C939FBFF1
:1005A00006C08FB7F894E8812E2B28838FBFDF9188
:1005B000CF9108958E3008F08E50877080648093BC
:1005C0007C0080917A00806480937A0080917A0028
:1005D00086FDFCCF809178002091790090E0922BED
:1005E00008953FB7F8948091630190916401A091C0
:1005F0006501B091660126B5A89B05C02F3F19F093
:100600000196A11DB11D3FBFBA2FA92F982F882792
:10061000820F911DA11DB11DBC01CD0142E0660FED
:10062000771F881F991F4A95D1F708958F929F923F
:10063000AF92BF92CF92DF92EF92FF926B017C015B
:100640000E94F1024B015C01C114D104E104F104E8
:10065000F1F00E94F102DC01CB0188199909AA0985
:10066000BB09883E9340A105B10570F321E0C21A91
:10067000D108E108F10888EE880E83E0981EA11CDD
:10068000B11CC114D104E104F10419F7DDCFFF90CE
:10069000EF90DF90CF90BF90AF909F908F90089594
:1006A0001F93CF93DF931F92CDB7DEB7813031F028
:1006B000823031F0833031F414E505C010E403C01A
:1006C00014E101C010E08EEF90E069830E94EB011D
:1006D00085E490E00E94EB016981862F90E0810F14
:1006E000911D0E94EB0160E070E0CB010F90DF9163
:1006F000CF911F910C94160360E080E00C9450039E
:10070000CF93DF931F92CDB7DEB7682F8EEF90E0C7
:1007100069830E94EB01698185E791E00E94A40151
:1007200060E070E0CB010F90DF91CF910C94160345
:100730002FB7F89460915F01709160018091610121
:10074000909162012FBF089508958F929F92AF926A
:10075000BF92CF92DF92EF92FF920F931F93CF93AE
:10076000DF93EC01EE85FF85309709F009950E9433
:1007700098034B015C018E016E012EE1C20ED11C6B
:10078000E12CF12C89A99AA98E159F0524F1D80195
:1007900053968D919C9154970097C1F0BFEFEB1A3F
:1007A000FB0ADC01ED91FC910280F381E02DB501A3
:1007B000A4010995882351F0F80183899489DC010B
:1007C000ED91FC910480F581E02D09950E5F1F4F9E
:1007D0000C151D05B9F60E9498036E837F838887E8
:1007E00099870A811B812C813D81DC01CB01800F1F
:1007F000911FA21FB31F8A879B87AC87BD87DF919C
:10080000CF911F910F91FF90EF90DF90CF90BF900D
:10081000AF909F908F9008950F931F93CF93DF9386
:10082000EC01EE85FF85309709F009950E94980349
:100830006E837F83888799870A811B812C813D8104
:10084000DC01CB01800F911FA21FB31F8A879B87FA
:10085000AC87BD87DF91CF911F910F9108950F93C2
:100860001F93FC010285138524853585401B510BA0
:10087000620B730B77FD02C0808901C080E01F917D
:100880000F91089569E080E00E9450038091040177
:1008900090910501019719F482E890E002C08AE87E
:1008A00090E00C94BE00CF93DF9380916F01909104
:1008B0007001892BB9F4C0910801D0910901809190
:1008C0000401909105018C179D0761F06C2F8AE05F
:1008D0000E946E02D0930501C09304010E9442045D
:1008E00010927301409171015091720180916F01DA
:1008F00090917001481759074CF031E020E08417BF
:1009000095070CF030E0C32FD22F02C0CFEFDFEFFE
:10091000C80FD91FD0937001C0936F01D7FF03C0D8
:10092000D195C195D10961E089E00E949E0220978E
:1009300011F460E004C0CF3FD10531F461E089E0FB
:10094000DF91CF910C946E02E1EEF0E0E491E330A0
:10095000F9F048F4E130B9F0E230A1F584B58062F5
:1009600084BDC8BD34C0E730E9F0E83019F1E430A7
:1009700049F580918000806280938000D0938B0045
:10098000C0938A0024C084B5806884BDC7BD1FC0E1
:1009900080918000806880938000D0938900C0930C
:1009A000880015C08091B00080688093B000C0932B
:1009B000B3000DC08091B00080628093B000C093FE
:1009C000B40005C0C038D1050CF0B8CFB2CFDF916C
:1009D000CF91089585E791E00E94A40160E070E066
:1009E000CB010E9416030895FC01868180FD04C09E
:1009F00083FB882780F9089580E00895CF92DF92E5
:100A0000EF92FF921F93CF93DF93EC018F810E94AF
:100A1000450211E0892B09F410E08E81982F977F11
:100A20009E8386958170181751F00E949803688301
:100A300079838A839B839E8182E0892723C00E94D9
:100A40009803C880D980EA80FB80AB01BC014C19B7
:100A50005D096E097F098C819D81A0E0B0E0481797
:100A600059076A077B0778F08E818170811759F0EA
:100A70000E949803688379838A839B839E8181E0A7
:100A8000892788608E838E8183FB882780F9DF9198
:100A9000CF911F91FF90EF90DF90CF900895CF936B
:100AA000DF93EC01862F6F831E820E944502892B03
:100AB00011F083E08E830E949803688379838A8390
:100AC0009B83DF91CF910895009769F0FC0101901D
:100AD0000020E9F73197AF01481B590BBC018EE7A5
:100AE00092E00C94200180E090E008958F929F9214
:100AF000AF92BF920F931F93CF93DF93CDB7DEB723
:100B0000A1970FB6F894DEBF0FBECDBF19A2423039
:100B100008F44AE08E010F5D1F4F842E912CA12C0A
:100B2000B12CA50194010E94D90FE62FB901CA0189
:100B300001501109EA3014F4E05D01C0E95CD8010C
:100B4000EC93232B242B252B61F7C8010E9464050D
:100B5000A1960FB6F894DEBF0FBECDBFDF91CF9147
:100B60001F910F91BF90AF909F908F9008954091EB
:100B7000690150916A0160916B0170916C018091E3
:100B80006D0190916E010E94840F80916D01909192
:100B90006E0104968D3F23E0920728F490936E0136
:100BA00080936D01089510926E0110926D01089569
:100BB00080917301882311F18091690190916A01FC
:100BC000A0916B01B0916C01BC01CD016F5F7F4FB3
:100BD0008F4F9F4F6093690170936A0180936B01FF
:100BE00090936C012CE330E040E050E00E94D90F7C
:100BF000672B682B692B11F40C94B70508950E949C
:100C0000790F4F925F926F927F928F929F92AF92E5
:100C1000BF92CF92DF92EF92FF920F931F93CF93E9
:100C2000DF9300D000D01F92CDB7DEB78091740162
:100C3000882329F181E50E9480030E947C038EE6CF
:100C400090E00E94BE006091690170916A018091FC
:100C50006B0190916C014AE00E94760560E081E0B2
:100C60000E94500388E690E00E94BE0060916D01F2
:100C700070916E01072E000C880B990B43C10E94E6
:100C800098036B017C01809167019091680110923B
:100C90006801109267012CE3289FB001299F700D15
:100CA0001124072E000C880B990B0E94520E20E095
:100CB00030E040E85EE30E94070F4B015C01809149
:100CC0005A0190915B019601281B390BB90180E014
:100CD00090E00E94500E9B01AC0160E070E08AE75A
:100CE00094E40E94A80D9B01AC01C501B4010E94CF
:100CF000070F4B015C010E947C038CE790E00E948F
:100D0000BE0020E030E040E05FE3C501B4010E9496
:100D1000070F0E941A0ECB01FE01319620E030E051
:100D20009E2E4F2F5AE0A52EB12C60E2862E8F0109
:100D30000F5F1F4F2115310511F0009751F0B501DC
:100D40000E94010DDC01A85BBE4F8C918083CB011A
:100D500001C080822F5F3F4F2430310511F0F80130
:100D6000E6CFD8011C92A92DB42FAE17BF0730F4DF
:100D700080819C9190838D933197F7CF892D942F0B
:100D80000E946405C0925A01D0925B01E0925C011E
:100D9000F0925D010E9442046091690170916A01C4
:100DA00080916B0190916C010E94500E20E030E028
:100DB00041E655E40E94A80D20E030E040E251E415
:100DC0000E94070F0E941A0E072E000C880B990B29
:100DD0000E94520E20E030E040E251E40E94A80D53
:100DE0006B017C014B015C0160E081E00E945003DB
:100DF00084E790E00E94BE00A7019601C701B601FA
:100E00000E94740F882319F08AE391E027C026011D
:100E10003701E89477F82FEF3FEF4FE75FE7C30123
:100E2000B2010E94740F81110DC02FEF3FEF4FE709
:100E30005FE7C301B2010E94A30D18161CF48EE3F4
:100E400091E00CC02FEF3FEF4FE75FE4C701B60121
:100E50000E94020F18162CF482E491E00E946405AF
:100E600054C02FEF3FEF4FE75FECC701B6010E9480
:100E7000A30D87FDF1CF20E030E0A901C701B60145
:100E80000E94A30D87FF11C0E0917E02F0917F02C6
:100E90000190F081E02D6DE28EE792E00995460128
:100EA0005701B7FAB094B7F8B0942DEC3CEC4CE491
:100EB0005DE3C501B4010E94370D4B015C010E9446
:100EC000210E6B017C010E94500E9B01AC01C501FB
:100ED000B4010E94360D4B015C014AE0C701B60126
:100EE0000E94760586E491E00E94640520E030E0EF
:100EF00040E251E4C501B4010E94070F0E94210E97
:100F000080E090E04AE00E9476050F900F900F90ED
:100F10000F900F90DF91CF911F910F91FF90EF9065
:100F2000DF90CF90BF90AF909F908F907F906F9009
:100F30005F904F9008951F920F920FB60F92112459
:100F40002F933F934F935F936F937F938F939F93D1
:100F5000AF93BF93EF93FF9385E791E00E948301E6
:100F6000FF91EF91BF91AF919F918F917F916F9181
:100F70005F914F913F912F910F900FBE0F901F9057
:100F800018951F920F920FB60F9211242F938F93E3
:100F90009F93EF93FF93E0918501F091860180810B
:100FA000E0918B01F0918C0182FD12C090818091C3
:100FB0008E018F5F8F7320918F01821751F0E09126
:100FC0008E01F0E0EB58FE4F958F80938E0101C0AB
:100FD0008081FF91EF919F918F912F910F900FBE84
:100FE0000F901F9018951F920F920FB60F92112419
:100FF0002F933F938F939F93AF93BF9380915F0104
:1010000090916001A0916101B091620130915E0107
:1010100023E0230F2D3720F40196A11DB11D05C03B
:1010200026E8230F0296A11DB11D20935E01809337
:101030005F0190936001A0936101B0936201809180
:10104000630190916401A0916501B09166010196E0
:10105000A11DB11D8093630190936401A09365016C
:10106000B0936601BF91AF919F918F913F912F9166
:101070000F900FBE0F901F9018951F920F920FB6F2
:101080000F9211242F933F934F935F936F937F930E
:101090008F939F93AF93BF93EF93FF93E0910201E0
:1010A000F09103010995FF91EF91BF91AF919F914D
:1010B0008F917F916F915F914F913F912F910F9001
:1010C0000FBE0F901F9018951F920F920FB60F92A0
:1010D00011242F933F934F935F936F937F938F933D
:1010E0009F93AF93BF93EF93FF93E0910001F09133
:1010F00001010995FF91EF91BF91AF919F918F9160
:101100007F916F915F914F913F912F910F900FBE03
:101110000F901F901895109278011092770188EE29
:1011200093E0A0E0B0E08093790190937A01A093DE
:101130007B01B0937C0182E191E0909376018093F2
:10114000750185EC90E0909382018093810184EC9D
:1011500090E0909384018093830180EC90E09093E1
:1011600086018093850181EC90E0909388018093C3
:10117000870182EC90E090938A018093890186EC4C
:1011800090E090938C0180938B0110928E011092CD
:101190008F01109290011092910110929E02109274
:1011A0009F021092A0021092A1028AE090E0909318
:1011B000A3028093A2021092A4021092A5021092A0
:1011C00096021092970210929802109299029093B0
:1011D0009B0280939A0210929C0210929D021092A0
:1011E0008E0210928F0210929002109291029093B0
:1011F00093028093920210929402109295021092A0
:1012000086021092870210928802109289029093AF
:101210008B0280938A0210928C0210928D0210929F
:1012200081021092800286E391E090937F02809386
:101230007E0282E090E0909385028093840280E1B8
:1012400090E090938302809382022CE231E030930D
:101250006C0220936B0281E080937B0210927A02F1
:101260001092790210927502109276021092770213
:101270001092780210927102109272021092730210
:10128000109274024BE652E050937D0240937C0230
:1012900010926D0210926E0210926F021092700204
:1012A000309359022093580280936802109267028B
:1012B000109266021092620210926302109264020F
:1012C0001092650210925E0210925F02109260020C
:1012D0001092610248E552E050936A02409369021D
:1012E00010925A0210925B0210925C0210925D0200
:1012F0003093460220934502809355021092540287
:101300001092530210924F0210925002109251020A
:101310001092520210924B0210924C0210924D0207
:1013200010924E0225E432E0309357022093560289
:1013300010924702109248021092490210924A02FB
:1013400080932202109221021092200210921C021D
:1013500010921D0210921E0210921F02109218028B
:101360001092190210921A0210921B0282E192E06E
:10137000909324028093230210921402109215027B
:10138000109216021092170282E291E090931302DB
:10139000809312021092440210924302E5E2F2E0BE
:1013A0001192119282E0E334F807D1F7089578940E
:1013B00084B5826084BD84B5816084BD85B582605A
:1013C00085BD85B5816085BD80916E00816080930B
:1013D0006E00109281008091810082608093810074
:1013E0008091810081608093810080918000816084
:1013F000809380008091B10084608093B1008091DF
:10140000B00081608093B00080917A008460809306
:101410007A0080917A00826080937A0080917A00CD
:10142000816080937A0080917A00806880937A004E
:101430001092C10080918100887F8160809381003B
:10144000E0918501F091860182E08083E091810145
:10145000F09182011082E0918301F09184018FEC80
:10146000808310928D01E0918901F0918A0186E0DC
:101470008083E0918701F091880180818061808381
:10148000E0918701F0918801808188608083E091FC
:101490008701F0918801808180688083E0918701D5
:1014A000F091880180818F7D808362E081E10E94DC
:1014B0009E0262E082E00E949E0262E083E00E945F
:1014C0009E0261E08AE00E949E0261E089E00E9443
:1014D0009E0262E08EE00E949E0262E08FE00E9427
:1014E0009E0261E082E10E949E0261E170E08EE96D
:1014F00092E00E944F05C4E1D0E0D093A302C093D4
:10150000A20262E070E086E992E00E944F05D0936B
:101510009B02C0939A026EE070E08EE892E00E9417
:101520004F05D0939302C09392026FE070E086E87B
:1015300092E00E944F05D0938B02C0938A0286E905
:1015400092E00E94FE0460919C026170862F90E000
:101550009093090180930801909305018093040101
:101560008AE00E946E0286E191E0909303018093ED
:101570000201809169008C6080936900E99A109261
:101580006801109267011092690110926A0110922D
:101590006B0110926C0110926E0110926D01C0915E
:1015A0006D01D0916E01CD3F83E0D80748F5CE01A3
:1015B0000E947E0F0091690110916A0120916B01D8
:1015C00030916C016017710782079307A0F06F3F9D
:1015D0002FEF720782079207F9F060936901709309
:1015E0006A0180936B0190936C012496D0936E01F5
:1015F000C0936D01D4CF6F3F7F4F8F4F9F4F61F0EE
:101600002496D0936E01C0936D01CD3FD34020F05E
:1016100010926E0110926D0168EC70E080E090E035
:101620000E94160381E40E94800381E50E948003EA
:101630008CE40E94800388E40E9480030E947C0363
:101640008EEF90E00E94EB0183E590E00E94EB01B9
:1016500068E085E791E00E94A40160E070E0CB01C2
:101660000E9416030E947C0386EF90E00E94BE0059
:1016700060E081E00E9450038CEE90E00E94BE008A
:1016800083E591E00E94640560ED77E080E090E002
:101690000E94160381E50E948003809106019091CB
:1016A0000701092E000CAA0BBB0B80936D029093CF
:1016B0006E02A0936F02B09370024091710250913C
:1016C00072026091730270917402840F951FA61FBD
:1016D000B71F8093750290937602A0937702B09320
:1016E000780283E594E090937A0280937902C1E0D6
:1016F000C0937B028BE692E00E94DF0098EEC92E39
:1017000093E0D92EE12CF12CC0925A02D0925B02C8
:10171000E0925C02F0925D0280915E0290915F0225
:10172000A0916002B091610288519C4FAF4FBF4FB2
:101730008093620290936302A0936402B093650267
:1017400081E096E09093670280936602C0936802FE
:1017500088E592E00E94DF00C0924702D0924802E2
:10176000E0924902F0924A0280914B0290914C0221
:10177000A0914D02B0914E0288519C4FAF4FBF4F88
:1017800080934F0290935002A0935102B093520263
:1017900088ED95E09093540280935302C0935502D4
:1017A00085E492E00E94DF003324339405E010E0EA
:1017B0002AE4822E912CA12CB12C8EE892E00E947A
:1017C000FE048EE892E00E94F4048823C9F0C0E091
:1017D000D0E04FEF5FEFBA01CE010E94840F249654
:1017E000C11584E0D807A9F710926E0110926D011F
:1017F0001092690110926A0110926B0110926C01B3
:1018000086E892E00E94FE0486E892E00E94F404DA
:10181000882329F0809174018325809374018EE9D7
:1018200092E00E94FE048EE992E00E94F404882374
:1018300089F080917301811106C020916F01309170
:101840007001232B39F4832580937301811102C029
:101850000E94B70586E992E00E94FE0480919C02F6
:101860008170482E90E09093090180930801809147
:1018700073018823D1F185E0682E712CC0E0D0E09F
:1018800080E10E94DA02C80FD91F21E0621A7108B4
:10189000B9F7CE01B8010E94010D693E83E07807D7
:1018A00014F068EE73E0DB0177FF02C0A0E0B0E067
:1018B00025EE30E00E94150DA70196010E94AF0FA2
:1018C000DA01C9014A96A11DB11D442029F0909367
:1018D0007201809371010DC022273327281B390B19
:1018E000309372012093710104C010927201109222
:1018F000710183E10E94DA0224E230E0DC010E94FF
:10190000150DA70196010E94AF0F29013A01DA01D6
:10191000C9010A96A11DB11D40916F01509170013E
:1019200057FF03C0519541955109E0917101F09124
:101930007201F7FF03C0F195E195F109E417F5078E
:10194000F4F444365105DCF4CA01550FAA0BBB0B65
:101950009C01AD012A51310941095109C301B2016C
:1019600064527109810991090E94F10CA501940149
:101970000E94AF0FDA01C9018E96A11DB11D209101
:101980000601309107018217930721F19093070117
:1019900080930601092E000CAA0BBB0B80936D02ED
:1019A00090936E02A0936F02B09370024091710207
:1019B000509172026091730270917402840F951FAE
:1019C000A61FB71F8093750290937602A0937702AB
:1019D000B093780282E192E00E94A5030E94120275
:1019E000ECCEDB018F939F930E94CE0FBF91AF91FE
:1019F000A29F800D911DA39F900DB29F900D112469
:101A0000089597FB072E16F4009407D077FD09D0B0
:101A10000E941C0D07FC05D03EF4909581959F4FC8
:101A20000895709561957F4F08950E94FB0FB7FF51
:101A30000895821B930B0895AA1BBB1B51E107C09D
:101A4000AA1FBB1FA617B70710F0A61BB70B881F4E
:101A5000991F5A95A9F780959095BC01CD010895DD
:101A6000EE0FFF1F0590F491E02D09945058BB270D
:101A7000AA270E944E0D0C94C80E0E94BA0E38F090
:101A80000E94C10E20F039F49F3F19F426F40C9403
:101A9000B70E0EF4E095E7FB0C94B10EE92F0E940F
:101AA000D90E58F3BA17620773078407950720F019
:101AB00079F4A6F50C94FB0E0EF4E0950B2EBA2FDC
:101AC000A02D0B01B90190010C01CA01A001112444
:101AD000FF27591B99F0593F50F4503E68F11A16F0
:101AE000F040A22F232F342F4427585FF3CF469581
:101AF00037952795A795F0405395C9F77EF41F16A3
:101B0000BA0B620B730B840BBAF09150A1F0FF0F6C
:101B1000BB1F661F771F881FC2F70EC0BA0F621F58
:101B2000731F841F48F4879577956795B795F79548
:101B30009E3F08F0B0CF9395880F08F09927EE0FDD
:101B40009795879508950E948D0E08F481E0089579
:101B50000E94BC0D0C94C80E0E94C10E58F00E9449
:101B6000BA0E40F029F45F3F29F00C94B10E5111E8
:101B70000C94FC0E0C94B70E0E94D90E68F39923B6
:101B8000B1F3552391F3951B550BBB27AA27621779
:101B90007307840738F09F5F5F4F220F331F441F86
:101BA000AA1FA9F335D00E2E3AF0E0E832D09150BA
:101BB0005040E695001CCAF72BD0FE2F29D0660FA7
:101BC000771F881FBB1F261737074807AB07B0E8EA
:101BD00009F0BB0B802DBF01FF2793585F4F3AF0F0
:101BE0009E3F510578F00C94B10E0C94FC0E5F3FB3
:101BF000E4F3983ED4F3869577956795B795F79576
:101C00009F5FC9F7880F911D9695879597F908955D
:101C1000E1E0660F771F881FBB1F621773078407F9
:101C2000BA0720F0621B730B840BBA0BEE1F88F708
:101C3000E09508950E94210E6894B1110C94FC0E59
:101C400008950E94E10E88F09F5798F0B92F9927C8
:101C5000B751B0F0E1F0660F771F881F991F1AF097
:101C6000BA95C9F714C0B13091F00E94FB0EB1E0F3
:101C700008950C94FB0E672F782F8827B85F39F0F2
:101C8000B93FCCF3869577956795B395D9F73EF430
:101C900090958095709561957F4F8F4F9F4F0895D8
:101CA000E89409C097FB3EF49095809570956195F6
:101CB0007F4F8F4F9F4F9923A9F0F92F96E9BB27AC
:101CC0009395F695879577956795B795F111F8CF28
:101CD000FAF4BB0F11F460FF1BC06F5F7F4F8F4F93
:101CE0009F4F16C0882311F096E911C0772321F089
:101CF0009EE8872F762F05C0662371F096E8862F21
:101D000070E060E02AF09A95660F771F881FDAF777
:101D1000880F9695879597F90895990F0008550FA4
:101D2000AA0BE0E8FEEF16161706E807F907C0F061
:101D300012161306E407F50798F0621B730B840B69
:101D4000950B39F40A2661F0232B242B252B21F443
:101D500008950A2609F4A140A6958FEF811D811DE3
:101D6000089597F99F6780E870E060E008959FEF1D
:101D700080EC089500240A94161617061806090622
:101D8000089500240A9412161306140605060895F1
:101D9000092E0394000C11F4882352F0BB0F40F479
:101DA000BF2B11F460FF04C06F5F7F4F8F4F9F4FB9
:101DB000089557FD9058440F551F59F05F3F71F03B
:101DC0004795880F97FB991F61F09F3F79F08795A2
:101DD0000895121613061406551FF2CF4695F1DF2B
:101DE00008C0161617061806991FF1CF86957105BB
:101DF000610508940895E894BB2766277727CB01EF
:101E000097F908950E948D0E08F48FEF08950E94AF
:101E10001A0F0C94C80E0E94BA0E38F00E94C10E20
:101E200020F0952311F00C94B10E0C94B70E1124F0
:101E30000C94FC0E0E94D90E70F3959FC1F3950F80
:101E400050E0551F629FF001729FBB27F00DB11D3E
:101E5000639FAA27F00DB11DAA1F649F6627B00DCE
:101E6000A11D661F829F2227B00DA11D621F739FB7
:101E7000B00DA11D621F839FA00D611D221F749FC5
:101E80003327A00D611D231F849F600D211D822F0C
:101E9000762F6A2F11249F5750409AF0F1F0882333
:101EA0004AF0EE0FFF1FBB1F661F771F881F915060
:101EB0005040A9F79E3F510580F00C94B10E0C9450
:101EC000FC0E5F3FE4F3983ED4F3869577956795D3
:101ED000B795F795E7959F5FC1F7FE2B880F911D8A
:101EE0009695879597F908950E948D0E880B990B0A
:101EF000089581E090E0F8940C940A10A6E1B0E017
:101F000044E050E00C94930F242F0E94A20F252F41
:101F10000E94A20F0C948C0F0E94A10F272F0C94EB
:101F2000A20FDC01CB01FC01F999FECF06C0F2BD86
:101F3000E1BDF89A319600B40D9241505040B8F787
:101F40000895262FF999FECF1FBA92BD81BD20BDFD
:101F50000FB6F894FA9AF99A0FBE01960895052ED5
:101F600097FB1EF400940E94C60F57FD07D00E94F5
:101F7000D90F07FC03D04EF40C94C60F5095409532
:101F8000309521953F4F4F4F5F4F08959095809525
:101F9000709561957F4F8F4F9F4F08950E94FB0F63
:101FA000A59F900DB49F900DA49F800D911D1124AD
:101FB0000895A1E21A2EAA1BBB1BFD010DC0AA1F8A
:101FC000BB1FEE1FFF1FA217B307E407F50720F0A2
:101FD000A21BB30BE40BF50B661F771F881F991F1D
:101FE0001A9469F760957095809590959B01AC0166
:101FF000BD01CF010895A29FB001B39FC001A39F6F
:10200000700D811D1124911DB29F700D811D112431
:08201000911D0895F894FFCF23
:10201800A403A40301000F00010001000000000058
:102028000000A40120016D014B015F01F0010000D7
:102038000000AC002F04A50300000000AC002F0432
:102048000C0400000000EA0420016E616E00696E55
:1020580066006F7666002E003031323334353637FD
:0A206800383900332E312E3100000C
:00000001FF
